S0280000534C53544B33343032415F45464D333250473132425F6C65756172745F6563686F2E7333376F
S113000000000420C9010000F5010000F501000012
S1130010F5010000F5010000F5010000F501000004
S1130020F5010000F5010000F5010000F5010000F4
S1130030F5010000F4010000F5010000F5010000E5
S1130040F5010000F5010000F5010000F5010000D4
S1130050F5010000F5010000F5010000F5010000C4
S1130060F5010000F5010000F5010000F5010000B4
S1130070F5010000F5010000F5010000F5010000A4
S1130080F5010000F5010000F5010000F501000094
S1130090F5010000F501000051300000F5010000F9
S11300A0F5010000F5010000F5010000F501000074
S11300B0F5010000F5010000F5010000F501000064
S11300C0F5010000F5010000F5010000F501000054
S11300D0F5010000F5010000F5010000F501000044
S11300E0F5010000F5010000F5010000F501000034
S11300F0F5010000F5010000F5010000F501000024
S1130100F5010000F5010000F501000010B5054CF3
S1130110237833B9044B13B10448AFF300800123AF
S1130120237010BDB000002000000000404E00000D
S113013008B5034B1BB103490348AFF3008008BD66
S113014000000000B4000020404E0000A3F5803AF7
S1130150704700BF174B002B08BF134B9D46FFF79A
S1130160F5FF00218B460F461348144A121A03F078
S1130170D3FB0E4B002B00D098470D4B002B00D027
S113018098470020002104000D000D48002802D0EB
S11301900C48AFF3008003F093FB2000290003F028
S11301A0F7FA03F079FB00BF00000800000000002C
S11301B00000000000000420B00000208C03002098
S11301C00000000000000000064880470649074A76
S11301D0074B9A42BEBF51F8040B42F8040BF8E7F0
S11301E0FFF7B8FFED0200004C4E000000000020B5
S11301F0B0000020FEE700BF80B582B000AF00F081
S113020025F878600A4BD3F808311B0AC3F30803B6
S11302103B603B6801337A68B2FBF3F37B60054AC9
S11302207B6813607B6818460837BD4680BD00BFF5
S113023000400E400800002080B400AF024B184676
S1130240BD465DF8047B7047005A620280B483B0F7
S113025000AF1C4BD3F8943003F00703023B032B8D
S11302601BD801A252F823F0890200008102000089
S11302707902000091020000134B1B687B6010E0C0
S11302804FF400437B600CE0104B1B687B6008E07C
S11302900F4B1B685B087B6003E00D4B1B687B60A6
S11302A000BF084BD3F800311B0A03F01F030133CE
S11302B07A68B2FBF3F318460C37BD465DF8047B4D
S11302C0704700BF00400E400400002000000020E2
S11302D00C00002080B400AF034B1B681846BD46D9
S11302E05DF8047B704700BF0000002080B400AFBD
S11302F0074B084A9A60064BD3F88830044A43F403
S11303007003C2F8883000BFBD465DF8047B7047B7
S113031000ED00E00000000080B400AF4FF40043A3
S11303201846BD465DF8047B704780B400AF4FF4B7
S11303307A731846BD465DF8047B704780B400AFFD
S1130340034B1B681846BD465DF8047B704700BF2D
S11303500400002080B483B000AF786001227B6881
S113036002FA03F318460C37BD465DF8047B704768
S113037080B487B000AFF860B9607A60FB6803F1BD
S1130380424303F58013DA00BB6813449B007B618E
S11303907B697A681A6000BF1C37BD465DF8047B30
S11303A0704780B485B000AF786039607B6803F132
S11303B0424303F58013DA003B6813449B00FB605F
S11303C0FB681B6818461437BD465DF8047B70470C
S11303D080B485B000AF78607B68002B03D07B6865
S11303E0B3F5004F00BF7B68B3FA83F3DBB2C3F10C
S11303F01F03FB60FB6818461437BD465DF8047B99
S1130400704780B584B000AF78607B680133B3FA7D
S113041083F3DBB2C3F11F03FB60F868FFF79AFFB5
S1130420FB6818461037BD4680BD000080B400AF9D
S1130430064B1B6803F04003002B01D1012300E0AD
S113044000231846BD465DF8047B70473C300E40DF
S113045080B500AFFFF7EAFF034683F00103DBB288
S1130460002B08D100BF12210448FFF79AFF03466E
S1130470002BF8D100E000BF80BD00BF04300E4067
S113048080B500AFFFF7E4FF034B5B681B0C03F080
S11304900303DBB2184680BD00300E4080B584B043
S11304A000AF78600123FB607B68124A934204D852
S11304B00023FB600023BB6008E07B680E4A934284
S11304C002D80123BB6001E00223BB60FA6810215B
S11304D00A48FFF74DFF094BD3F8003123F080722F
S11304E0BB681B0605491343C1F8003100BF103730
S11304F0BD4680BD0048E8010090D00300400E4096
S113050080B483B000AF054B1B687B607B681846E2
S11305100C37BD465DF8047B704700BF1000002017
S113052080B582B000AFFFF791FE7860064BD3F838
S113053000311B0A03F01F0301337A6802FB03F343
S113054018460837BD4680BD00400E4080B582B0D5
S113055000AF0D4800F09AFD0346FB70FB78072BB3
S113056005D0092B07D1FFF771FE786006E0FFF78D
S1130570C7FF786002E000237B6000BF7B681846F9
S11305800837BD4680BD00BF06000E0080B584B0AC
S113059000AF78607B68002B1CD11B4800F076FD0F
S11305A00346FB7200BFFB7A013B072B23D801A251
S11305B052F823F0D9050000F7050000F705000004
S11305C0E7050000F7050000F7050000DF0500005F
S11305D0EF050000002312E00023FB600EE0FFF7AC
S11305E08FFFF8600AE0FFF775FEF86006E0FFF79A
S11305F097FFF86002E00023FB6000BFFB68184629
S11306001037BD4680BD00BFB800320080B485B04D
S113061000AF786039601E4B5B6803F04073FB6089
S11306200023BB6012E01B4ABB68DB0013441A7949
S11306303B68DBB29A4206D1164ABB6852F83330A3
S11306407A689A4206D9BB680133BB60BB68042B45
S1130650E9D900E000BFBB68052B02D10323FB608E
S113066005E00C4ABB68DB0013445B79FB60FB6864
S11306701B06FB60064B5B6823F040720449FB6871
S113068013434B6000BF1437BD465DF8047B7047CD
S113069000000E40C84C000080B582B000AF0E4B85
S11306A01B6C002B14BF01230023FB710A4B41F682
S11306B071321A64FFF7C0FD034600211846FFF7A4
S11306C0A5FFFB79002B02D0034B00221A6400BF64
S11306D00837BD4680BD00BF00000E4080B584B021
S11306E000AF786039600C4B1B6C002B14BF0123E6
S11306F00023FB73084B41F671321A643968786839
S1130700FFF784FFFB7B002B02D0034B00221A640B
S113071000BF1037BD4680BD00000E4080B487B0D6
S113072000AF78600F237B617B6803333B617B6997
S1130730FB60FA683B69934228BF1346BB60BB6801
S11307401B07BB60BB6818461C37BD465DF8047BBD
S11307507047000080B400AF044B5B6A1B0903F0D0
S113076003031846BD465DF8047B704700400E4005
S113077080B483B000AF7860074B5B6A23F030022B
S11307807B681B01044913434B6200BF0C37BD4611
S11307905DF8047B704700BF00400E4090B585B003
S11307A000AF78600023BB607B683C4A93420BD067
S11307B07B683A4A934209D87B68394A934203D00A
S11307C07B68384A934201E000BF00E000BF7868CC
S11307D000F05CFC0346FB607B68304A93421AD00D
S11307E07B682E4A93421DD87B682D4A934204D0DD
S11307F07B682C4A934207D014E02B4BD3F880300B
S113080003F00703FB600EE0274BD3F8843003F0BA
S11308100703FB6007E0244BD3F8883003F0070399
S1130820FB6000E000BFFB68042B2ED801A252F845
S113083023F000BF850800004908000051080000AB
S11308406108000059080000FFF766FDB8601FE06A
S1130850FFF774FDB8601BE0FFF767FDB86017E0B1
S1130860FFF7F4FC0446104BD3F800311B0E03F0E1
S1130870010301331846FFF76DFD0346B4FBF3F3A0
S1130880BB6005E00023BB6002E00023BB6000BF47
S1130890BB6818461437BD4690BD00BF0500240050
S11308A002001E000300200000400E4080B483B00C
S11308B000AF78600A4BD3F8443103F00103002BF6
S11308C008D100BF064BD3F840217B681340002BAE
S11308D0F8D100E000BF0C37BD465DF8047B7047DB
S11308E000400E4080B400AF00BFBD465DF8047BFD
S11308F0704780B400AF00BFBD465DF8047B70470D
S113090080B582B000AF7860786800F0BDF9034626
S1130910013318460837BD4680BD80B582B000AFAC
S1130920786039603B68013B1946786800F078FAD2
S113093000BF0837BD4680BD80B586B000AF786083
S11309400B46FB7000233B617B681B0A03F00F031B
S1130950013B092B44D801A252F823F08509000079
S113096091090000E1090000E10900008B09000081
S113097097090000A1090000E1090000AB0900008B
S1130980B7090000184B7B6118E0184B7B6115E038
S1130990174B7B6112E0174B7B6101233B610DE038
S11309A0154B7B6110233B6108E0144B7B614FF4D2
S11309B080333B6102E0124B7B6100BF7B681B0B01
S11309C003F01F03FB603B69002B02D03869FFF77B
S11309D06DFFFB781A46F9687869FFF7C9FC00E0F7
S11309E000BF1837BD4680BD00400E40B0400E40E9
S11309F0C0400E40E0400E40E8400E40F0400E4043
S1130A0050410E4090B585B000AF78607B6803F428
S1130A107813B3F5781F00F01B81B3F5781F00F24B
S1130A202281B3F5481F00F00E81B3F5481F00F290
S1130A301A81B3F5401F00F0E580B3F5401F00F2C2
S1130A401281B3F5381F00F0B680B3F5381F00F2F9
S1130A500A81B3F5101F00F0E980B3F5101F00F20E
S1130A600281B3F5001F00F0B580B3F5001F00F25A
S1130A70FA80B3F5F01F79D0B3F5F01F00F2F380DC
S1130A80B3F5D01F00F0AB80B3F5D01F00F2EB80BC
S1130A90B3F5B01F7DD0B3F5B01F00F2E480B3F519
S1130AA0A01F68D0B3F5A01F00F2DD80B3F5801F4E
S1130AB000F0C580B3F5801F00F2D580B3F5602F38
S1130AC000F0B980B3F5602F00F2CD80B3F5402F6C
S1130AD03DD0B3F5402F00F2C680B3F5202F23D0CC
S1130AE0B3F5202F00F2BF80B3F5802F0DD0B3F5FE
S1130AF0802F00F2B880002B03D0B3F5003F17D04D
S1130B00B1E0FFF7A3FBF860B0E0FFF79FFBF860EC
S1130B10594BD3F80C311B0AC3F308030133FA68A9
S1130B20B2FBF3F3FB60A1E0FFF790FBF8609DE0FC
S1130B30FFF78CFBF860504BD3F808311B0AC3F362
S1130B4008030133FA68B2FBF3F3FB608EE0FFF7AE
S1130B507DFBF860484BD3F814311B0A03F01F03E4
S1130B600133FA68B2FBF3F3FB607FE04348FFF71D
S1130B7015FEF8607AE04248FFF710FEF8603E4B3D
S1130B80D3F8303103F00303FA6822FA03F3FB606D
S1130B906CE03A48FFF702FEF860374BD3F8203197
S1130BA003F00F031846FFF7D5FB0246FB68B3FBBF
S1130BB0F2F3FB605AE03148FFF7F0FDF8602E4B8A
S1130BC0D3F820311B0903F00303FA6822FA03F374
S1130BD0FB604BE02B48FFF7E1FDF86046E0294855
S1130BE0FFF7DCFDF860244BD3F828311B0903F030
S1130BF003031846FFF7AEFB0246FB68B3FBF2F3B0
S1130C00FB6033E01F48FFF7C9FDF8601A4BD3F8C7
S1130C1028311B0A03F0030304331846FFF79AFB39
S1130C200246FB68B3FBF2F3FB601FE01448FFF7D6
S1130C30B5FDF8601AE0FFF789FCF86016E0FFF7ED
S1130C405FFCF86012E00020FFF7A0FCF8600DE004
S1130C50FFF7FCFA04467868FFF752FE0346B4FB3C
S1130C60F3F3FB6002E00023FB6000BFFB6818465F
S1130C701437BD4690BD00BF00400E4002001E0068
S1130C80050024000300200080B584B000AF786024
S1130C907B681B0903F00F03BB60BB68013B092B96
S1130CA000F2AA8001A252F823F000BFD50C000084
S1130CB0E50C0000F50C0000150D0000F90D000016
S1130CC0F90D0000250D0000350D0000850D000014
S1130CD0DB0D00004C4BD3F800311B0A03F01F035B
S1130CE0FB608CE0484BD3F814311B0A03F01F035C
S1130CF0FB6084E0444BD3F800311B0E03F0010386
S1130D00FB60FB6801331846FFF724FB0346013BF5
S1130D10FB6074E03C4BD3F80C311B0AC3F30803AB
S1130D20FB606CE0384BD3F808311B0AC3F30803AB
S1130D30FB6064E07B68354A934204D07B68344AA4
S1130D4093420DD01AE0304BD3F8203103F00F0357
S1130D50FB60F868FFF7FEFA0346013BFB6010E016
S1130D60294BD3F820311B0903F00303FB60F86817
S1130D70FFF7F0FA0346013BFB6002E00023FB604F
S1130D8000BF3CE07B68234A934204D07B68224A3C
S1130D9093420ED01DE01C4BD3F828311B0903F0FD
S1130DA00303FB60F868FFF7D5FA0346013BFB60D9
S1130DB012E0154BD3F828311B0A03F00303FB6040
S1130DC0FB6804331846FFF7C5FA0346013BFB6092
S1130DD002E00023FB6000BF11E07B680F4A9342EE
S1130DE006D1094BD3F8303103F00303FB6002E072
S1130DF00023FB6000BF02E00023FB6000BFFB6830
S1130E0018461037BD4680BD00400E4080061600CF
S1130E1080162E0090171A0090273000A0091400A5
S1130E2080B584B000AF786039607B681B0903F03B
S1130E300F03FB60FB68013B092B00F2148101A244
S1130E4052F823F06D0E0000B70E0000CF0E000024
S1130E50EF0E000067100000671000000B0F000089
S1130E603F0F0000CD0F00003D100000FFF714FC01
S1130E707F48FFF713FBFFF735FD7E4BD3F80031B6
S1130E8023F4F8523B681B027A491343C1F800313A
S1130E90FFF7B2F9B860FFF7F3FA03461946B868EA
S1130EA0FFF71CFCFFF7D2F903461846FFF7F6FAE2
S1130EB0FFF71FFDD8E06F4BD3F8143123F4F85239
S1130EC03B681B026B491343C1F81431CCE038680A
S1130ED0FFF77EFA3860674BD3F8003123F0807255
S1130EE03B681B0663491343C1F80031BCE0614B06
S1130EF0D3F80C3123F4FF3323F480733A681202DD
S1130F005C491343C1F80C31AEE0FFF7C5FB594B04
S1130F10D3F8083123F4FF3323F480733A681202C0
S1130F2054491343C1F80831FFF766F9B860FFF775
S1130F30A7FA03461946B868FFF7D0FB94E07B682C
S1130F404D4A93422DD07B684B4A93423CD87B68F0
S1130F504A4A934204D07B68494A93420FD033E013
S1130F604FF48020FFF7A2FC424BD3F8303123F03A
S1130F70030240493B681343C1F8303125E0386827
S1130F80FFF73FFA38600420FFF790FC394BD3F8A1
S1130F90203123F00F0237493B681343C1F8203155
S1130FA013E03868FFF72DFA38600420FFF77EFC61
S1130FB0304BD3F8203123F030023B681B012D491C
S1130FC01343C1F8203100E000BF4DE07B682D4A97
S1130FD0934204D07B682C4A934213D02DE03868A6
S1130FE0FFF70FFA38604020FFF760FC214BD3F87D
S1130FF0283123F030023B681B011E491343C1F81A
S113100028311AE03B687F2B02D83B680E2B00BFC7
S11310103868FFF7F6F90346043B3B604020FFF7CE
S113102045FC144BD3F8283123F440723B681B026F
S113103010491343C1F8283100BF15E07B680F4AFB
S113104093420ED14FF48020FFF730FC094BD3F8C4
S1131050303123F0030207493B681343C1F83031B0
S113106000E000BF00E000BF00BF1037BD4680BDF8
S11310700148E80100400E4080162E00A00914002B
S11310808006160090171A009027300080B485B0AF
S113109000AF78600123FB737B6803F00F03BB6030
S11310A0BB68013B072B00F2CC8001A252F823F06D
S11310B0D1100000271100005D1100004312000050
S11310C0A5110000DB11000043120000FF11000015
S11310D0614BD3F8943003F00703023B052B1ED871
S11310E001A252F823F000BF0D1100000711000007
S11310F001110000131100001F110000191100005C
S11311000223FB730EE00323FB730BE00423FB7346
S113111008E00B23FB7305E00C23FB7302E00523BB
S1131120FB7300BF90E04C4BD3F8803003F007030F
S1131130042B0CD0042B0DD8012B02D0022B03D08E
S113114008E00323FB7308E00223FB7305E00A2392
S1131150FB7302E00123FB7300BF75E03E4BD3F841
S1131160843003F00703013B032B17D801A252F884
S113117023F000BF851100008B11000097110000BF
S1131180911100000323FB730BE00223FB7308E0BF
S11311900A23FB7305E00623FB7302E00123FB73C0
S11311A000BF51E02C4BD3F8883003F00703042B25
S11311B00CD0042B0DD8012B02D0022B03D008E055
S11311C00323FB7308E00223FB7305E00A23FB738C
S11311D002E00123FB7300BF36E01F4B1B6F03F0DB
S11311E00103002B04D0012B05D10923FB7305E077
S11311F00723FB7302E00123FB7300BF24E0164BBB
S1131200D3F85C3103F03003302B13D0302B14D8D7
S1131210202B0CD0202B10D8002B02D0102B03D065
S11312200BE00123FB730BE00723FB7308E00423AB
S1131230FB7305E00823FB7302E00123FB7300BF8B
S113124002E00023FB7300BFFB7B18461437BD4646
S11312505DF8047B704700BF00400E4080B58AB043
S113126000AF78600B46FB7003237B62032387F88F
S113127023300023BB6100237B617B68112B19D1D0
S1131280FB78042B03D1FFF725F878610BE0FB789A
S1131290052B08D100F058F90346A44A934202D919
S11312A000F052F978617B69002B03D00021786942
S11312B000F0B4FD7B6803F00F033B613B69013B25
S11312C0072B00F2298101A252F823F0ED1200004D
S11312D0DF130000F113000019150000E3130000F0
S11312E08914000019150000A7140000FB78023BC4
S11312F00A2B00F2138101A252F823F029130000F3
S11313003513000041130000531300001D150000A5
S11313101D1500001D1500001D1500001D15000001
S1131320651300007113000004237B62002387F817
S1131330233023E003237B62012387F823301DE05D
S113134002237B62022387F823307948FFF7A6F84B
S113135014E001237B62032387F823307448FFF7EA
S11313609DF80BE005237B62032387F8233005E017
S113137007237B62062387F8233000BF97F82330C6
S1131380062B06D097F8233001220121184600F0DD
S1131390E7F8FFF781F9FFF7A5FA7B69002B01D085
S11313A0FFF756F8634A7B6A5367FEF725FFF86038
S11313B0FEF74CFF03461846FFF770F8FFF760F896
S11313C003461946F868FFF789F97B69002B03D1B6
S11313D00121002000F022FDFFF78BFAA3E0564B19
S11313E0BB61BB69002B01D0BB6900E0534BBB61FF
S11313F0BB69002B01D0BB6900E0514BBB61FB789A
S1131400013B092B00F28C8001A252F823F000BFAB
S1131410391400003F1400004F140000211500008F
S1131420211500005F1400002115000021150000A3
S1131430211500007B1400000023FB6120E0012241
S11314400121002000F08CF80223FB6118E0012246
S11314500121012000F084F80123FB6110E0FEF774
S1131460F5FE03461846FFF719F801220221354814
S1131470FEF77EFF0323FB6102E00423FB6100BF50
S1131480BB69FA691A604EE0FB78072B02D0092B7E
S113149004D048E0274B00221A6703E0254B0122C1
S11314A01A6700BF3FE0FB78013B072B3AD801A243
S11314B052F823F0D514000025150000251500006E
S11314C0EB1400002515000025150000DB140000B6
S11314D0FB1400000023FB6112E00122012104201F
S11314E000F03EF80123FB610AE001220121022001
S11314F000F036F80223FB6102E00323FB6100BF26
S11315000C4BD3F85C3123F03002FB691B01094911
S11315101343C1F85C3106E000BF04E000BF02E001
S113152000BF00E000BF2837BD4680BD002D31015B
S11315300148E80100400E4080400E4088400E40C3
S113154084400E40B0400E4080B400AF034B1B6893
S11315501846BD465DF8047B704700BF0C000020B0
S113156080B588B000AF0346FB710B46BB711346D0
S11315707B71FB79042B00F2B88001A252F823F0AE
S1131580DD150000CB150000A7150000951500001F
S1131590B915000001237B6102233B610123FB6138
S11315A00023BB6125E004237B6108233B61032303
S11315B0FB610223BB611CE010237B6120233B61A0
S11315C00523FB610423BB6113E040237B6180237B
S11315D03B610723FB610623BB610AE04FF4807380
S11315E07B614FF400733B610923FB610823BB61FA
S11315F000BFBB79002B5BD00023FB73FB79022B6C
S113160011D1FFF7A7F80346002B0CD1394BDB6B44
S11316100123FB73384B5B6A03F00103012B02D1F6
S11316200120FFF7A5F8344A7B69136600BFB96946
S11316303248FEF7B6FE0346002BF8D07B79002B28
S113164054D000BFF9692D48FEF7ABFE0346002BCA
S1131650F8D0FB79022B49D1FB7B002B46D0264BDB
S11316605B6A03F00103012B05D101222021022032
S113167000F04CF903E00021022000F0FBF8022006
S113168000F03EF8B860012200210220FFF768FF55
S1131690B968022000F06EF8174A7B69136600BF30
S11316A0F9691648FEF77DFE0346002BF8D01DE0CD
S11316B0114A3B69136600BF0F4BD3F890300121E8
S11316C0BA6901FA02F21340002BF5D17B79002BA1
S11316D00CD000BF084BD3F890300121FA6901FA0D
S11316E002F21340002BF5D100E000BF2037BD46C5
S11316F080BD00BF00300E4000400E4090400E40C0
S113170080B485B000AF0346FB71FB79013B032B2A
S113171023D801A252F823F0291700004D17000026
S11317203517000041170000114B1B6AC3F308036F
S1131730FB6015E00E4B1B6903F07F03FB600FE0B9
S11317400B4B9B6903F07F03FB6009E0084BD3F864
S11317509C30C3F30A03FB6002E00023FB6000BF7C
S1131760FB6818461437BD465DF8047B704700BF1C
S113177000400E4080B584B000AF03463960FB7171
S1131780FB79013B032B6AD801A252F823F000BF76
S1131790A117000023180000CF170000F91700005C
S11317A03B68C3F308033B6000BF1A212E48FEF7D1
S11317B0F8FD0346002BF8D12C4B1B6A23F4FF736E
S11317C023F0010329493A6813430B6248E03B685C
S11317D003F07F033B6000BF18212348FEF7E1FDBF
S11317E00346002BF8D1214B1B6923F07F021F49CC
S11317F03B6813430B6133E03B6803F07F033B60BA
S113180000BF19211848FEF7CCFD0346002BF8D180
S1131810164B9B6923F07F0214493B6813438B6189
S11318201EE0124BD3F89030104B5B6A23F0300368
S11318300E4A43F0100353623B68DB0903F00F03C5
S11318401846FEF76BFFF860084B1A6B084B134001
S11318503A681A430549FB6813430B6300E000BF71
S113186000BF1037BD4680BD40410E4000400E40D1
S113187000F8FF0F80B584B000AF03460A46FB7141
S11318801346BB71FEF766FF0346002B03D14FF4EA
S11318904003FB6017E0BB79302B0DD0302B0FDCFD
S11318A0002B05D0202B0BD14FF40003FB600AE082
S11318B04FF44003FB6006E04FF44003FB6002E09A
S11318C0104BFB6000BF00BF0F4BD3F89020FB68A8
S11318D01340FA689A42F7D1FB6803F48003002BA3
S11318E00AD0094BD3F8A03003F48063002B14BF53
S11318F001230023DBB200E0012318461037BD4664
S113190080BD00BFFF33E10700400E4080B582B0C8
S113191000AF0346FB710B46BB7113467B71FB7929
S1131920022B15D1BB79002B07D00D4B4FF48062ED
S1131930C3F8A8200A4ABB7953667B79002B09D0E7
S1131940BA79FB7911461846FFF794FF034603E082
S113195000BF00E000BF012318460837BD4680BD24
S113196000400E4080B483B000AFEFF310833B60BF
S11319703B687B6072B600BF7B6818460C37BD4677
S11319805DF8047B704780B483B000AF78607B68F7
S1131990002B01D162B600BF00BF0C37BD465DF815
S11319A0047B704780B500AFFEF726FC00BF80BD06
S11319B080B487B000AFF860B9607A60FB6803F167
S11319C0424303F58013DA00BB6813449B007B6138
S11319D07B697A681A6000BF1C37BD465DF8047BDA
S11319E0704780B485B000AF786039607B6803F1DC
S11319F0424303F58013DA003B6813449B00FB6009
S1131A00FB681B6818461437BD465DF8047B7047B5
S1131A1080B400AF064B1B6803F04003002B01D1D8
S1131A20012300E000231846BD465DF8047B70479F
S1131A303C300E4080B500AFFFF7EAFF034683F069
S1131A400103DBB2002B08D100BF12210448FFF7C9
S1131A50C8FF0346002BF8D100E000BF80BD00BFE3
S1131A6004300E4080B500AFFFF7E4FF034B5B6822
S1131A701B0C03F00303DBB2184680BD00300E409C
S1131A8080B483B000AF7860044A7B68D36200BF3F
S1131A900C37BD465DF8047B704700BF00300E4034
S1131AA080B400AF034B5B6A1846BD465DF8047B07
S1131AB0704700BF00300E4080B400AF034B0022DB
S1131AC05A6300BFBD465DF8047B704700300E408A
S1131AD080B400AF044B4AF6E8525A6300BFBD46D7
S1131AE05DF8047B704700BF00300E4080B400AF47
S1131AF0044B0022C3F8802100BFBD465DF8047B7F
S1131B00704700BF00400E4080B400AF044B45F660
S1131B100E02C3F8802100BFBD465DF8047B704708
S1131B2000400E4080B483B000AF0346FB71FB79E4
S1131B30C3F10203102202FA03F318460C37BD4620
S1131B405DF8047B7047000090B585B000AF034694
S1131B50FB71FB79002B1BD14A4BD3F890304A4AD6
S1131B6013601120FFF792FA03461A46474B1A7086
S1131B70FFF760FF464B5B681B0CDBB203F003030B
S1131B80DAB2444B1A703F4B1B69434A136075E049
S1131B90FFF73EFF0346002B07D03E4B1B783C4C1F
S1131BA01846FFF7BFFF03462361364BD3F8803155
S1131BB003F00103FB60FFF7A7FF0023BB60324B78
S1131BC01B6803F00103BA681343BB602E4B1B6808
S1131BD003F01003BA681343BB602B4B1B6803F07C
S1131BE04003BA681343BB60274B1B6803F004032C
S1131BF0BA681343BB60244B1B6803F48073BA6850
S1131C001343BB601F4ABB681366FFF713FF204BE7
S1131C101B6803F01003002B18D000BF194BD3F836
S1131C20403103F08073002BF8D1164A1A4B1B681D
S1131C301361164B1B78052B08D1184B1C68FFF752
S1131C4011FF034619462046FEF748FD0F4B1B784B
S1131C50052B05D00D4B1B7819461120FFF7FEFA12
S1131C60094B1B6803F00103002B02D1054B022230
S1131C701A66FB68002B01D0FFF738FF00BF14374A
S1131C80BD4690BD00400E40D8000020DC0000207E
S1131C9000300E40DD000020E00000200C00002099
S1131CA080B582B000AFFFF7B3FE034683F00103B3
S1131CB0DBB2002B1FD1FFF7BDFE114B1B681B0AC3
S1131CC003F003037B600E4B5B681B0C03F0030300
S1131CD03B607A683B689A4206D9094B1B68084AFC
S1131CE043F01003136007E0054B1B68044A23F01C
S1131CF01003136000E000BF0837BD4680BD00BF7D
S1131D0000300E4080B483B000AF0C4B1B6803F06E
S1131D101003002B0BD00A4B1B691B0C03F01F0391
S1131D207B607B68082B02D1064B074A1A6000BF10
S1131D300C37BD465DF8047B704700BF00300E4091
S1131D4000400E400C000020C0EA210180B400AF26
S1131D5000BFBD465DF8047B704780B400AF00BF90
S1131D60BD465DF8047B704780B400AF00BFBD463C
S1131D705DF8047B704780B400AF00BFBD465DF8DA
S1131D80047B704780B584B000AF0346FB71FB79D8
S1131D90002B02D00020FFF7D7FEFFF781FF1C4B7A
S1131DA01B691B4A43F004031361FFF7CFFFFFF7DE
S1131DB0D4FF184B1B6803F01003002B08D0FFF767
S1131DC0D1FDF86002F07CFFF868FFF7DCFD00E06D
S1131DD030BFFFF7D0FFFFF7C7FFFB79002B03D01D
S1131DE00120FFF7B1FE01E0FFF78CFF0A4B1B68EF
S1131DF0094A23F000431360FB7983F00103DBB24B
S1131E00002B01D0FFF7CEFD00BF1037BD4680BDCB
S1131E1000ED00E000300E404C310E4080B584B03F
S1131E2000AF78600B46FB70FFF7F2FD034683F0CA
S1131E300103DBB2002B28D17B68002B0FD1154B9B
S1131E40D3F800311B0A03F01F030133BB60FEF714
S1131E50FDF90246BB6802FB03F3FB6001E07B680B
S1131E60FB600D4B1B78002B09D0FB680B4A934297
S1131E7005D8FB781946022000F012F806E0FB783A
S1131E801946002000F00CF800E000BF1037BD46F2
S1131E9080BD00BF00400E40D4000020002D310161
S1131EA090B587B000AF03460A46FB711346BB7179
S1131EB0FFF7AEFD034683F00103DBB2002B31D103
S1131EC0FFF7D0FD03461A46FB7993422CD0184BFA
S1131ED0D3F800311B0A03F01F0301337B61FEF7C3
S1131EE0B5F938613B697A6902FB03F3FB60FB795E
S1131EF0022B03D102213869FEF7F0FB0D4CFB796C
S1131F001846FFF70FFE03462361BB79002B01D06F
S1131F10FFF790FDFB79002B07D100213869FEF70C
S1131F20DDFB02E000BF00E000BF1C37BD4690BDF2
S1131F3000400E4000300E4080B400AF012318462C
S1131F40BD465DF8047B704780B582B000AF0C4B92
S1131F50DB6E0B4A43F08073D36600210948FFF718
S1131F6040FD78607B68002B03D0042000F0CAFC9D
S1131F7002E0002000F0C6FC00BF0837BD4680BD6B
S1131F8000300E404C300E4080B48BB000AF0123C3
S1131F907B627B6A1B053B62324BDB6C1B0A03F0E2
S1131FA00F03FB61304B1B881A462F4B1B882833C9
S1131FB05B08134403F12801FB695A1C13469B0078
S1131FC01344B1FBF3F3013BBB61BB697B610723A2
S1131FD03B613A697B69934228BF1346BB61BB6985
S1131FE01B06BB611F4BDB6C23F0EE62B9693B6AD5
S1131FF00B431C491343CB641C4BB3F90030002B37
S113200029DB1A4BB3F90030FB81FA89FB892833A9
S11320105B08134403F12802FB6901335900FB698F
S113202001335B080B44B2FBF3F3BB60BB687B601A
S113203007233B603A687B68934228BF1346BB6022
S1132040BB681B01BB60074B1B6D23F07002054985
S1132050BB6813430B6500BF2C37BD465DF8047B9A
S1132060704700BF00300E40CC000020D00000209C
S113207080B483B000AF78600B467B807B689AB2F3
S1132080054B1A80054A7B88138000BF0C37BD4678
S11320905DF8047B704700BFCC000020D000002016
S11320A080B483B000AF0346FB71FB79002B02D0F0
S11320B0012B04D007E0074B074A9A6503E0054B60
S11320C0064A9A6500BF00BF0C37BD465DF8047B25
S11320D0704700BF00300E4077402057372110B7BB
S11320E080B485B000AF0346FB710B46BB71134649
S11320F07B712D4BD3F88031FB60BB79032B1DD84A
S113210001A252F823F000BF192100002121000090
S11321102B21000035210000FB68DBB2FB600FE0DF
S1132120FB681B0ADBB2FB600AE0FB681B0CDBB23A
S1132130FB6005E0FB681B0EFB6001E000232CE064
S11321407B79002B11D1FB681B03FB60FB6823F434
S11321507043002B01D000231FE0144BDB6E23F4EB
S113216070421249FB681343CB667B79012B13D170
S1132170FB681B03FB60FB6823F47043002B01D056
S113218000230AE0094BD3F8EC3023F470420749EA
S1132190FB681343C1F8EC30012318461437BD46DD
S11321A05DF8047B704700BFB081E00F00300E4043
S11321B080B489B000AFF860B96011461A460B4686
S11321C0FB711346BB710023FB610023BB61BB7928
S11321D01B02FA79002A01D0012200E000221343F5
S11321E07B617B6940F2013293425CD07B6940F2AF
S11321F00132934200F293807B69B3F5407F00F093
S113220082807B69B3F5407F00F289807B6940F26C
S1132210012293423BD07B6940F2012293427ED853
S11322207B69B3F5007F62D07B69B3F5007F76D814
S11322307B6940F2011293421DD07B69B3F5817F23
S11322406DD27B69B3F5807F45D07B69B3F5807F20
S113225065D87B69002B32D07B69012B5FD1364B6B
S1132260D3F87431FB61FB691B0ADBB2BB61FB6908
S1132270DBB2FB6154E0304BD3F87431FB61FB6992
S11322801B0EBB61FB691B0CDBB2FB6148E02A4BF4
S1132290D3F87831FB61FB691B0ADBB2BB61FB69D4
S11322A0DBB2FB613CE0244BD3F87831FB61FB6982
S11322B01B0EBB61FB691B0CDBB2FB6130E01E4BE8
S11322C0D3F86C31FB61FB691B0ADBB2BB61FB69B0
S11322D0DBB2FB6124E0184BD3F86C31FB61FB6982
S11322E01B0EBB61FB691B0CDBB2FB6118E0124BDC
S11322F0D3F87031FB61FB691B0ADBB2BB61FB697C
S1132300DBB2FB610CE00C4BD3F87031FB61FB6971
S11323101B0EBB61FB691B0CDBB2FB6100E000BF61
S1132320FB68FA691A60BB68BA691A6000BF24378F
S1132330BD465DF8047B7047B081E00F80B584B082
S113234000AF0346FB713E4B5B6B012B0CBF0123BB
S11323500023FB73FFF7BCFB00BF394B9B6F03F0FB
S11323600103002BF9D1364B1B6C03F00303BB6054
S1132370BB68002B04D001220D213248FFF718FB63
S1132380BB68DBB2FA799A4208D1FB79002B53D1AE
S113239000220D212B48FFF70BFB4DE0BB68032BFC
S11323A002D0BB68002B20D1FB79022B02D0FB7931
S11323B0012B1AD14FF40020FFF762FB00BF204B22
S11323C09B6F03F00103002BF9D11D4B1B6C23F011
S11323D003031B4A43F00103136400BFFFF760FBD0
S11323E0034603F40023002BF8D000BF144B9B6F6B
S11323F003F00103002BF9D1114B1B6C23F00302F2
S1132400FB790F4913430B6400BF0D4B9B6F03F023
S11324100103002BF9D1FB79002B14BF0123002306
S1132420DBB21A460D210748FFF7C2FAFB7B002BEB
S113243003D0FFF741FB00E000BF1037BD4680BD6D
S113244000300E4054300E4080B584B000AF786048
S1132450484B02229A63474B9B6B03F00F03022BFA
S113246001D0002381E0FFF767FD7B685B78012BD7
S113247002D07B685B78022B7B68DB884A2B02D80E
S11324800023FB6015E07B68DB88B3F5FA7F03D299
S11324904FF08053FB600CE07B68DB8840F6C3128E
S11324A0934203D84FF00053FB6002E04FF04053D7
S11324B0FB60304BDB6C23F0405323F001037A685C
S11324C0B2F90C20002A01DB012100E00021FA68A6
S11324D00A4328491343CB64264BD3F8EC30254AEE
S11324E043F44073C2F8EC307B689A88224B1A801C
S11324F0FFF72AFD7B681B891A467B68B3F90C3009
S113250019461046FFF7B4FD7B689B88184600F017
S11325108DF97B689B7B1846FFF7C2FD7B685B885F
S113252001220121184600F02BF8034683F0010331
S1132530DBB2002B01D0002317E00E4BDB6B0D4AFE
S113254043F48063D3637B685B781846FFF7F6FE39
S11325507B689B7A202B01D1012300E000231A46DB
S113256005210648FFF724FA012318461037BD4613
S113257080BD00BF00300E40CE0000203C300E4035
S113258090B595B000AF78600B46FB701346BB70F6
S11325900023FB6400237B6407F1240300221A60F8
S11325A05A609A6007F1180300221A605A609A6010
S11325B007F10C0300221A605A609A60984B1B883A
S11325C03B810023BB727B68B3F5E16F06D37B6864
S11325D040F6B832934201D8012300E0002387F883
S11325E0433097F8433003F0010387F8433097F8FA
S11325F0433083F00103DBB2002B01D000230AE156
S11326007B68B3F5E16F8CBF0123002387F8423068
S113261097F84230002B0AD04FF4E163FB6440F694
S1132620B8337B647A6CFB6CD31ABB6409E04FF457
S11326309663FB644FF4E1637B647A6CFB6CD31A9E
S1132640BB6497F84230002B0BD0764BD3F868313B
S11326503B623B6A1B0E7B613B6A1B0CDBB23B6239
S11326600AE0704BD3F868313B623B6A1B0ADBB269
S11326707B613B6ADBB23B626B4BDB6C1B0FDBB2F7
S113268003F00303DBB23B723B7A97F8422007F175
S11326900C0107F11800FFF78BFD634BD3F8EC3006
S11326A01B0ADBB203F00303DBB27B727C7A97F87C
S11326B0422007F10C03191D07F11803181D2346C6
S11326C0FFF776FD7A68FB6CD31A79693A6A8A1A3D
S11326D003FB02F2BB6CB2FBF3F3FB62FA6A3B6AE4
S11326E01344FB627A68FB6CD31AF968BA698A1AD4
S11326F003FB02F2BB6CB2FBF3F37B627A6ABB6945
S113270013447B627A68FB6CD31A3969FA698A1AB2
S113271003FB02F2BB6CB2FBF3F3BB62BA6AFB6964
S11327201344BB62FA6A7B699A4213D8FA6A3B6A19
S11327309A420FD3BA6A3B699A420BD8BA6AFB69C8
S11327409A4207D37A6AFB689A4203D87A6ABB69C9
S11327509A4201D200235EE0BB78002B12D0324BA8
S1132760DB6D23F4FE4323F00203FA6A12021343DF
S113277097F84220002A01D0022200E000222A49D0
S11327801343CB65FB78002B44D0397A97F8423059
S113279000221846FFF7A4FC034683F00103DBB2D2
S11327A0002B01D0002336E0797A97F842300122D9
S11327B01846FFF795FC034683F00103DBB2002BB8
S11327C001D0002327E07B6AFB63BB6ABB63BA6B5F
S11327D0FB6B934238BF13467B627B6A7B63E723C0
S11327E03B633A6B7B6B934228BF13467B620E4B71
S11327F05B6E23F4FF7323F001037A6A52001343E0
S113280097F84220002A01D0012200E00022064964
S113281013434B66012318465437BD4690BD00BF91
S1132820F04C0000B081E00F00300E4080B584B061
S113283000AF78600023FB60314B1B6F03F007038C
S1132840BB602F4BDB6C03F00103002B14D0BB687F
S1132850012B11D97B68132B02D80423FB6037E0CA
S11328607B68132B05D97B68272B02D80823FB60D0
S11328702EE01023FB602BE0214BDB6C03F0010303
S1132880002B14D1BB68012B11D87B68092B02D80B
S11328900423FB601CE07B68092B05D97B68132BA0
S11328A002D80823FB6013E01023FB6010E0144BF4
S11328B0DB6C03F00103002B0AD0BB68012B07D8A3
S11328C07B68272B02D80823FB6001E01023FB6000
S11328D0FB68013BFB60FB681A02FB681B031343A4
S11328E0FB60074BDB6C23F47F420549FB68134311
S11328F0CB64FFF749FB00BF1037BD4680BD00BF66
S113290000300E4080B584B000AF0346FB71002157
S11329100E48FFF766F8F860FB68002B02D1FB79DC
S1132920012B01D9FB68002B00BF094B1B6F23F05F
S11329300702FB79064913430B67064B1B881846AD
S1132940FFF774FF00BF1037BD4680BD4C300E400A
S113295000300E40CE00002080B485B000AF786017
S113296039607B6803F1C063FB60FB683A681A60F6
S113297000BF1437BD465DF8047B704780B485B052
S113298000AF786039607B6803F18063FB60FB68AB
S11329903A681A6000BF1437BD465DF8047B70477F
S11329A080B582B000AF03463960FB71FB79002B20
S11329B01CD0FB79012B19D0FB79022B16D0FB79A3
S11329C0032B13D0FB79042B10D0FB79052B0DD0EE
S11329D0FB79062B0AD0FB79072B07D0FB79082B50
S11329E004D0FB79092B01D0FB790A2BFA79134621
S11329F05B0013441B010C3303F1804303F52043B4
S1132A0001213A6801FA02F211461846FFF7B6FFAF
S1132A1000BF0837BD4680BD80B582B000AF034615
S1132A203960FB71FB79002B1CD0FB79012B19D089
S1132A30FB79022B16D0FB79032B13D0FB79042BE3
S1132A4010D0FB79052B0DD0FB79062B0AD0FB792E
S1132A50072B07D0FB79082B04D0FB79092B01D075
S1132A60FB790A2BFA7913465B0013441B010C33E0
S1132A7003F1804303F5204301213A6801FA02F28D
S1132A8011461846FFF768FF00BF0837BD4680BDF2
S1132A9080B584B000AFB9607B600346FB73134616
S1132AA0BB73FB7B002B1CD0FB7B012B19D0FB7B66
S1132AB0022B16D0FB7B032B13D0FB7B042B10D0F3
S1132AC0FB7B052B0DD0FB7B062B0AD0FB7B072B56
S1132AD007D0FB7B082B04D0FB7B092B01D0FB7BAD
S1132AE00A2BBB7B002B0DD07B68002B05D0FB7B16
S1132AF0B9681846FFF790FF04E0FB7BB9681846F5
S1132B00FFF74EFFBB68072B20D82C49FA7B1346EE
S1132B105B0013441B010B4404331A68BB689B001D
S1132B200F2101FA03F3DB431340B97BBA68920027
S1132B3001FA02F211462148FA7B194313465B005D
S1132B4013441B0103440433196021E01B49FA7B3D
S1132B5013465B0013441B010B4408331A68BB681B
S1132B60083B9B000F2101FA03F3DB431340B97BBD
S1132B70BA68083A920001FA02F211460F48FA7B49
S1132B80194313465B0013441B01034408331960C3
S1132B90BB7B002B0DD17B68002B05D0FB7BB96878
S1132BA01846FFF739FF04E0FB7BB9681846FFF7C6
S1132BB0F7FE00BF1037BD4680BD00BF00A0004037
S1132BC080B483B000AF786039607B681B6C03F01D
S1132BD00103002B07D100BF7B685A6C3B6813408C
S1132BE0002BF9D100E000BF0C37BD465DF8047B33
S1132BF07047000080B586B000AFF860B9607A60B5
S1132C00BB68002B09D1FB68124A93421DD1124BB9
S1132C107B617869FDF7F6FEB860BB685A017B6892
S1132C20B2FBF3F33B613B69203B3B613B69DB0057
S1132C303B613A69094B13403B610421F868FFF793
S1132C40BFFFFB683A69DA6000E000BF1837BD4691
S1132C5080BD00BF00A0044090171A00F8FF0100D7
S1132C6080B483B000AF78600B46FB70FB78002B18
S1132C7008D000BF7B685B6C002BFBD17B68012212
S1132C801A6402E07B6800221A6400BF0C37BD4658
S1132C905DF8047B704780B582B000AF786039601E
S1132CA002217868FFF78CFF7B680A225A600121B1
S1132CB07868FFF7D5FF7B681B6823F01C033A682C
S1132CC0127B13433A68527B13433A68927B1A434C
S1132CD07B681A603B6859683B689B681A46786849
S1132CE0FFF788FF3B681B781A467B685A6000210F
S1132CF07868FFF7B5FF00BF0837BD4680BD80B4D4
S1132D0083B000AF786000BF7B689B6803F020034A
S1132D10002BF9D07B68DB69DBB218460C37BD4663
S1132D205DF8047B704780B582B000AF78600B46D5
S1132D30FB7000BF7B689B6803F01003002BF9D085
S1132D4040217868FFF73CFFFA787B689A6200BFFD
S1132D500837BD4680BD000080B483B000AF034691
S1132D60FB7197F90730002B0BDBFB7903F01F0293
S1132D70074997F907305B09012000FA02F241F88C
S1132D80232000BF0C37BD465DF8047B704700BFAD
S1132D9000E100E080B483B000AF786039607B6804
S1132DA03A685A6300BF0C37BD465DF8047B704730
S1132DB080B483B000AF786039607B689A6B3B68FD
S1132DC0DB431A407B689A6300BF0C37BD465DF84D
S1132DD0047B704780B483B000AF786039607B684F
S1132DE09A6B3B681A437B689A6300BF0C37BD46F5
S1132DF05DF8047B704780B483B000AF78607B6873
S1132E00DB6A18460C37BD465DF8047B704780B416
S1132E1083B000AF786039607B683A681A6300BF9A
S1132E200C37BD465DF8047B7047000080B400AFEA
S1132E30044BDB6C1B0EDBB21846BD465DF8047B0D
S1132E40704700BFB081E00F80B582B000AF194B6E
S1132E5001225A64FFF7EAFF0346FB71FB79002B5A
S1132E600CD1154B4AF6E8521A60144B1B68134AEE
S1132E7043F004031360104B00221A60FB79012B0A
S1132E8005D80F4B1B680E4A43F4005313600D4BD7
S1132E901B6A23F444130B4A43F4881313620A4B4A
S1132EA01B68094A43F4F843136000BF0837BD4662
S1132EB080BD00BF00000E4090310E4098310E409E
S1132EC064310E4000400E40A4310E4080B582B003
S1132ED000AF78600F4B1B68632B03D10E4800F0E2
S1132EE0C9FD12E00D4B1B68B3F1FF3F02D10B4B40
S1132EF000221A60074B1B680133064A1360054B16
S1132F001B6807497A6841F8232000BF0837BD468B
S1132F1080BD00BF18000020F44C00001400002005
S1132F20E400002080B400AF094B1B68B3F1FF3FFD
S1132F3005D0074B1A68074B1B689A4201DD012331
S1132F4000E000231846BD465DF8047B704700BFCF
S1132F50140000201800002080B582B000AF104B90
S1132F601B68B3F1FF3F05D00D4B1A680D4B1B686E
S1132F709A4205DD0C4800F07DFD012000F08CFC38
S1132F80074B1B68094A52F823307B60044B1B68CB
S1132F900133034A13607B6818460837BD4680BD79
S1132FA01400002018000020044D0000E40000205C
S1132FB080B500AF01210848FDF7BEFC01230422BF
S1132FC00A210320FFF764FD002301220B210320C3
S1132FD0FFF75EFD00BF80BD00350A0090B585B0E7
S1132FE000AF01211548FDF7A7FC02211448FEF7A4
S1132FF035F901211348FDF79FFC01211148FDF724
S11330008CFC114B3C460FCB84E80F003B46194621
S11330100E48FFF740FE0D4B03225A650B4B41F25D
S113302012229A6505210948FFF7D4FE1620FFF7FE
S113303093FE00BF1437BD4690BD00BF30253E004F
S11330400300200090171A00184D000000A004404F
S113305080B582B000AF2F48FFF7CDFE7860796865
S11330602C48FFF797FE7B6803F00403002B2FD056
S113307028E02848FFF743FE0346FB70264B1B68F5
S11330804D2B0BD8FB780A2B08D0234B1B685A1CFA
S113309021490A602149FA78CA5413E01E4B1B687F
S11330A05A1C1D490A601D4A0A21D1541A4B1B6837
S11330B01A4A0021D1541A4B01221A60164B0022DD
S11330C01A6005E0134B9B6803F02003002BD0D15A
S11330D07B6803F00103002B18D0124B1B684F2BA5
S11330E011D8104B1B68104AD35C002B0BD00D4B2E
S11330F01B685A1C0B490A600B4AD35C19460548E5
S1133100FFF711FE02E0074B00221A6000BF0837E8
S1133110BD4680BD00A0044070030020D002002002
S1133120CC020020740300202003002080B584B06A
S113313000AF7860102000F0E7FB0346FB60FB68FB
S11331407A681A60FB680022DA60FB681846103758
S1133150BD4680BD80B584B000AF7860082000F023
S1133160D3FB0346BB60BB687A681A607B689B002C
S1133170184600F0C9FB03461A46BB685A60002390
S1133180FB6009E0BB685A68FB689B00134400229B
S11331901A60FB680133FB60FA687B689A42F1DBD2
S11331A0BB6818461037BD4680BD80B586B000AFF9
S11331B0F860B9607A603B607868FFF7B7FF7861C0
S11331C07B6904333968184600F09CFCFB685A6834
S11331D0BB689B0013441A687B69DA60FB685A6811
S11331E0BB689B0013447A691A60B868FFF79EFFB6
S11331F038613B690433396A184600F083FCFB6884
S11332005A687B689B0013441A683B69DA60FB6860
S11332105A687B689B0013443A691A6000BF1837E8
S1133220BD4680BD2DE9F04F9BB000AF7862396296
S1133230FA61BB616B461E4650220021A24800F091
S11332406BFBFB69002B0ADBBB69002B07DB3A6ACB
S1133250FB699A4203DD3A6ABB699A4204DC9B48E3
S113326000F008FCB54659E1FB697B64396A4B1EE2
S11332703B640A46002314461D464FF000024FF0FB
S113328000036B0143EAD46362010A4600233A61F6
S11332907B614FF000024FF00003D7E90445284654
S11332A04301204643EAD063204642010B469B007B
S11332B00733DB08DB00ADEB030D6B4603339B08E0
S11332C09B00FB63396A4B1EBB630A460023BA604A
S11332D0FB604FF000024FF00003D7E90245284697
S11332E04301204643EAD063204642010A460023B4
S11332F03A607B604FF000024FF00003D7E90045CD
S113330028464301204643EAD063204642010B4647
S11333109B000733DB08DB00ADEB030D6B46033387
S11333209B089B007B63396A4B1E3B630A46002360
S113333092469B464FF000024FF000034FEA4B13B6
S113334043EADA634FEA4A120A4600239046994652
S11333504FF000024FF000034FEA491343EAD863E9
S11333604FEA48120B469B000733DB08DB00ADEB4A
S1133370030D6B4603339B089B00FB620023BB6475
S11333800023FB6413E0FB6BFA6C4FF0FF3143F84E
S11333902210FB6AFA6C4FF0FF3143F822107B6B6A
S11333A0FA6C002143F82210FB6C0133FB64FA6CC5
S11333B03B6A9A42E7DB00233B6508E0444A3B6DE5
S11333C04FF0FF3142F823103B6D01333B653B6DF9
S11333D0122BF3DD786CFFF779FD98E0FFF7BCFD65
S11333E078647B6B7A6C53F82230012B00D18EE029
S11333F07B6B7A6C012143F822107B6A5A687B6CE0
S11334009B0013441B687B657A6CBB699A427BD131
S1133410BB69BB650023FB6510E0BA6DFB699A428A
S113342011D0FB6AFA6DB96D43F82210FB6BBA6DCB
S113343053F82230BB65FB6D0133FB65FA6D3B6AC3
S11334409A42EADB00E000BF00233B660CE0FB6A23
S11334503A6E53F82230B3F1FF3F02D0BB6C013314
S1133460BB643B6E01333B663A6E3B6A9A42EEDBC9
S113347000237B6613E07B6E002B03D1144AFB69A7
S1133480136009E0BA6C7B6ED21AFB6A53F82220EF
S11334900F497B6E41F823207B6E01337B66BA6C47
S11334A07B6E9A42E7DA01E0FFF756FDFFF73AFD3B
S11334B00346002BF8D0074B4FF0FF321A60064B3F
S11334C04FF0FF321A6028E0200300205C4D00001A
S11334D07402002014000020180000207B6D1A687C
S11334E0FB6B53F82230B3F1FF3F05D17B6D1A68B3
S11334F0FB6B796C43F822107B6D1B681846FFF751
S1133500E5FC7B6DDB687B657B6D002BE6D1FFF70B
S113351009FD0346002B3FF461AFB5466C37BD4649
S1133520BDE8F08F80B584B002AF13237B60786868
S1133530FFF710FE0346764A1360754B1868754B07
S11335400093754B01220021FFF72FFE704B186882
S1133550714B00936F4B02220121FFF726FE6C4B47
S113356018686D4B00936C4B03220221FFF71DFE7C
S1133570674B1868684B0093674B09220021FFF7DB
S113358014FE634B1868644B0093634B07220221BB
S1133590FFF70BFE5E4B18685F4B00935E4B0422F3
S11335A00321FFF702FE5A4B18685A4B00935A4BFB
S11335B005220421FFF7F9FD554B1868564B00937B
S11335C0544B06220521FFF7F0FD514B1868524B6E
S11335D00093514B07220621FFF7E7FD4C4B186877
S11335E04D4B00934C4B08220721FFF7DEFD484B5F
S11335F01868494B0093484B09220821FFF7D5FD71
S1133600434B1868444B0093434B0E220421FFF7AD
S1133610CCFD3F4B1868404B00933F4B0D220621D5
S1133620FFF7C3FD3A4B18683B4B00933A4B0B2210
S11336300821FFF7BAFD364B1868374B0093364B19
S11336400A220921FFF7B1FD314B1868324B009370
S1133650314B0B220A21FFF7A8FD2D4B18682E4B86
S113366000932D4B0C220B21FFF79FFD284B18686C
S1133670294B0093284B0D220C21FFF796FD244B78
S11336801868254B0093244B0E220D21FFF78DFD66
S11336901F4B1868204B00931F4B0F220E21FFF77E
S11336A084FD1B4B18681C4B00931B4B12220A21F0
S11336B0FFF77BFD164B1868174B0093164B10222F
S11336C00C21FFF772FD124B1868134B0093124B39
S11336D010220F21FFF769FD0D4B18680D4B009365
S11336E00D4B11221021FFF760FD094B1868094B9F
S11336F00093094B11221221FFF757FD074B0022BB
S11337001A60074B09221A6000BF0837BD4680BD06
S1133710C0020020844D00007C4D0000C402002043
S1133720C802002080B400AF114B1B78682B03D172
S1133730104B01221A6016E00D4B1B78772B03D136
S11337400C4B0C221A600EE0094B1B78632B03D13F
S1133750084B05221A6006E0054B1B78732B02D137
S1133760044B11221A6000BFBD465DF8047B70470C
S113377020030020C802002080B400AF034B0022C5
S11337801A6000BFBD465DF8047B7047C402002088
S113379090B587B000AFFFF757FB344B3C1D0FCB00
S11337A084E80F003B1D1846FEF74EFEFFF700FCB1
S11337B0FFF714FCFFF7B6FE01212D48FFF727FBA6
S11337C02C4B1B68002B4DD005212948FFF7F0FA3C
S11337D000237B610CE0284A7B6913441B78D9B22F
S11337E0264A7B6913440A461A707B6901337B615C
S11337F0214A7B6913441B78DBB2002BEBD1FFF722
S1133800BBFFFFF78FFF1E4B18681E4B1A681E4B39
S11338101B681321FFF706FD00237B610BE01B4AA5
S11338207B6952F82330154A1949144800F04AF9C3
S11338307B6901337B617B69122BF0D90F491548F1
S113384000F018F97B69013B0C4A0021D154094B63
S113385000221A6005210648FFF7BCFA012104483A
S1133860FFF7D5FA0020FEF78DFAA9E7984D00007E
S113387000A00440CC020020D0020020200300203D
S1133880C0020020C4020020C802002074020020EC
S11338908C4D0000944D000008B5074B044613B14D
S11338A00021AFF30080054B1868836A03B1984781
S11338B0204601F0F5F900BF00000000A84D00000B
S11338C070B50D4D0D4C641BA4100026A64209D101
S11338D00B4D0C4C01F0E6F9641BA4100026A64223
S11338E005D170BD55F8043B98470136EEE755F80D
S11338F0043B98470136F2E7A8000020A800002006
S1133900A8000020AC000020024B0146186800F01B
S113391057B800BF1C00002002440346934200D164
S1133920704703F8011BF9E737B5002944D051F873
S1133930043C0190002BA1F10404B8BFE41800F08A
S1133940E1F91E4A0198136833B96360146003B047
S1133950BDE8304000F0DCB9A34208D925686119FC
S11339608B4201BF19685B6849192160EDE71A466B
S11339705B680BB1A342FAD911685518A5420BD163
S1133980246821445418A3421160E0D11C685B6888
S1133990536021441160DAE702D90C230360D6E7AF
S11339A0256861198B4204BF19685B68636004BFB2
S11339B0491921605460CAE703B030BD7803002080
S11339C0F8B5CD1C25F0030508350C2D38BF0C25A2
S11339D0002D064601DBA94203D90C2333600020E5
S11339E0F8BD00F08FF921490A6814469CB9204FAC
S11339F03B6823B92146304600F054F83860294624
S1133A00304600F04FF8431C23D10C23336030467A
S1133A1000F07EF9E3E723685B1B17D40B2B03D973
S1133A2023601C44256004E06368A2420CBF0B6061
S1133A305360304600F06CF904F10B00231D20F0B4
S1133A400700C21ACCD01B1AA350C9E722466468E7
S1133A50CCE7C41C24F00304A042E3D0211A30466E
S1133A6000F020F80130DDD1CFE700BF780300205B
S1133A707C0300200FB40A4B13B51C6824B1A3695E
S1133A8013B9204600F09EF805AB049AA16801938F
S1133A90204600F0C9FA02B0BDE8104004B07047F7
S1133AA01C00002038B5064D0023044608462B6050
S1133AB001F0E0F8431C02D12B6803B1236038BD48
S1133AC0840300200EB400B59CB01DAB0290069098
S1133AD06FF00041094807910491094953F8042BF8
S1133AE005910068019302A900F074F9029B002279
S1133AF01A701CB05DF804EB03B070471C00002082
S1133B000802FFFF034611F8012B03F8012B002ADA
S1133B10F9D17047002310B50446C0E90033C0E969
S1133B200433836081814366C2818361194608221C
S1133B305C30FFF7F1FE054B6362054BA362054B56
S1133B40E362054B2462236310BD00BFB14500004E
S1133B50D34500000B4600002F460000014900F049
S1133B60AFB800BF0949000070B568224D1E554327
S1133B700E4605F17401FFF723FF044640B100210E
S1133B80C0E900160C30A06005F16802FFF7C4FE1E
S1133B90204670BD014800F0B3B800BF8103002087
S1133BA0014800F0AEB800BF81030020014800F0D6
S1133BB0A7B800BF82030020014800F0A2B800BFEC
S1133BC08203002010B50446FFF7F0FFA3691BB180
S1133BD0BDE81040FFF7F0BFC4E912332365134B6F
S1133BE0134A1B68A262A34204BF0123A3612046B7
S1133BF000F020F86060204600F01CF8A060204629
S1133C0000F018F80022E06004216068FFF782FFEA
S1133C10A06801220921FFF77DFFE068022212213A
S1133C20FFF778FF0123A361D2E700BFA84D00008E
S1133C305D3B0000F8B50746FFF7ACFF1E4B1E685E
S1133C40B36913B93046FFF7BDFF4836D6E90134EE
S1133C50013B03D533680BB33668F7E7B4F90C506E
S1133C60D5B9164BE36004F15800656600F047F8D7
S1133C70FFF796FFC4E90155C4E904552560A56121
S1133C800822294604F15C00FFF746FEC4E90D55FD
S1133C90C4E912552046F8BD6834D9E704213846F2
S1133CA0FFF762FF044630600028D5D1FFF778FFA4
S1133CB00C233B60EEE700BFA84D00000100FFFFAE
S1133CC02DE9F8430646884600F148040027D4E964
S1133CD00195B9F1010905D52468002CF7D13846BE
S1133CE0BDE8F883AB89012B07D9B5F90E30013350
S1133CF003D029463046C04707436835E9E7704793
S1133D00704770470148FFF7FBBF00BF80030020E6
S1133D100148FFF7F6BF00BF800300202DE9F047FC
S1133D208E689E4282460C4690461F4638D88A8941
S1133D3012F4906F32D025680969A5EB0109656911
S1133D4005EB450505EBD57501334B446D109D42DC
S1133D5038BF1D46530531D52946FFF731FE0646C7
S1133D6050B90C23CAF80030A38943F04003A3815F
S1133D704FF0FF30BDE8F08721694A4600F0C8FEE5
S1133D80A38923F4906343F08003A38126616561D2
S1133D904E44A5EB09052660A5603E46BE4200D907
S1133DA03E4620683246414600F0C0FEA3689B1B95
S1133DB0A3602368334423600020DBE72A4600F035
S1133DC0CFFE06460028E1D121695046FFF7ACFD3D
S1133DD0C7E700002DE9F04F98468B891B069DB07C
S1133DE007460D4614460ED50B6963B94021FFF70B
S1133DF0E7FD2860286120B90C233B604FF0FF30B9
S1133E00D1E040236B610023099320238DF82930EE
S1133E10CDF80C803023DFF8A8818DF82A304FF0DC
S1133E20010923469A4613F8012B0AB1252AF9D130
S1133E30BAEB040B0BD05B46224629463846FFF703
S1133E406DFF013000F0AA80099A5A4409929AF849
S1133E500030002B00F0A28000234FF0FF32CDE9A8
S1133E6005230AF1010A049307938DF853301A933A
S1133E705446052214F8011B514800F0F9FD049A38
S1133E80D8B9D00644BF20238DF85330110744BF5E
S1133E902B238DF853309AF800302A2B15D0079A2B
S1133EA0544600204FF00A0C214611F8013B303BE8
S1133EB0092B4ED9B0B1079214E0A0EB080309FA1C
S1133EC003F313430493A246D2E7039B191D1B6813
S1133ED00391002BBBBF5B4242F00202079307939E
S1133EE0B8BF049223782E2B0CD163782A2B35D1BA
S1133EF0039B1A1D1B680392002BB8BF4FF0FF33BE
S1133F0002340593DFF8C8A021780322504600F05C
S1133F10AFFD40B14023A0EB0A0003FA00F0049B7C
S1133F2003430134049314F8011B26488DF8281028
S1133F30062200F09DFD002838D0234B1BBB039BB9
S1133F40073323F0070308330393099B334409938E
S1133F5067E70CFB02320C460120A5E7002301347D
S1133F60059319464FF00A0C204610F8012B303AFD
S1133F70092A03D9002BC5D00591C3E70CFB012105
S1133F8004460123F0E703AB00932A460F4B04A930
S1133F903846AFF30080421C0646D6D1AB895B0697
S1133FA03FF52CAF09981DB0BDE8F08F03AB00932B
S1133FB02A46064B04A9384600F0D4F9EBE700BFC3
S1133FC00C4E0000164E0000000000001D3D0000D5
S1133FD0124E00009368013B002B10B4936008DA82
S1133FE09469A34201DB0A2903D15DF8044B00F074
S1133FF023BB1368581C1060197008465DF8044B05
S11340007047F8B506460F461446D518AC4201D1A0
S1134010002007E014F8011B3A463046FFF7DAFFA8
S1134020431CF3D1F8BD00002DE9F04F0D469DB0BF
S113403014469846064618B183690BB9FFF7C2FDCA
S1134040894B9D421BD175686B6ED90705D4AB892A
S11340509A0502D4A86DFFF753FEAB891B0701D55F
S11340602B69EBB92946304600F04AFBC0B16B6EB0
S1134070DC070ED54FF0FF301DB0BDE8F08F7B4B51
S11340809D4201D1B568DFE7794B9D4208BFF568D1
S1134090DAE7AB899805EDD4A86DFFF732FEE9E7BE
S11340A00023099320238DF82930CDF80C80302388
S11340B0DFF8C0818DF82A304FF0010923469A4673
S11340C013F8012B0AB1252AF9D1BAEB040B0BD052
S11340D05B46224629463046FFF793FF013000F045
S11340E0AA80099A5A4409929AF80030002B00F0E9
S11340F0A28000234FF0FF32CDE905230AF1010A23
S1134100049307938DF853301A935446052214F8F8
S1134110011B584800F0ACFC049AD8B9D10644BF3E
S113412020238DF85330130744BF2B238DF85330CD
S11341309AF800302A2B15D0079A544600204FF0E5
S11341400A0C214611F8013B303B092B4ED9B0B182
S1134150079214E0A0EB080309FA03F31343049352
S1134160A246D2E7039B191D1B680391002BBBBF1A
S11341705B4242F0020207930793B8BF049223788C
S11341802E2B0CD163782A2B35D1039B1A1D1B6867
S11341900392002BB8BF4FF0FF3302340593DFF8CE
S11341A0E4A021780322504600F062FC40B1402391
S11341B0A0EB0A0003FA00F0049B034301340493C8
S11341C014F8011B2C488DF82810062200F050FC2E
S11341D000283FD0294B1BBB039B073323F0070365
S11341E008330393099B3B44099367E70CFB0232B2
S11341F00C460120A5E700230134059319464FF02E
S11342000A0C204610F8012B303A092A03D9002B56
S1134210C5D00591C3E70CFB012104460123F0E757
S113422003AB00932A46164B04A93046AFF3008033
S11342300746781CD6D16B6ED90705D4AB899A058D
S113424002D4A86DFFF75DFDAB895B063FF512AFA5
S1134250099811E703AB00932A46094B04A9304699
S113426000F080F8E4E700BFCC4D0000EC4D000006
S1134270AC4D00000C4E0000164E00000000000083
S113428003400000124E00002DE9F04716469946FF
S11342908A680B69DDF820809342B8BF1346336007
S11342A091F8432007460C460AB101333360236872
S11342B0990642BF336802333360256815F006055A
S11342C006D104F1190AE36832689B1AAB4226DC72
S11342D094F84320131E226818BF012392062BD49E
S11342E004F1430249463846C04701301ED02368D2
S11342F0E568326803F00603042B08BFAD1AA3680F
S113430022690CBF25EAE57500259342C4BF9B1AB8
S1134310ED1800261A34B5421AD1002008E0012312
S1134320524649463846C047013003D14FF0FF306A
S1134330BDE8F0870135C6E7E1185A1C302081F842
S11343404300224494F8451082F843100233C7E72F
S11343500123224649463846C0470130E6D001369B
S1134360D9E700002DE9FF470F7E0C9D782F914679
S113437080460C469A4601F1430207D8622F0AD8B8
S1134380002F00F0D880582F00F0A38004F14205DC
S113439084F842703AE0A7F16303152BF6D801A123
S11343A051F823F0FD430000114400008D43000048
S11343B08D4300008D4300008D4300001144000034
S11343C08D4300008D4300008D4300008D430000A9
S11343D01D45000041440000FF4400008D430000DF
S11343E08D4300003F4500008D4300004144000020
S11343F08D4300008D430000074500002B681A1D03
S11344001B682A6004F1420584F842300123A3E0CA
S113441020682968060601F104030AD50E682B609A
S1134420002E03DA2D23764284F843305E480A23B3
S113443019E00E682B6010F0400F18BF36B2EFE79A
S11344402B682068191D2960010601D51E6802E049
S11344504606FBD51E8854486F2F0CBF08230A2339
S1134460002184F843106568A560002DA2BF21686F
S113447021F0040121600EB9002D4DD01546B6FB84
S1134480F3F103FB1167C75D05F8017D3746BB42B5
S11344900E46F4D9082B0BD12368DE0708D523690F
S11344A061689942DEBF302305F8013C05F1FF3510
S11344B0521B2261CDF800A04B4603AA2146404678
S11344C0FFF7E2FE01304CD14FF0FF3004B0BDE8FD
S11344D0F087354881F845702968236851F8046BE2
S11344E029601D0614D5DF0744BF43F02003236071
S11344F01EB9236823F0200323601023B0E7236848
S113450043F0200323607823284884F84530E3E708
S1134510590648BFB6B2E6E71546BBE72B682668DE
S11345206169181D286035061B6801D5196002E011
S11345307006FBD51980002323611546BAE72B6862
S11345401A1D2A601D6862680021284600F090FA4E
S113455008B1401B606063682361002384F8433022
S1134560A8E723692A4649464046D0470130ABD0E4
S113457023689B0713D4E068039B9842B8BF18468E
S1134580A4E70123324649464046D04701309BD038
S11345900135E36803995B1AAB42F2DCEBE70025D3
S11345A004F11906F5E700BF1D4E00002E4E000071
S11345B010B50C46B1F90E1000F0F8FA0028ABBFA4
S11345C0636DA3891B1823F48053ACBF6365A38177
S11345D010BD2DE9F0411F468B89DB0505460C46CD
S11345E0164605D5B1F90E100223002200F0C8F9D1
S11345F0A389B4F90E1023F48053A38132463B46B9
S11346002846BDE8F04100F069B810B50C46B1F990
S11346100E1000F0B5F9431CA38915BF606523F49F
S1134620805343F48053A38118BFA38110BDB1F913
S11346300E1000F0D3B80000F8B50E461446054637
S113464018B183690BB9FFF7BDFA214B9C422BD1FA
S11346506C68A369A360A3891A072FD523696BB378
S113466023692068C01A6369F6B28342374604DCC2
S11346702146284600F048F930BBA368013BA360FB
S113468023685A1C22601E7063690130834204D07F
S1134690A389DB0706D50A2E04D12146284600F05B
S11346A033F988B93846F8BD0A4B9C4201D1AC684D
S11346B0CFE7094B9C4208BFEC68CAE7214628466D
S11346C000F01EF80028CBD04FF0FF37EAE700BF18
S11346D0CC4D0000EC4D0000AC4D000038B5074D4A
S11346E004460846114600222A601A4600F0D0FA11
S11346F0431C02D12B6803B1236038BD840300201E
S1134700324B70B51D6806460C4625B1AB6913B92A
S11347102846FFF757FA2E4B9C420FD16C68A389A9
S1134720B4F90C2019072CD4DD0611D40923336005
S113473042F04003A3814FF0FF303EE0254B9C4202
S113474001D1AC68EBE7244B9C4208BFEC68E6E778
S1134750580712D5616B41B104F14403994202D068
S11347603046FFF7E1F800236363A38923F02403B1
S1134770A3810023636023692360A38943F00803B2
S1134780A38123694BB9A38903F42073B3F5007F94
S113479003D02146304600F02BF9A089B4F90C204F
S11347A010F001030AD00023A36063695B42A36194
S11347B0236943B910F08000BAD170BD810758BF96
S11347C06369A360F4E70020F7E700BF1C00002042
S11347D0CC4D0000EC4D0000AC4D000038B5064D4A
S11347E00023044608462B6000F01CFA431C02D147
S11347F02B6803B1236038BD840300208A892DE926
S1134800F041054610070C4658D44B68002B05DCD4
S11348100B6C002B02DC0020BDE8F081E66A002E60
S1134820F9D0002312F480522F682B6032D0606DCF
S1134830A3895A0705D56368C01A636B0BB1236C4F
S1134840C01A00230246E66A216A2846B047431C80
S1134850A38906D129681D292CD82A4ACA40D6071B
S113486028D500226260D9042269226004D5421C42
S113487001D12B6803B96065616B2F600029CAD030
S113488004F14403994202D02846FFF74DF8002072
S11348906063C1E7216A01232846B047411CC7D1A0
S11348A02B68002BC4D01D2B01D0162B01D12F60F7
S11348B0B1E7A38943F04003A381ADE70F69002F5B
S11348C0A9D093070E6808BF4B690F6018BF002377
S11348D0A6EB07088B60B8F1000F9CDD216AA66A7D
S11348E043463A462846B047002806DCA38943F0ED
S11348F04003A3814FF0FF308EE70744A8EB000884
S1134900E9E700BF0100402038B50B6905460C46B5
S113491013B90025284638BD18B183690BB9FFF7D0
S113492051F9144B9C421BD16C68B4F90C30002B28
S1134930EFD0626ED00704D4990502D4A06DFFF7BE
S1134940DFF928462146FFF759FF636EDA0705466B
S1134950E0D4A3899B05DDD4A06DFFF7D2F9D9E794
S1134960054B9C4201D1AC68DFE7044B9C4208BF75
S1134970EC68DAE7CC4D0000EC4D0000AC4D0000D3
S113498038B5074D04460846114600222A601A46E7
S113499000F060F9431C02D12B6803B1236038BDD9
S11349A08403002070B50E46B1F90E10002996B0AC
S11349B014461D4608DAB6F90C3000222A601A069D
S11349C010D44FF480630EE06A4600F001F9002829
S11349D0F1DB019A02F47042A2F500535A425A41A3
S11349E02A60EEE740230020236016B070BD00006B
S11349F08B8973B59D0706460C4607D504F147031A
S1134A00236023610123636102B070BD01AB6A4678
S1134A10FFF7C8FF009905463046FEF7D1FF48B9B5
S1134A20B4F90C309A05EFD423F0030343F00203E6
S1134A30A381E3E70D4BB362A389206043F08003B5
S1134A40A381009B6361019B20615BB1B4F90E10EB
S1134A50304600F0CFF828B1A38923F0030343F0D4
S1134A600103A381A0890543A581CDE75D3B000037
S1134A7001F0FF01102A2BDB10F0070F08D010F80B
S1134A80013B013A8B422DD010F0070F42B3F6D10F
S1134A90F0B441EA012141EA014122F007047FF028
S1134AA000070023F0E80256083C85EA010586EA7F
S1134AB0010685FA47F5A3FA87F586FA47F6A5FABB
S1134AC087F68EB9EED1F0BC01F0FF0102F00702C7
S1134AD032B110F8013B013A83EA010313B1F8D172
S1134AE00020704701387047002D06BF3546033853
S1134AF0073815F0010F07D1013015F4807F02BF8C
S1134B00013015F4C03F0130F0BC0138704700BFDC
S1134B100A44914200F1FF3300D1704710B511F8F7
S1134B20014B03F8014F9142F9D110BD884210B5F1
S1134B3001EB020402D98442234607D8431EA14252
S1134B4008D011F8012B03F8012FF8E702440146BD
S1134B508A4200D110BD13F8014D02F8014DF7E768
S1134B60F8B5074614460E4621B9BDE8F84011468B
S1134B70FEF726BF22B9FEF7D7FE25462846F8BD24
S1134B8000F048F8A0420FD221463846FEF718FF3D
S1134B9005460028F2D031462246FFF7B9FF3146D8
S1134BA03846FEF7C1FEE9E73546E7E738B5074D75
S1134BB004460846114600222A601A4600F052F8BC
S1134BC0431C02D12B6803B1236038BD8403002049
S1134BD038B5074D00230446084611462B6000F003
S1134BE029F8431C02D12B6803B1236038BD00BFF0
S1134BF08403002038B5064D0023044608462B6084
S1134C0000F020F8431C02D12B6803B1236038BDA7
S1134C108403002051F8043C181F002BBCBF0B5820
S1134C20C0187047024B58221A604FF0FF3070478B
S1134C3084030020024B58221A604FF0FF30704763
S1134C4084030020024B58221A600020704700BFE2
S1134C5084030020024B58221A604FF0FF30704743
S1134C6084030020024B58221A604FF0FF30704733
S1134C7084030020044A05491368002B08BF0B462F
S1134C8018441060184670478803002090030020E1
S1134C90024B58221A604FF0FF3070478403002003
S1134CA0FEE700BFF8B500BFF8BC08BC9E467047DD
S1134CB0F8B500BFF8BC08BC9E4670470000000071
S1134CC05FF800F08100002040787D0100000000C2
S1134CD0005A620200010000C0CF6A000200000016
S1134CE0809FD50002010000002D31010202000066
S1134CF0000000005175657565204F766572666C1D
S1134D006F770A00517565756520556E6465726626
S1134D106C6F770A0000000005000000000000002E
S1134D2080250000000000000A2041646A61636578
S1134D306E6379206C697374206F66207665727473
S1134D4065782025640A20256420282573292000FD
S1134D502D3E2025640000000A000000496E7661A3
S1134D606C696420737461727420616E6420656E72
S1134D706420696E707574732E0A0000726F61642A
S1134D80000000006465737400000000257325644E
S1134D902C000000257300000002080705000A002B
S1134DA0C8000000FFFF01002000002000000000F8
S1134DB000000000000000000000000000000000EF
S1134DC000000000000000000000000000000000DF
S1134DD000000000000000000000000000000000CF
S1134DE000000000000000000000000000000000BF
S1134DF000000000000000000000000000000000AF
S1134E00000000000000000000000000232D302BF3
S1134E102000686C4C0065666745464700303132B7
S1134E20333435363738394142434445460030310E
S1134E30323334353637383961626364656600006D
S1074E40000000006A
S10B4E4408B3FF7F0100000028
S1134E4C005A620200800000C0EA2101C0EA21017C
S1134E5CC0EA2101FFFFFFFFFFFFFFFF200000203E
S1134E6C00000000CC4D0000EC4D0000AC4D0000E7
S1134E7C0000000000000000000000000000000022
S1134E8C0000000000000000000000000000000012
S1134E9C0000000000000000000000000000000002
S1134EAC00000000000000000000000000000000F2
S1134EBC00000000000000000000000000000000E2
S1134ECC80B483B000AF074B1B6843F000437B6096
S1134EDC30BF044A7B68136000BF0C37BD465DF8D5
S1134EEC047B70474C310E40310100000D01000071
S90301C932
