:1000000000000420C9010000F5010000F501000016
:10001000F5010000F5010000F5010000F501000008
:10002000F5010000F5010000F5010000F5010000F8
:10003000F5010000F4010000F5010000F5010000E9
:10004000F5010000F5010000F5010000F5010000D8
:10005000F5010000F5010000F5010000F5010000C8
:10006000F5010000F5010000F5010000F5010000B8
:10007000F5010000F5010000F5010000F5010000A8
:10008000F5010000F5010000F5010000F501000098
:10009000F5010000F5010000912F0000F5010000BE
:1000A000F5010000F5010000F5010000F501000078
:1000B000F5010000F5010000F5010000F501000068
:1000C000F5010000F5010000F5010000F501000058
:1000D000F5010000F5010000F5010000F501000048
:1000E000A5360000D9360000F5010000F50100003A
:1000F000F5010000F5010000F5010000F501000028
:10010000F5010000F5010000F501000010B5054CF7
:10011000237833B9044B13B10448AFF300800123B3
:10012000237010BD8000002000000000383C00005B
:1001300008B5034B1BB103490348AFF3008008BD6A
:100140000000000084000020383C0000A3F5803A45
:10015000704700BF174B002B08BF134B9D46FFF79E
:10016000F5FF00218B460F461348144A121A03F07C
:100170000DFC0E4B002B00D098470D4B002B00D0F0
:1001800098470020002104000D000D48002802D0EF
:100190000C48AFF3008003F0CDFB2000290003F0F2
:1001A000E1F803F0B3FB00BF00000800000000000E
:1001B00000000000000004208000002090020020C9
:1001C0000000000000000000064880470649074A7A
:1001D000074B9A42BEBF51F8040B42F8040BF8E7F4
:1001E000FFF7B8FFED020000443C000000000020D3
:1001F00080000020FEE700BF80B582B000AF00F0B5
:1002000025F878600A4BD3F808311B0AC3F30803BA
:100210003B603B6801337A68B2FBF3F37B60054ACD
:100220007B6813607B6818460837BD4680BD00BFF9
:1002300000400E400800002080B400AF024B18467A
:10024000BD465DF8047B7047005A620280B483B0FB
:1002500000AF1C4BD3F8943003F00703023B032B91
:100260001BD801A252F823F089020000810200008D
:100270007902000091020000134B1B687B6010E0C4
:100280004FF400437B600CE0104B1B687B6008E080
:100290000F4B1B685B087B6003E00D4B1B687B60AA
:1002A00000BF084BD3F800311B0A03F01F030133D2
:1002B0007A68B2FBF3F318460C37BD465DF8047B51
:1002C000704700BF00400E400400002000000020E6
:1002D0000C00002080B400AF034B1B681846BD46DD
:1002E0005DF8047B704700BF0000002080B400AFC1
:1002F000074B084A9A60064BD3F88830044A43F407
:100300007003C2F8883000BFBD465DF8047B7047BB
:1003100000ED00E00000000080B400AF4FF40043A7
:100320001846BD465DF8047B704780B400AF4FF4BB
:100330007A731846BD465DF8047B704780B400AF01
:10034000034B1B681846BD465DF8047B704700BF31
:100350000400002080B483B000AF786001227B6885
:1003600002FA03F318460C37BD465DF8047B70476C
:1003700080B487B000AFF860B9607A60FB6803F1C1
:10038000424303F58013DA00BB6813449B007B6192
:100390007B697A681A6000BF1C37BD465DF8047B34
:1003A000704780B485B000AF786039607B6803F136
:1003B000424303F58013DA003B6813449B00FB6063
:1003C000FB681B6818461437BD465DF8047B704710
:1003D00080B485B000AF78607B68002B03D07B6869
:1003E000B3F5004F00BF7B68B3FA83F3DBB2C3F110
:1003F0001F03FB60FB6818461437BD465DF8047B9D
:10040000704780B584B000AF78607B680133B3FA81
:1004100083F3DBB2C3F11F03FB60F868FFF79AFFB9
:10042000FB6818461037BD4680BD000080B400AFA1
:10043000064B1B6803F04003002B01D1012300E0B1
:1004400000231846BD465DF8047B70473C300E40E3
:1004500080B500AFFFF7EAFF034683F00103DBB28C
:10046000002B08D100BF12210448FFF79AFF034672
:10047000002BF8D100E000BF80BD00BF04300E406B
:1004800080B500AFFFF7E4FF034B5B681B0C03F084
:100490000303DBB2184680BD00300E4080B584B047
:1004A00000AF78600123FB607B68124A934204D856
:1004B0000023FB600023BB6008E07B680E4A934288
:1004C00002D80123BB6001E00223BB60FA6810215F
:1004D0000A48FFF74DFF094BD3F8003123F0807233
:1004E000BB681B0605491343C1F8003100BF103734
:1004F000BD4680BD0048E8010090D00300400E409A
:1005000080B483B000AF054B1B687B607B681846E6
:100510000C37BD465DF8047B704700BF100000201B
:1005200080B582B000AFFFF791FE7860064BD3F83C
:1005300000311B0A03F01F0301337A6802FB03F347
:1005400018460837BD4680BD00400E4080B582B0D9
:1005500000AF0D4800F09AFD0346FB70FB78072BB7
:1005600005D0092B07D1FFF771FE786006E0FFF791
:10057000C7FF786002E000237B6000BF7B681846FD
:100580000837BD4680BD00BF06000E0080B584B0B0
:1005900000AF78607B68002B1CD11B4800F076FD13
:1005A0000346FB7200BFFB7A013B072B23D801A255
:1005B00052F823F0D9050000F7050000F705000008
:1005C000E7050000F7050000F7050000DF05000063
:1005D000EF050000002312E00023FB600EE0FFF7B0
:1005E0008FFFF8600AE0FFF775FEF86006E0FFF79E
:1005F00097FFF86002E00023FB6000BFFB6818462D
:100600001037BD4680BD00BFB800320080B485B051
:1006100000AF786039601E4B5B6803F04073FB608D
:100620000023BB6012E01B4ABB68DB0013441A794D
:100630003B68DBB29A4206D1164ABB6852F83330A7
:100640007A689A4206D9BB680133BB60BB68042B49
:10065000E9D900E000BFBB68052B02D10323FB6092
:1006600005E00C4ABB68DB0013445B79FB60FB6868
:100670001B06FB60064B5B6823F040720449FB6875
:1006800013434B6000BF1437BD465DF8047B7047D1
:1006900000000E40E43A000080B582B000AF0E4B7F
:1006A0001B6C002B14BF01230023FB710A4B41F686
:1006B00071321A64FFF7C0FD034600211846FFF7A8
:1006C000A5FFFB79002B02D0034B00221A6400BF68
:1006D0000837BD4680BD00BF00000E4080B584B025
:1006E00000AF786039600C4B1B6C002B14BF0123EA
:1006F0000023FB73084B41F671321A64396878683D
:10070000FFF784FFFB7B002B02D0034B00221A640F
:1007100000BF1037BD4680BD00000E4080B487B0DA
:1007200000AF78600F237B617B6803333B617B699B
:10073000FB60FA683B69934228BF1346BB60BB6805
:100740001B07BB60BB6818461C37BD465DF8047BC1
:100750007047000080B400AF044B5B6A1B0903F0D4
:1007600003031846BD465DF8047B704700400E4009
:1007700080B483B000AF7860074B5B6A23F030022F
:100780007B681B01044913434B6200BF0C37BD4615
:100790005DF8047B704700BF00400E4090B585B007
:1007A00000AF78600023BB607B683C4A93420BD06B
:1007B0007B683A4A934209D87B68394A934203D00E
:1007C0007B68384A934201E000BF00E000BF7868D0
:1007D00000F05CFC0346FB607B68304A93421AD011
:1007E0007B682E4A93421DD87B682D4A934204D0E1
:1007F0007B682C4A934207D014E02B4BD3F880300F
:1008000003F00703FB600EE0274BD3F8843003F0BE
:100810000703FB6007E0244BD3F8883003F007039D
:10082000FB6000E000BFFB68042B2ED801A252F849
:1008300023F000BF850800004908000051080000AF
:100840006108000059080000FFF766FDB8601FE06E
:10085000FFF774FDB8601BE0FFF767FDB86017E0B5
:10086000FFF7F4FC0446104BD3F800311B0E03F0E5
:10087000010301331846FFF76DFD0346B4FBF3F3A4
:10088000BB6005E00023BB6002E00023BB6000BF4B
:10089000BB6818461437BD4690BD00BF0500240054
:1008A00002001E000300200000400E4080B483B010
:1008B00000AF78600A4BD3F8443103F00103002BFA
:1008C00008D100BF064BD3F840217B681340002BB2
:1008D000F8D100E000BF0C37BD465DF8047B7047DF
:1008E00000400E4080B400AF00BFBD465DF8047B01
:1008F000704780B400AF00BFBD465DF8047B704711
:1009000080B582B000AF7860786800F0BDF903462A
:10091000013318460837BD4680BD80B582B000AFB0
:10092000786039603B68013B1946786800F078FAD6
:1009300000BF0837BD4680BD80B586B000AF786087
:100940000B46FB7000233B617B681B0A03F00F031F
:10095000013B092B44D801A252F823F0850900007D
:1009600091090000E1090000E10900008B09000085
:1009700097090000A1090000E1090000AB0900008F
:10098000B7090000184B7B6118E0184B7B6115E03C
:10099000174B7B6112E0174B7B6101233B610DE03C
:1009A000154B7B6110233B6108E0144B7B614FF4D6
:1009B00080333B6102E0124B7B6100BF7B681B0B05
:1009C00003F01F03FB603B69002B02D03869FFF77F
:1009D0006DFFFB781A46F9687869FFF7C9FC00E0FB
:1009E00000BF1837BD4680BD00400E40B0400E40ED
:1009F000C0400E40E0400E40E8400E40F0400E4047
:100A000050410E4090B585B000AF78607B6803F42C
:100A10007813B3F5781F00F01B81B3F5781F00F24F
:100A20002281B3F5481F00F00E81B3F5481F00F294
:100A30001A81B3F5401F00F0E580B3F5401F00F2C6
:100A40001281B3F5381F00F0B680B3F5381F00F2FD
:100A50000A81B3F5101F00F0E980B3F5101F00F212
:100A60000281B3F5001F00F0B580B3F5001F00F25E
:100A7000FA80B3F5F01F79D0B3F5F01F00F2F380E0
:100A8000B3F5D01F00F0AB80B3F5D01F00F2EB80C0
:100A9000B3F5B01F7DD0B3F5B01F00F2E480B3F51D
:100AA000A01F68D0B3F5A01F00F2DD80B3F5801F52
:100AB00000F0C580B3F5801F00F2D580B3F5602F3C
:100AC00000F0B980B3F5602F00F2CD80B3F5402F70
:100AD0003DD0B3F5402F00F2C680B3F5202F23D0D0
:100AE000B3F5202F00F2BF80B3F5802F0DD0B3F502
:100AF000802F00F2B880002B03D0B3F5003F17D051
:100B0000B1E0FFF7A3FBF860B0E0FFF79FFBF860F0
:100B1000594BD3F80C311B0AC3F308030133FA68AD
:100B2000B2FBF3F3FB60A1E0FFF790FBF8609DE000
:100B3000FFF78CFBF860504BD3F808311B0AC3F366
:100B400008030133FA68B2FBF3F3FB608EE0FFF7B2
:100B50007DFBF860484BD3F814311B0A03F01F03E8
:100B60000133FA68B2FBF3F3FB607FE04348FFF721
:100B700015FEF8607AE04248FFF710FEF8603E4B41
:100B8000D3F8303103F00303FA6822FA03F3FB6071
:100B90006CE03A48FFF702FEF860374BD3F820319B
:100BA00003F00F031846FFF7D5FB0246FB68B3FBC3
:100BB000F2F3FB605AE03148FFF7F0FDF8602E4B8E
:100BC000D3F820311B0903F00303FA6822FA03F378
:100BD000FB604BE02B48FFF7E1FDF86046E0294859
:100BE000FFF7DCFDF860244BD3F828311B0903F034
:100BF00003031846FFF7AEFB0246FB68B3FBF2F3B4
:100C0000FB6033E01F48FFF7C9FDF8601A4BD3F8CB
:100C100028311B0A03F0030304331846FFF79AFB3D
:100C20000246FB68B3FBF2F3FB601FE01448FFF7DA
:100C3000B5FDF8601AE0FFF789FCF86016E0FFF7F1
:100C40005FFCF86012E00020FFF7A0FCF8600DE008
:100C5000FFF7FCFA04467868FFF752FE0346B4FB40
:100C6000F3F3FB6002E00023FB6000BFFB68184663
:100C70001437BD4690BD00BF00400E4002001E006C
:100C8000050024000300200080B584B000AF786028
:100C90007B681B0903F00F03BB60BB68013B092B9A
:100CA00000F2AA8001A252F823F000BFD50C000088
:100CB000E50C0000F50C0000150D0000F90D00001A
:100CC000F90D0000250D0000350D0000850D000018
:100CD000DB0D00004C4BD3F800311B0A03F01F035F
:100CE000FB608CE0484BD3F814311B0A03F01F0360
:100CF000FB6084E0444BD3F800311B0E03F001038A
:100D0000FB60FB6801331846FFF724FB0346013BF9
:100D1000FB6074E03C4BD3F80C311B0AC3F30803AF
:100D2000FB606CE0384BD3F808311B0AC3F30803AF
:100D3000FB6064E07B68354A934204D07B68344AA8
:100D400093420DD01AE0304BD3F8203103F00F035B
:100D5000FB60F868FFF7FEFA0346013BFB6010E01A
:100D6000294BD3F820311B0903F00303FB60F8681B
:100D7000FFF7F0FA0346013BFB6002E00023FB6053
:100D800000BF3CE07B68234A934204D07B68224A40
:100D900093420ED01DE01C4BD3F828311B0903F001
:100DA0000303FB60F868FFF7D5FA0346013BFB60DD
:100DB00012E0154BD3F828311B0A03F00303FB6044
:100DC000FB6804331846FFF7C5FA0346013BFB6096
:100DD00002E00023FB6000BF11E07B680F4A9342F2
:100DE00006D1094BD3F8303103F00303FB6002E076
:100DF0000023FB6000BF02E00023FB6000BFFB6834
:100E000018461037BD4680BD00400E4080061600D3
:100E100080162E0090171A0090273000A0091400A9
:100E200080B584B000AF786039607B681B0903F03F
:100E30000F03FB60FB68013B092B00F2148101A248
:100E400052F823F06D0E0000B70E0000CF0E000028
:100E5000EF0E000067100000671000000B0F00008D
:100E60003F0F0000CD0F00003D100000FFF714FC05
:100E70007F48FFF713FBFFF735FD7E4BD3F80031BA
:100E800023F4F8523B681B027A491343C1F800313E
:100E9000FFF7B2F9B860FFF7F3FA03461946B868EE
:100EA000FFF71CFCFFF7D2F903461846FFF7F6FAE6
:100EB000FFF71FFDD8E06F4BD3F8143123F4F8523D
:100EC0003B681B026B491343C1F81431CCE038680E
:100ED000FFF77EFA3860674BD3F8003123F0807259
:100EE0003B681B0663491343C1F80031BCE0614B0A
:100EF000D3F80C3123F4FF3323F480733A681202E1
:100F00005C491343C1F80C31AEE0FFF7C5FB594B08
:100F1000D3F8083123F4FF3323F480733A681202C4
:100F200054491343C1F80831FFF766F9B860FFF779
:100F3000A7FA03461946B868FFF7D0FB94E07B6830
:100F40004D4A93422DD07B684B4A93423CD87B68F4
:100F50004A4A934204D07B68494A93420FD033E017
:100F60004FF48020FFF7A2FC424BD3F8303123F03E
:100F7000030240493B681343C1F8303125E038682B
:100F8000FFF73FFA38600420FFF790FC394BD3F8A5
:100F9000203123F00F0237493B681343C1F8203159
:100FA00013E03868FFF72DFA38600420FFF77EFC65
:100FB000304BD3F8203123F030023B681B012D4920
:100FC0001343C1F8203100E000BF4DE07B682D4A9B
:100FD000934204D07B682C4A934213D02DE03868AA
:100FE000FFF70FFA38604020FFF760FC214BD3F881
:100FF000283123F030023B681B011E491343C1F81E
:1010000028311AE03B687F2B02D83B680E2B00BFCB
:101010003868FFF7F6F90346043B3B604020FFF7D2
:1010200045FC144BD3F8283123F440723B681B0273
:1010300010491343C1F8283100BF15E07B680F4AFF
:1010400093420ED14FF48020FFF730FC094BD3F8C8
:10105000303123F0030207493B681343C1F83031B4
:1010600000E000BF00E000BF00BF1037BD4680BDFC
:101070000148E80100400E4080162E00A00914002F
:101080008006160090171A009027300080B485B0B3
:1010900000AF78600123FB737B6803F00F03BB6034
:1010A000BB68013B072B00F2CC8001A252F823F071
:1010B000D1100000271100005D1100004312000054
:1010C000A5110000DB11000043120000FF11000019
:1010D000614BD3F8943003F00703023B052B1ED875
:1010E00001A252F823F000BF0D110000071100000B
:1010F00001110000131100001F1100001911000060
:101100000223FB730EE00323FB730BE00423FB734A
:1011100008E00B23FB7305E00C23FB7302E00523BF
:10112000FB7300BF90E04C4BD3F8803003F0070313
:10113000042B0CD0042B0DD8012B02D0022B03D092
:1011400008E00323FB7308E00223FB7305E00A2396
:10115000FB7302E00123FB7300BF75E03E4BD3F845
:10116000843003F00703013B032B17D801A252F888
:1011700023F000BF851100008B11000097110000C3
:10118000911100000323FB730BE00223FB7308E0C3
:101190000A23FB7305E00623FB7302E00123FB73C4
:1011A00000BF51E02C4BD3F8883003F00703042B29
:1011B0000CD0042B0DD8012B02D0022B03D008E059
:1011C0000323FB7308E00223FB7305E00A23FB7390
:1011D00002E00123FB7300BF36E01F4B1B6F03F0DF
:1011E0000103002B04D0012B05D10923FB7305E07B
:1011F0000723FB7302E00123FB7300BF24E0164BBF
:10120000D3F85C3103F03003302B13D0302B14D8DB
:10121000202B0CD0202B10D8002B02D0102B03D069
:101220000BE00123FB730BE00723FB7308E00423AF
:10123000FB7305E00823FB7302E00123FB7300BF8F
:1012400002E00023FB7300BFFB7B18461437BD464A
:101250005DF8047B704700BF00400E4080B58AB047
:1012600000AF78600B46FB7003237B62032387F893
:1012700023300023BB6100237B617B68112B19D1D4
:10128000FB78042B03D1FFF725F878610BE0FB789E
:10129000052B08D100F058F90346A44A934202D91D
:1012A00000F052F978617B69002B03D00021786946
:1012B00000F028FC7B6803F00F033B613B69013BB6
:1012C000072B00F2298101A252F823F0ED12000051
:1012D000DF130000F113000019150000E3130000F4
:1012E0008914000019150000A7140000FB78023BC8
:1012F0000A2B00F2138101A252F823F029130000F7
:101300003513000041130000531300001D150000A9
:101310001D1500001D1500001D1500001D15000005
:10132000651300007113000004237B62002387F81B
:10133000233023E003237B62012387F823301DE061
:1013400002237B62022387F823307948FFF7A6F84F
:1013500014E001237B62032387F823307448FFF7EE
:101360009DF80BE005237B62032387F8233005E01B
:1013700007237B62062387F8233000BF97F82330CA
:10138000062B06D097F8233001220121184600F0E1
:10139000E7F8FFF781F9FFF7A5FA7B69002B01D089
:1013A000FFF756F8634A7B6A5367FEF725FFF8603C
:1013B000FEF74CFF03461846FFF770F8FFF760F89A
:1013C00003461946F868FFF789F97B69002B03D1BA
:1013D0000121002000F096FBFFF78BFAA3E0564BAB
:1013E000BB61BB69002B01D0BB6900E0534BBB6103
:1013F000BB69002B01D0BB6900E0514BBB61FB789E
:10140000013B092B00F28C8001A252F823F000BFAF
:10141000391400003F1400004F1400002115000093
:10142000211500005F1400002115000021150000A7
:10143000211500007B1400000023FB6120E0012245
:101440000121002000F08CF80223FB6118E001224A
:101450000121012000F084F80123FB6110E0FEF778
:10146000F5FE03461846FFF719F801220221354818
:10147000FEF77EFF0323FB6102E00423FB6100BF54
:10148000BB69FA691A604EE0FB78072B02D0092B82
:1014900004D048E0274B00221A6703E0254B0122C5
:1014A0001A6700BF3FE0FB78013B072B3AD801A247
:1014B00052F823F0D5140000251500002515000072
:1014C000EB1400002515000025150000DB140000BA
:1014D000FB1400000023FB6112E001220121042023
:1014E00000F03EF80123FB610AE001220121022005
:1014F00000F036F80223FB6102E00323FB6100BF2A
:101500000C4BD3F85C3123F03002FB691B01094915
:101510001343C1F85C3106E000BF04E000BF02E005
:1015200000BF00E000BF2837BD4680BD002D31015F
:101530000148E80100400E4080400E4088400E40C7
:1015400084400E40B0400E4080B400AF034B1B6897
:101550001846BD465DF8047B704700BF0C000020B4
:1015600080B588B000AF0346FB710B46BB711346D4
:101570007B71FB79042B00F2B88001A252F823F0B2
:10158000DD150000CB150000A71500009515000023
:10159000B915000001237B6102233B610123FB613C
:1015A0000023BB6125E004237B6108233B61032307
:1015B000FB610223BB611CE010237B6120233B61A4
:1015C0000523FB610423BB6113E040237B6180237F
:1015D0003B610723FB610623BB610AE04FF4807384
:1015E0007B614FF400733B610923FB610823BB61FE
:1015F00000BFBB79002B5BD00023FB73FB79022B70
:1016000011D1FFF7A7F80346002B0CD1394BDB6B48
:101610000123FB73384B5B6A03F00103012B02D1FA
:101620000120FFF7A5F8344A7B69136600BFB9694A
:101630003248FEF7B6FE0346002BF8D07B79002B2C
:1016400054D000BFF9692D48FEF7ABFE0346002BCE
:10165000F8D0FB79022B49D1FB7B002B46D0264BDF
:101660005B6A03F00103012B05D101222021022036
:1016700000F04CF903E00021022000F0FBF802200A
:1016800000F03EF8B860012200210220FFF768FF59
:10169000B968022000F06EF8174A7B69136600BF34
:1016A000F9691648FEF77DFE0346002BF8D01DE0D1
:1016B000114A3B69136600BF0F4BD3F890300121EC
:1016C000BA6901FA02F21340002BF5D17B79002BA5
:1016D0000CD000BF084BD3F890300121FA6901FA11
:1016E00002F21340002BF5D100E000BF2037BD46C9
:1016F00080BD00BF00300E4000400E4090400E40C4
:1017000080B485B000AF0346FB71FB79013B032B2E
:1017100023D801A252F823F0291700004D1700002A
:101720003517000041170000114B1B6AC3F3080373
:10173000FB6015E00E4B1B6903F07F03FB600FE0BD
:101740000B4B9B6903F07F03FB6009E0084BD3F868
:101750009C30C3F30A03FB6002E00023FB6000BF80
:10176000FB6818461437BD465DF8047B704700BF20
:1017700000400E4080B584B000AF03463960FB7175
:10178000FB79013B032B6AD801A252F823F000BF7A
:10179000A117000023180000CF170000F917000060
:1017A0003B68C3F308033B6000BF1A212E48FEF7D5
:1017B000F8FD0346002BF8D12C4B1B6A23F4FF7372
:1017C00023F0010329493A6813430B6248E03B6860
:1017D00003F07F033B6000BF18212348FEF7E1FDC3
:1017E0000346002BF8D1214B1B6923F07F021F49D0
:1017F0003B6813430B6133E03B6803F07F033B60BE
:1018000000BF19211848FEF7CCFD0346002BF8D184
:10181000164B9B6923F07F0214493B6813438B618D
:101820001EE0124BD3F89030104B5B6A23F030036C
:101830000E4A43F0100353623B68DB0903F00F03C9
:101840001846FEF76BFFF860084B1A6B084B134005
:101850003A681A430549FB6813430B6300E000BF75
:1018600000BF1037BD4680BD40410E4000400E40D5
:1018700000F8FF0F80B584B000AF03460A46FB7145
:101880001346BB71FEF766FF0346002B03D14FF4EE
:101890004003FB6017E0BB79302B0DD0302B0FDC01
:1018A000002B05D0202B0BD14FF40003FB600AE086
:1018B0004FF44003FB6006E04FF44003FB6002E09E
:1018C000104BFB6000BF00BF0F4BD3F89020FB68AC
:1018D0001340FA689A42F7D1FB6803F48003002BA7
:1018E0000AD0094BD3F8A03003F48063002B14BF57
:1018F00001230023DBB200E0012318461037BD4668
:1019000080BD00BFFF33E10700400E4080B582B0CC
:1019100000AF0346FB710B46BB7113467B71FB792D
:10192000022B15D1BB79002B07D00D4B4FF48062F1
:10193000C3F8A8200A4ABB7953667B79002B09D0EB
:10194000BA79FB7911461846FFF794FF034603E086
:1019500000BF00E000BF012318460837BD4680BD28
:1019600000400E4080B483B000AFEFF310833B60C3
:101970003B687B6072B600BF7B6818460C37BD467B
:101980005DF8047B704780B483B000AF78607B68FB
:10199000002B01D162B600BF00BF0C37BD465DF819
:1019A000047B704780B487B000AFF860B9607A609C
:1019B000FB6803F1424303F58013DA00BB6813446C
:1019C0009B007B617B697A681A6000BF1C37BD464B
:1019D0005DF8047B704780B485B000AF78603960F3
:1019E0007B6803F1424303F58013DA003B6813443C
:1019F0009B00FB60FB681B6818461437BD465DF80A
:101A0000047B704780B400AF064B1B6803F04003B3
:101A1000002B01D1012300E000231846BD465DF8EC
:101A2000047B70473C300E4080B500AFFFF7EAFF03
:101A3000034683F00103DBB2002B08D100BF122163
:101A40000448FFF7C8FF0346002BF8D100E000BFB1
:101A500080BD00BF04300E4080B500AFFFF7E4FF4B
:101A6000034B5B681B0C03F00303DBB2184680BD1D
:101A700000300E4080B483B000AF7860044A7B68C9
:101A8000D36200BF0C37BD465DF8047B704700BFD2
:101A900000300E4080B400AF034B5B6A1846BD4671
:101AA0005DF8047B704700BF00300E4080B400AF8B
:101AB000034B00225A6300BFBD465DF8047B7047AC
:101AC00000300E4080B400AF044B4AF6E8525A632F
:101AD00000BFBD465DF8047B704700BF00300E407C
:101AE00080B483B000AF0346FB71FB79C3F10203FE
:101AF000102202FA03F318460C37BD465DF8047B4A
:101B00007047000080B584B000AF78600B46FB7072
:101B1000FFF778FF034683F00103DBB2002B28D1E7
:101B20007B68002B0FD1154BD3F800311B0A03F053
:101B30001F030133BB60FEF789FB0246BB6802FB53
:101B400003F3FB6001E07B68FB600D4B1B78002B0F
:101B500009D0FB680B4A934205D8FB78194602204E
:101B600000F012F806E0FB781946002000F00CF8AF
:101B700000E000BF1037BD4680BD00BF00400E40F2
:101B8000A4000020002D310190B587B000AF0346BE
:101B90000A46FB711346BB71FFF734FF034683F01F
:101BA0000103DBB2002B31D1FFF756FF03461A4683
:101BB000FB7993422CD0184BD3F800311B0A03F069
:101BC0001F0301337B61FEF741FB38613B697A6992
:101BD00002FB03F3FB60FB79022B03D1022138697E
:101BE000FEF77CFD0D4CFB791846FFF779FF0346A5
:101BF0002361BB79002B01D0FFF716FFFB79002B87
:101C000007D100213869FEF769FD02E000BF00E05E
:101C100000BF1C37BD4690BD00400E4000300E4056
:101C200080B400AF01231846BD465DF8047B7047C1
:101C300080B582B000AF0C4BDB6E0B4A43F0807373
:101C4000D36600210948FFF7C6FE78607B68002B49
:101C500003D0042000F0CAFC02E0002000F0C6FC23
:101C600000BF0837BD4680BD00300E404C300E40EE
:101C700080B48BB000AF01237B627B6A1B053B62A3
:101C8000324BDB6C1B0A03F00F03FB61304B1B88EC
:101C90001A462F4B1B8828335B08134403F1280195
:101CA000FB695A1C13469B001344B1FBF3F3013B41
:101CB000BB61BB697B6107233B613A697B699342E6
:101CC00028BF1346BB61BB691B06BB611F4BDB6CA6
:101CD00023F0EE62B9693B6A0B431C491343CB64A2
:101CE0001C4BB3F90030002B29DB1A4BB3F9003041
:101CF000FB81FA89FB8928335B08134403F128022E
:101D0000FB6901335900FB6901335B080B44B2FBEB
:101D1000F3F3BB60BB687B6007233B603A687B687A
:101D2000934228BF1346BB60BB681B01BB60074BD7
:101D30001B6D23F070020549BB6813430B6500BFA0
:101D40002C37BD465DF8047B704700BF00300E4065
:101D50009C000020A000002080B483B000AF786019
:101D60000B467B807B689AB2054B1A80054A7B88BC
:101D7000138000BF0C37BD465DF8047B704700BF81
:101D80009C000020A000002080B483B000AF034678
:101D9000FB71FB79002B02D0012B04D007E0074B2D
:101DA000074A9A6503E0054B064A9A6500BF00BFE3
:101DB0000C37BD465DF8047B704700BF00300E4015
:101DC00077402057372110B780B485B000AF034665
:101DD000FB710B46BB7113467B712D4BD3F88031E1
:101DE000FB60BB79032B1DD801A252F823F000BF82
:101DF000011E0000091E0000131E00001D1E000031
:101E0000FB68DBB2FB600FE0FB681B0ADBB2FB6028
:101E10000AE0FB681B0CDBB2FB6005E0FB681B0EF5
:101E2000FB6001E000232CE07B79002B11D1FB68E3
:101E30001B03FB60FB6823F47043002B01D00023DD
:101E40001FE0144BDB6E23F470421249FB6813430E
:101E5000CB667B79012B13D1FB681B03FB60FB680E
:101E600023F47043002B01D000230AE0094BD3F880
:101E7000EC3023F470420749FB681343C1F8EC309F
:101E8000012318461437BD465DF8047B704700BF38
:101E9000B081E00F00300E4080B489B000AFF86030
:101EA000B96011461A460B46FB711346BB710023FD
:101EB000FB610023BB61BB791B02FA79002A01D0C8
:101EC000012200E0002213437B617B6940F2013272
:101ED00093425CD07B6940F20132934200F29380DE
:101EE0007B69B3F5407F00F082807B69B3F5407F6A
:101EF00000F289807B6940F2012293423BD07B69EA
:101F000040F2012293427ED87B69B3F5007F62D014
:101F10007B69B3F5007F76D87B6940F2011293426A
:101F20001DD07B69B3F5817F6DD27B69B3F5807F6E
:101F300045D07B69B3F5807F65D87B69002B32D0B3
:101F40007B69012B5FD1364BD3F87431FB61FB69A0
:101F50001B0ADBB2BB61FB69DBB2FB6154E0304BB7
:101F6000D3F87431FB61FB691B0EBB61FB691B0C71
:101F7000DBB2FB6148E02A4BD3F87831FB61FB69A7
:101F80001B0ADBB2BB61FB69DBB2FB613CE0244BAB
:101F9000D3F87831FB61FB691B0EBB61FB691B0C3D
:101FA000DBB2FB6130E01E4BD3F86C31FB61FB69A7
:101FB0001B0ADBB2BB61FB69DBB2FB6124E0184B9F
:101FC000D3F86C31FB61FB691B0EBB61FB691B0C19
:101FD000DBB2FB6118E0124BD3F87031FB61FB6997
:101FE0001B0ADBB2BB61FB69DBB2FB610CE00C4B93
:101FF000D3F87031FB61FB691B0EBB61FB691B0CE5
:10200000DBB2FB6100E000BFFB68FA691A60BB68E5
:10201000BA691A6000BF2437BD465DF8047B70477B
:10202000B081E00F80B584B000AF0346FB713E4B3A
:102030005B6B012B0CBF01230023FB73FFF742FDF9
:1020400000BF394B9B6F03F00103002BF9D1364BD6
:102050001B6C03F00303BB60BB68002B04D00122A0
:102060000D213248FFF79EFCBB68DBB2FA799A4239
:1020700008D1FB79002B53D100220D212B48FFF70B
:1020800091FC4DE0BB68032B02D0BB68002B20D134
:10209000FB79022B02D0FB79012B1AD14FF40020DF
:1020A000FFF7E8FC00BF204B9B6F03F00103002B00
:1020B000F9D11D4B1B6C23F003031B4A43F00103B2
:1020C000136400BFFFF7E6FC034603F40023002B74
:1020D000F8D000BF144B9B6F03F00103002BF9D124
:1020E000114B1B6C23F00302FB790F4913430B6464
:1020F00000BF0D4B9B6F03F00103002BF9D1FB795F
:10210000002B14BF01230023DBB21A460D21074820
:10211000FFF748FCFB7B002B03D0FFF7C7FC00E078
:1021200000BF1037BD4680BD00300E4054300E4019
:1021300080B584B000AF7860484B02229A63474B69
:102140009B6B03F00F03022B01D0002381E0FFF70C
:1021500067FD7B685B78012B02D07B685B78022B84
:102160007B68DB884A2B02D80023FB6015E07B6884
:10217000DB88B3F5FA7F03D24FF08053FB600CE0AD
:102180007B68DB8840F6C312934203D84FF00053BC
:10219000FB6002E04FF04053FB60304BDB6C23F000
:1021A000405323F001037A68B2F90C20002A01DBC6
:1021B000012100E00021FA680A4328491343CB6457
:1021C000264BD3F8EC30254A43F44073C2F8EC3088
:1021D0007B689A88224B1A80FFF72AFD7B681B894F
:1021E0001A467B68B3F90C3019461046FFF7B4FD68
:1021F0007B689B88184600F08DF97B689B7B1846AE
:10220000FFF7C2FD7B685B8801220121184600F0C0
:102210002BF8034683F00103DBB2002B01D000232F
:1022200017E00E4BDB6B0D4A43F48063D3637B688E
:102230005B781846FFF7F6FE7B689B7A202B01D16E
:10224000012300E000231A4605210648FFF7AAFBF8
:10225000012318461037BD4680BD00BF00300E4038
:102260009E0000203C300E4090B595B000AF7860E5
:102270000B46FB701346BB700023FB6400237B649A
:1022800007F1240300221A605A609A6007F11803CC
:1022900000221A605A609A6007F10C0300221A604B
:1022A0005A609A60984B1B883B810023BB727B6805
:1022B000B3F5E16F06D37B6840F6B832934201D89C
:1022C000012300E0002387F8433097F8433003F000
:1022D000010387F8433097F8433083F00103DBB202
:1022E000002B01D000230AE17B68B3F5E16F8CBFBE
:1022F0000123002387F8423097F84230002B0AD0A0
:102300004FF4E163FB6440F6B8337B647A6CFB6C9A
:10231000D31ABB6409E04FF49663FB644FF4E163A6
:102320007B647A6CFB6CD31ABB6497F84230002B49
:102330000BD0764BD3F868313B623B6A1B0E7B6156
:102340003B6A1B0CDBB23B620AE0704BD3F868318E
:102350003B623B6A1B0ADBB27B613B6ADBB23B62DE
:102360006B4BDB6C1B0FDBB203F00303DBB23B7286
:102370003B7A97F8422007F10C0107F11800FFF7AC
:102380008BFD634BD3F8EC301B0ADBB203F0030385
:10239000DBB27B727C7A97F8422007F10C03191D9F
:1023A00007F11803181D2346FFF776FD7A68FB6CCA
:1023B000D31A79693A6A8A1A03FB02F2BB6CB2FB40
:1023C000F3F3FB62FA6A3B6A1344FB627A68FB6CC4
:1023D000D31AF968BA698A1A03FB02F2BB6CB2FB22
:1023E000F3F37B627A6ABB6913447B627A68FB6CA5
:1023F000D31A3969FA698A1A03FB02F2BB6CB2FB81
:10240000F3F3BB62BA6AFB691344BB62FA6A7B6985
:102410009A4213D8FA6A3B6A9A420FD3BA6A3B6966
:102420009A420BD8BA6AFB699A4207D37A6AFB6868
:102430009A4203D87A6ABB699A4201D200235EE0CD
:10244000BB78002B12D0324BDB6D23F4FE4323F01C
:102450000203FA6A1202134397F84220002A01D0BD
:10246000022200E000222A491343CB65FB78002BAF
:1024700044D0397A97F8423000221846FFF7A4FC7E
:10248000034683F00103DBB2002B01D0002336E0CA
:10249000797A97F8423001221846FFF795FC0346F7
:1024A00083F00103DBB2002B01D0002327E07B6A1D
:1024B000FB63BB6ABB63BA6BFB6B934238BF1346CB
:1024C0007B627B6A7B63E7233B633A6B7B6B934264
:1024D00028BF13467B620E4B5B6E23F4FF7323F021
:1024E00001037A6A5200134397F84220002A01D070
:1024F000012200E00022064913434B6601231846DF
:102500005437BD4690BD00BF0C3B0000B081E00FCA
:1025100000300E4080B584B000AF78600023FB60CF
:10252000314B1B6F03F00703BB602F4BDB6C03F0D9
:102530000103002B14D0BB68012B11D97B68132B2E
:1025400002D80423FB6037E07B68132B05D97B6836
:10255000272B02D80823FB602EE01023FB602BE022
:10256000214BDB6C03F00103002B14D1BB68012B62
:1025700011D87B68092B02D80423FB601CE07B6820
:10258000092B05D97B68132B02D80823FB6013E0C5
:102590001023FB6010E0144BDB6C03F00103002BF5
:1025A0000AD0BB68012B07D87B68272B02D80823E9
:1025B000FB6001E01023FB60FB68013BFB60FB68F4
:1025C0001A02FB681B031343FB60074BDB6C23F40D
:1025D0007F420549FB681343CB64FFF749FB00BF0B
:1025E0001037BD4680BD00BF00300E4080B584B0BE
:1025F00000AF0346FB7100210E48FFF7ECF9F860CD
:10260000FB68002B02D1FB79012B01D9FB68002B61
:1026100000BF094B1B6F23F00702FB7906491343E8
:102620000B67064B1B881846FFF774FF00BF103777
:10263000BD4680BD4C300E4000300E409E00002054
:1026400080B485B000AF786039607B6803F1C06307
:10265000FB60FB683A681A6000BF1437BD465DF83E
:10266000047B704780B485B000AF786039607B68C8
:1026700003F18063FB60FB683A681A6000BF14379F
:10268000BD465DF8047B704780B582B000AF03465D
:102690003960FB71FB79002B1CD0FB79012B19D021
:1026A000FB79022B16D0FB79032B13D0FB79042B7B
:1026B00010D0FB79052B0DD0FB79062B0AD0FB79C6
:1026C000072B07D0FB79082B04D0FB79092B01D00D
:1026D000FB790A2BFA7913465B0013441B010C3378
:1026E00003F1804303F5204301213A6801FA02F225
:1026F00011461846FFF7B6FF00BF0837BD4680BD3C
:1027000080B582B000AF03463960FB71FB79002BC6
:102710001CD0FB79012B19D0FB79022B16D0FB7949
:10272000032B13D0FB79042B10D0FB79052B0DD094
:10273000FB79062B0AD0FB79072B07D0FB79082BF6
:1027400004D0FB79092B01D0FB790A2BFA791346C7
:102750005B0013441B010C3303F1804303F520435A
:1027600001213A6801FA02F211461846FFF768FFA4
:1027700000BF0837BD4680BD80B584B000AFB960EA
:102780007B600346FB731346BB73FB7B002B1CD0A3
:10279000FB7B012B19D0FB7B022B16D0FB7B032B81
:1027A00013D0FB7B042B10D0FB7B052B0DD0FB7BC8
:1027B000062B0AD0FB7B072B07D0FB7B082B04D012
:1027C000FB7B092B01D0FB7B0A2BBB7B002B0DD0A5
:1027D0007B68002B05D0FB7BB9681846FFF790FF9C
:1027E00004E0FB7BB9681846FFF74EFFBB68072B78
:1027F00020D82C49FA7B13465B0013441B010B4481
:1028000004331A68BB689B000F2101FA03F3DB4312
:102810001340B97BBA68920001FA02F211462148CE
:10282000FA7B194313465B0013441B010344043332
:10283000196021E01B49FA7B13465B0013441B011E
:102840000B4408331A68BB68083B9B000F2101FA50
:1028500003F3DB431340B97BBA68083A920001FAEC
:1028600002F211460F48FA7B194313465B001344EA
:102870001B01034408331960BB7B002B0DD17B681F
:10288000002B05D0FB7BB9681846FFF739FF04E041
:10289000FB7BB9681846FFF7F7FE00BF1037BD464F
:1028A00080BD00BF00A0004080B483B000AF78605E
:1028B00039607B681B6C03F00103002B07D100BF5C
:1028C0007B685A6C3B681340002BF9D100E000BFD5
:1028D0000C37BD465DF8047B7047000080B586B0BC
:1028E00000AFF860B9607A60BB68002B09D1FB6863
:1028F000124A93421DD1124B7B617869FEF782F830
:10290000B860BB685A017B68B2FBF3F33B613B697B
:10291000203B3B613B69DB003B613A69094B13405B
:102920003B610421F868FFF7BFFFFB683A69DA6092
:1029300000E000BF1837BD4680BD00BF00A00440C6
:1029400090171A00F8FF010080B483B000AF7860E0
:102950000B46FB70FB78002B08D000BF7B685B6CDC
:10296000002BFBD17B6801221A6402E07B68002205
:102970001A6400BF0C37BD465DF8047B704780B514
:1029800082B000AF7860396002217868FFF78CFF71
:102990007B680A225A6001217868FFF7D5FF7B68BF
:1029A0001B6823F01C033A68127B13433A68527B7E
:1029B00013433A68927B1A437B681A603B685968F4
:1029C0003B689B681A467868FFF788FF3B681B786E
:1029D0001A467B685A6000217868FFF7B5FF00BF90
:1029E0000837BD4680BD80B483B000AF786000BFBB
:1029F0007B689B6803F02003002BF9D07B68DB69C0
:102A0000DBB218460C37BD465DF8047B704780B5D5
:102A100082B000AF78600B46FB7000BF7B689B689C
:102A200003F01003002BF9D040217868FFF73CFF3A
:102A3000FA787B689A6200BF0837BD4680BD80B4D3
:102A400083B000AF78600B46FB70FB7863F07F03C8
:102A5000DBB21A467B689A6500BF0C37BD465DF84D
:102A6000047B704780B586B000AFF860B9607A60CB
:102A7000FB7000237B61BB68002B03D12748FDF767
:102A8000C1FFB860FB78602B13D0602B14DC402BA7
:102A90000CD0402B10DC002B02D0202B03D00BE0FD
:102AA00010237B6109E008237B6106E006237B613C
:102AB00003E004237B6100E000BF7B69002B29D089
:102AC000BB685A017B69796801FB03F35B08134417
:102AD0003B617B697A6802FB03F33A69B2FBF3F36B
:102AE0003B613B69203B3B613B69DB003B613A69F1
:102AF0000B4B13403B61FB681B6823F06002FB68D3
:102B00001A60FB681A68FB781A43FB681A60FB6856
:102B10003A695A6100BF1837BD4680BD4041050083
:102B2000F8FF7F0080B485B000AF78600B46FB7083
:102B30007B68114A93420AD07B68104A934206D0C0
:102B40007B680F4A934202D07B680E4A934200BFD3
:102B5000FB78DB43FB60FB6803F00503FB60FB686D
:102B60005A007B68DA60FA787B68DA6000BF143755
:102B7000BD465DF8047B7047000001400004014041
:102B800000080140000C014080B582B000AF7860C1
:102B900039607B68334A93420AD07B68324A934259
:102BA00006D07B68314A934202D07B68304A934218
:102BB00000BF786800F05EF83B689B7C002B05D076
:102BC0007B681B6843F080427B681A603B68DB7C53
:102BD000002B05D03B681B7D19467868FFF72FFF57
:102BE0003B685B7B1A463B681B8A13433A68D28971
:102BF0001A437B685A603B6859683B689A683B682F
:102C00001B7B7868FFF72EFF3B685B7D002B05D0B0
:102C10007B681B6843F480327B681A603B689B7D4D
:102C20001B0703F0E0423B68DB7D1B0503F4E00378
:102C30001A437B681A667B685B6F23F030027B68FF
:102C40005A677B685B6F3A68127E1A437B685A67E3
:102C50003B681B781A467B68DA6000BF0837BD46C0
:102C600080BD00BF00000140000401400008014099
:102C7000000C014080B483B000AF78607B682C4AC0
:102C800093420AD07B682B4A934206D07B682A4A3B
:102C9000934202D07B68294A934200BF7B6840F68A
:102CA000AA62DA607B6800221A607B6841F2050242
:102CB0005A607B6800229A607B6800225A617B68B8
:102CC0000022DA647B681E4A9A647B6800221A66D6
:102CD0007B6800225A677B6800229A677B68002223
:102CE000DA677B68124A93420BD07B68114A9342A1
:102CF00007D07B68104A934203D07B680F4A934207
:102D000002D17B6800221A657B6800229A657B6885
:102D1000084A934203D07B68084A934202D17B68F9
:102D20000022DA6500BF0C37BD465DF8047B7047B2
:102D3000000001400004014000080140000C014077
:102D4000F9FF010080B483B000AF0346FB7197F92F
:102D50000730002B0BDBFB7903F01F02074997F9C3
:102D600007305B09012000FA02F241F8232000BF7E
:102D70000C37BD465DF8047B704700BF00E100E002
:102D800080B400AF054B1B69044A23F004031361B0
:102D900030BF00BFBD465DF8047B704700ED00E02A
:102DA00080B483B000AF786039607B683A685A635A
:102DB00000BF0C37BD465DF8047B704780B483B01C
:102DC00000AF786039607B689A6B3B68DB431A40E0
:102DD0007B689A6300BF0C37BD465DF8047B704783
:102DE00080B483B000AF786039607B689A6B3B68D1
:102DF0001A437B689A6300BF0C37BD465DF8047BBD
:102E0000704780B483B000AF78607B68DB6A184697
:102E10000C37BD465DF8047B704780B483B000AFCB
:102E2000786039607B683A681A6300BF0C37BD462A
:102E30005DF8047B7047000080B400AF044BDB6C8E
:102E40001B0EDBB21846BD465DF8047B704700BF21
:102E5000B081E00F80B582B000AF194B01225A64F7
:102E6000FFF7EAFF0346FB71FB79002B0CD1154BF2
:102E70004AF6E8521A60144B1B68134A43F00403E5
:102E80001360104B00221A60FB79012B05D80F4B01
:102E90001B680E4A43F4005313600D4B1B6A23F466
:102EA00044130B4A43F4881313620A4B1B68094A04
:102EB00043F4F843136000BF0837BD4680BD00BF30
:102EC00000000E4090310E4098310E4064310E40AB
:102ED00000400E40A4310E4080B500AF01210E48E5
:102EE000FDF72AFD012304220A210320FFF744FCF9
:102EF000002301220B210320FFF73EFC01230422C3
:102F000006210020FFF738FC0023012207210020C2
:102F1000FFF732FC00BF80BD00350A0090B585B0D8
:102F200000AF01211548FDF707FD02211448FEF707
:102F300095F901211348FDF7FFFC01211148FDF728
:102F4000ECFC114B3C460FCB84E80F003B46194686
:102F50000E48FFF714FD0D4B03225A650B4B41F24F
:102F600012229A6505210948FFF73AFF1620FFF75C
:102F7000E9FE00BF1437BD4690BD00BF30253E00BE
:102F80000300200090171A00343B000000A004400A
:102F900080B582B000AF2F48FFF733FF78607968C3
:102FA0002C48FFF7FDFE7B6803F00403002B2FD0B5
:102FB00028E02848FFF717FD0346FB70264B1B68E7
:102FC0004D2B0BD8FB780A2B08D0234B1B685A1CBF
:102FD00021490A602149FA78CA5413E01E4B1B6844
:102FE0005A1C1D490A601D4A0A21D1541A4B1B68FC
:102FF0001A4A0021D1541A4B01221A60164B0022A2
:103000001A6005E0134B9B6803F02003002BD0D11E
:103010007B6803F00103002B18D0124B1B684F2B69
:1030200011D8104B1B68104AD35C002B0BD00D4BF2
:103030001B685A1C0B490A600B4AD35C19460548A9
:10304000FFF7E5FC02E0074B00221A6000BF0837DB
:10305000BD4680BD00A0044058010020B8000020FB
:10306000B40000205C0100200801002080B584B07D
:1030700000AF7860102000F081FC0346FB60FB6825
:103080007A681A60FB680022DA60FB68184610371D
:10309000BD4680BD80B584B000AF7860082000F0E8
:1030A0006DFC0346BB60BB687A681A607B689B0056
:1030B000184600F063FC03461A46BB685A600023BA
:1030C000FB6009E0BB685A68FB689B001344002260
:1030D0001A60FB680133FB60FA687B689A42F1DB97
:1030E000BB6818461037BD4680BD80B586B000AFBE
:1030F000F860B9607A603B607868FFF7B7FF786185
:103100007B6904333968184600F0B2FCFB685A68E2
:10311000BB689B0013441A687B69DA60FB685A68D5
:10312000BB689B0013447A691A60B868FFF79EFF7A
:1031300038613B690433396A184600F099FCFB6832
:103140005A687B689B0013441A683B69DA60FB6825
:103150005A687B689B0013443A691A6000BF1837AD
:10316000BD4680BD80B584B002AF13237B60786814
:10317000FFF790FF0346764A1360754B1868754B4E
:103180000093754B01220021FFF7AFFF704B1868C9
:10319000714B00936F4B02220121FFF7A6FF6C4B8E
:1031A00018686D4B00936C4B03220221FFF79DFFC3
:1031B000674B1868684B0093674B09220021FFF7A3
:1031C00094FF634B1868644B0093634B0722022102
:1031D000FFF78BFF5E4B18685F4B00935E4B04223A
:1031E0000321FFF782FF5A4B18685A4B00935A4B42
:1031F00005220421FFF779FF554B1868564B0093C1
:10320000544B06220521FFF770FF514B1868524BB3
:103210000093514B07220621FFF767FF4C4B1868BC
:103220004D4B00934C4B08220721FFF75EFF484BA4
:103230001868494B0093484B09220821FFF755FFB6
:10324000434B1868444B0093434B0E220421FFF775
:103250004CFF3F4B1868404B00933F4B0D2206211B
:10326000FFF743FF3A4B18683B4B00933A4B0B2256
:103270000821FFF73AFF364B1868374B0093364B5F
:103280000A220921FFF731FF314B1868324B0093B6
:10329000314B0B220A21FFF728FF2D4B18682E4BCC
:1032A00000932D4B0C220B21FFF71FFF284B1868B2
:1032B000294B0093284B0D220C21FFF716FF244BBE
:1032C0001868254B0093244B0E220D21FFF70DFFAC
:1032D0001F4B1868204B00931F4B0F220E21FFF746
:1032E00004FF1B4B18681C4B00931B4B12220A2136
:1032F000FFF7FBFE164B1868174B0093164B102276
:103300000C21FFF7F2FE124B1868134B0093124B7F
:1033100010220F21FFF7E9FE0D4B18680D4B0093AB
:103320000D4B11221021FFF7E0FE094B1868094BE5
:103330000093094B11221221FFF7D7FE074B002201
:103340001A60074B09221A6000BF0837BD4680BDCE
:10335000A8000020A03B0000983B0000AC0000202B
:10336000B000002090B58BB000AFFFF773FD374B76
:1033700007F114040FCB84E80F0007F1140318467B
:10338000FEF7D6FEFFF7A8FDFFF7C8FDFFF7EAFE40
:1033900000F084F801212E48FFF73FFD2D4B1B68FC
:1033A000002B25D005212A48FFF708FD00237B626A
:1033B0000CE0294A7B6A13441B78D9B2274A7B6AFE
:1033C00013440A461A707B6A01337B62224A7B6A85
:1033D00013441B78DBB2002BEBD1204800F07EF8C1
:1033E0001E4A7B6A134400221A701A4B00221A608C
:1033F00000F08EF80346002B25D03B46184600F01F
:1034000097F800237B620BE03A467B6A13441978F5
:10341000124A7B6A13440A461A707B6A01337B6244
:103420003A467B6A13441B78002BEDD10B4A7B6A2A
:10343000134400221A7005210548FFF7D1FC012131
:103440000348FFF7EAFCFFF79BFCA7E7A83B000057
:1034500000A00440B4000020B800002008010020B3
:1034600080B483B000AF0346FB7197F90730002B9F
:103470000BDBFB7903F01F02074997F907305B0963
:10348000012000FA02F241F8232000BF0C37BD46AC
:103490005DF8047B704700BF00E100E080B586B0B6
:1034A00000AF4FF41653FB6000233B824FF4805370
:1034B0007B820023BB6005233B7501233B604FF4F7
:1034C00080737B603B461946034800F045F800BF17
:1034D0001837BD4680BD00BF0008014080B582B0EE
:1034E00000AF78607968084800F0C2FA064800F03A
:1034F000C7FA03461A460449044800F011F900BF10
:103500000837BD4680BD00BF2802002000080140EA
:1035100080B400AF054B1B68002B14BF01230023B0
:10352000DBB21846BD465DF8047B70477802002088
:1035300080B582B000AF78600549786800F098FAED
:10354000044B00221A6000BF0837BD4680BD00BF93
:10355000CC01002078020020B0B58AB000AF7860BE
:1035600039607B68454A934209D101214448FDF7FF
:10357000E3F90C20FFF774FF0D20FFF771FF7B6864
:10358000404A934209D101213F48FDF7D5F9142063
:10359000FFF766FF1520FFF763FF7B683B4A934206
:1035A00009D101213A48FDF7C7F92820FFF758FF54
:1035B0002920FFF755FF7B68364A934209D1012144
:1035C0003548FDF7B9F92B20FFF74AFF2C20FFF70C
:1035D00047FF7B681B6C03F00103002B08D17B685D
:1035E00001225A647B681B6C7B6801229A6404E0A8
:1035F0007B6801229A647B681B6C7868FFF73AFB52
:10360000264B07F10C041D460FCD0FC495E80700AB
:1036100084E807003B68DB687B6100233B733B6801
:103620001B7D7B763B681B8A7B833B685B8ABB8305
:103630003B689B683B6107F10C0319467868FFF70C
:10364000A3FA7B684FF44062DA607B6803225A6712
:103650003B681A683B685B681A437B689A67052178
:103660007868FFF75FFA7B680422DA640C4B00226B
:10367000DA6500BF2837BD46B0BD00BF000001407D
:103680000042040000040140005204000008014010
:1036900000620400000C014000720400B83B00000E
:1036A000C401002080B582B000AF0A4B1A6C094BF0
:1036B000DB6C13407B60074A7B6893647B6803F094
:1036C0000403002B02D0034800F0BEF800BF083707
:1036D000BD4680BD0008014080B582B000AF0F4BF1
:1036E0001A6C0E4BDB6C13407B600C4A7B68936456
:1036F0007B6803F00203002B02D0084800F046F874
:103700007B6803F00103002B04D0044B1B6C0348BF
:1037100000F076F800BF0837BD4680BD00080140C4
:1037200080B586B000AFF860B9607A6000BFF86815
:1037300000F0D4F80346002BF9D1FEF713F97861B5
:10374000104B012283F860200E4A7B689365B968AC
:103750000D4800F08DF90B4B0022DA65094AFB6831
:103760005360084B01221A70FB68DB6C43F00202C5
:10377000FB68DA647869FEF706F900BF1837BD46C2
:1037800080BD00BF600100206801002080B584B0CA
:1037900000AF7860FEF7E6F8F860184B1B78012B55
:1037A00022D1164BDB6D154A13441B7A1A467B68EF
:1037B0005A63124BDB6D0133104AD3650F4BDA6D40
:1037C0000E4B9B6D9A4211D17B68DB6C23F0020299
:1037D0007B68DA64094B02221A707B68DB6C43F069
:1037E00001027B68DA6401E000BF00E000BFF86816
:1037F000FEF7C9F800BF1037BD4680BD600100204C
:1038000080B584B000AF7860FEF7ACF8F8600D4B7F
:103810001B78022B0DD10B4B00221A707B68DB6CDE
:1038200023F001027B68DA64064B002283F86020F3
:1038300000E000BFF868FEF7A6F800BF1037BD46ED
:1038400080BD00BF6001002080B584B000AF78600B
:10385000FEF788F8F8607B68DB69BB601D4B1B785E
:10386000002B02D0032B0AD02CE0BB68232B28D1DD
:10387000184B03221A70174B0022DA6521E0BB684F
:10388000212B10D1134B00221A70124BDB6D114A01
:10389000134400221A727B684FF40062DA600E4B08
:1038A00001221A600EE00B4BDB6DBA68D1B2094AF7
:1038B00013440A461A72074BDB6D0133054AD36580
:1038C00000E000BFF868FEF75EF800BF1037BD46A5
:1038D00080BD00BFC40100207802002080B483B006
:1038E00000AF78607B68074A934204D1064B93F897
:1038F0006030DBB200E0002318460C37BD465DF8AF
:10390000047B7047000801406001002008B5074BA8
:10391000044613B10021AFF30080054B1868836A99
:1039200003B19847204600F0CFF800BF0000000028
:10393000D43B000070B50D4D0D4C641BA410002647
:10394000A64209D10B4D0C4C00F0C0F8641BA4102A
:103950000026A64205D170BD55F8043B98470136B4
:10396000EEE755F8043B98470136F2E7780000206F
:1039700078000020780000207C000020024B0146E7
:10398000186800F00BB800BF140000200244034682
:10399000934200D1704703F8011BF9E7F8B5CD1C3D
:1039A00025F0030508350C2D38BF0C25002D0646E3
:1039B00001DBA94203D90C2333600020F8BD00F0DD
:1039C00069F821490A6814469CB9204F3B6823B91D
:1039D0002146304600F03CF838602946304600F079
:1039E00037F8431C23D10C233360304600F058F8DD
:1039F000E3E723685B1B17D40B2B03D923601C441C
:103A0000256004E06368A2420CBF0B60536030463F
:103A100000F046F804F10B00231D20F00700C21A45
:103A2000CCD01B1AA350C9E722466468CCE7C41C5B
:103A300024F00304A042E3D0211A304600F008F835
:103A40000130DDD1CFE700BF7C02002080020020E2
:103A500038B5064D0023044608462B6000F026F8D2
:103A6000431C02D12B6803B1236038BD88020020BB
:103A7000034611F8012B03F8012B002AF9D17047F6
:103A8000034613F8012B002AFBD1181A013870479E
:103A9000704770470148FFF7FBBF00BF840200205A
:103AA0000148FFF7F6BF00BF84020020044A054921
:103AB0001368002B08BF0B46184410601846704767
:103AC0008C02002090020020FEE700BFF8B500BF86
:103AD000F8BC08BC9E467047F8B500BFF8BC08BCEF
:103AE0009E46704740787D0100000000005A620247
:103AF00000010000C0CF6A0002000000809FD500D6
:103B000002010000002D310102020000000000004F
:103B10005175657565204F766572666C6F770A0022
:103B2000517565756520556E646572666C6F770AB0
:103B300000000000050000000000000080250000DB
:103B4000000000000A2041646A6163656E637920A9
:103B50006C697374206F66207665727465782025B1
:103B6000640A202564202825732920002D3E202565
:103B7000640000000A000000496E76616C696420F0
:103B8000737461727420616E6420656E6420696E66
:103B9000707574732E0A0000726F6164000000007B
:103BA00064657374000000000002080705000A0045
:103BB000C8000000FFFF0100050000000000000039
:103BC00000C201000005000000100000000000001D
:103BD00000000000180000200000000000000000AD
:103BE00000000000000000000000000000000000D5
:103BF00000000000000000000000000000000000C5
:103C000000000000000000000000000000000000B4
:103C100000000000000000000000000000000000A4
:103C20000000000000000000000000000000000094
:0C3C300000000000000000000000000088
:083C3C0010C5FF7F010000002C
:103C4400005A620200800000C0EA2101C0EA21019A
:103C5400C0EA21011800002000000000F83B000029
:103C6400183C0000D83B00000000000000000000E9
:103C74000000000000000000000000000000000040
:103C84000000000000000000000000000000000030
:103C94000000000000000000000000000000000020
:103CA4000000000000000000000000000000000010
:103CB4000000000000000000310100000D010000C0
:04000003000001C92F
:00000001FF
