S01000006361722D6765636B6F2E73333778
S1130000000400203D020000390200003902000013
S113001039020000390200003902000039020000F0
S113002039020000390200003902000039020000E0
S113003039020000390200003902000039020000D0
S113004039020000390200003902000039020000C0
S113005039020000390200003902000039020000B0
S113006039020000390200003902000039020000A0
S11300703902000039020000390200003902000090
S11300803902000039020000390200003902000080
S11300903902000010B5064C2378002B07D1054B1C
S11300A0002B02D0044800E000BF0123237010BDE0
S11300B07804002000000000D80B0000044B10B5A9
S11300C0002B03D00349044800E000BF10BDC04624
S11300D0000000007C040020D80B000040229202A3
S11300E09A1A92467047C046174B002B00D1134B07
S11300F09D46FFF7F3FF00218B460F461348144A31
S1130100121A00F002FD0E4B002B00D098470D4B45
S1130110002B00D098470020002104000D000D485A
S1130120002802D00C4800E000BF00F0C1FC200011
S1130130290000F015F800F0A5FCC04600000800F6
S113014000000000000000000004002078040020EB
S11301509404002000000000000000007047704775
S113016010B500F0E3FBFFF7F9FF00F0EBFBFFF73E
S1130170F6FFFAE77047000010B50421112000F0E3
S11301809BFA0121064800F047F90221054800F0D6
S113019093FA0548022100F08FFA002010BDC046F2
S11301A0D0233E0002001E000300200001220F4B5A
S11301B010B51A640E4BDB6C1B0E812B07D80D4B4C
S11301C00D4A0E491A600E4A13680B40136000F082
S11301D07BFB00F029F800F057FB00F067FBFFF70A
S11301E0CBFF00F04FFB00F015F810BD00000C40F1
S11301F0B081E00F18600C4005000004FFFFFFFE13
S1130200E4800C40704770477047704770477047F0
S11302107047704710B50121024800F0FDF8FFF760
S1130220A9FF10BD0082040010B50121014800F0AF
S1130230F3F810BD00820400FEE7000010B500F0E2
S11302409BF8054B0549064A8B4201D3FFF74CFF47
S113025001CA01C3F8E7C046000400207804002066
S1130260E00B00000048704700366E01264B27491A
S1130270DA6A10B50A40802189018A4225D01ED845
S1130280802109018A4229D080218020490100026D
S11302908A421CD0E022D868D2001040802292000A
S11302A090422AD01CD8002829D00138FF38421E99
S11302B09041174A40421040164A801807E08021B6
S11302C0C9048A42E6D1144801E0144A1068196846
S11302D0C903490F013100F049FB10BD104AF5E78D
S11302E0C022920090420CD00E4A8018421E9041C7
S11302F00D4A404210400D4ADFE70D48E7E70D483C
S1130300E5E70D48E3E7C04600800C40003C0004EC
S1130310C04A9BFF40B5640000366E01080400200B
S11303200404002000FCFFFFC090BFFE406F4001AA
S1130330C0D8A700804F1200809FD50010B5FFF7EA
S113034095FF0F22034B5B681340D840024B1860A3
S113035010BDC04600800C4000040020044B10B5C2
S11303601860044BDB6A1B0501D5FFF7E7FF10BDDE
S11303700404002000800C40014A024B9A6070473C
S11303800000000000ED00E0FEE70000034B5A6DA2
S1130390D20702D41A6D0242FCD1704700800C408F
S11303A009490A4B10B500224C68984205D9084BFC
S11303B00132984201D90632224007204B68834318
S11303C013434B6010BDC04600000C400024F400F1
S11303D00048E80170B5064B064CE56BE363FFF794
S11303E041FFFFF7DDFF002D01D00023E36370BD63
S11303F0711B000000000C4070B5054C054BE56B0B
S1130400E363FFF7CDFF002D01D00023E36370BD4C
S113041000000C40711B000070B504000005000FC3
S113042001380E00092823D800F096FA052A27225D
S11304302215181B221F0020134DE403E40E00288C
S113044001D0FFF7A3FF0122A240A6402B689343EB
S11304501E432E6010E001200C4DEEE710200C4DE1
S1130460EBE780200B4D4000E7E700200A4DE4E76E
S11304700A490B48FFF788FF70BD0020094DDCE7EF
S11304800020094DD9E7C04608800C4058800C4034
S113049060800C4064800C4078800C40D7190000C8
S11304A0380B000040800C4044800C400F2318405F
S11304B0013810B5062864D800F04EFA04213144FE
S11304C063695100334B344ADB6A022013408022B3
S11304D0920193420BD00BD8802200181201934250
S11304E005D0802201305201934200D1023810BD60
S11304F080220520D2049342F9D10630F7E7032184
S1130500244A936A0B40013B022B02D8234AD05C55
S1130510EDE7936A0120DB03E9D50B30E7E70C2212
S11305201C4902208B6A1340082BE0D0043093420C
S1130530DDD00338042BDAD08B6A0238DB02D6D53F
S11305401000D4E73022134B03209B6A1340102B76
S1130550CDD0203B1800434258410130C7E7E02288
S11305600C4BD202DB6A0320134080229202934296
S1130570BDD080220730D2029342B8D0084A9818DE
S1130580E9E708480849FFF7FFFE0020AFE7072026
S1130590ADE7C04600800C40003C0004AD0B0000F9
S11305A00000FFFF380B0000271F000010B50400F7
S11305B01120FFF77BFF042803D10C490C48FFF7F7
S11305C0E3FE08230B490C4A0B620B681340E278E4
S11305D01343627852021343227892001343A278A1
S11305E0501E8241D20113430B6010BD0F25000041
S11305F0380B000000800C4070F9FFFF70B5060056
S11306001120FFF753FF022803D10E490E48FFF7CC
S1130610BBFE80230D4D9B002B6233787178B47838
S11306209B078904DB0FE4020C435B031C4300F0CB
S113063021F92B68064A5C4014405C402C6000F0B1
S11306401DF970BDCD250000380B000000800C4062
S113065000380C00014B18807047C0460C04002081
S113066010B5052807D80D4B4400002908D10C4AC1
S1130670125B1A6203E00B490B48FFF785FE10BDBD
S11306800A49095C0A48005B1862002AF7D0012372
S11306908B4008490A681A42FCD0F0E700800C40FD
S11306A0C20B000074260000380B0000B00B0000E1
S11306B0B60B00002C800C4070B50F250540681E59
S11306C00C00062800D9BCE000F046F90430306B79
S11306D0BBBB8900881E0A2821D800F03DF92206F8
S11306E025162020202020181B000120032501228C
S11306F01100FFF7B5FFFFF76DFE534B5D62FFF787
S11307001DFE0021FFF778FE70BD0320EFE70520F2
S11307100500ECE74D494E48FFF736FEF4E74D4936
S1130720F9E700200425E2E70220F1E7481E0B2840
S11307302CD800F011F92D131B2B2B232B2B2B2B37
S11307402B06012200234049886A022D23D1424C02
S113075012042040034313438B62D5E70122002097
S11307601100FFF77DFF00220223ECE701221100B4
S11307701000FFF775FF00220123E4E70421374A44
S113078013680B43136000220323DCE73449C2E7F8
S113079000221300D7E712059B001343314A02409D
S11307A0D9E7022905D0032910D0012915D1002445
S11307B004E0012200201100FFF752FF3021224AF9
S11307C02401936A8B431C4394629DE70122110028
S11307D01000FFF745FF0124F0E723499BE70329B5
S11307E011D00A291DD0022929D10122002011008B
S11307F0FFF736FF4022144B5A6280225202D96A14
S11308001142FCD080E7012211001000FFF728FFFD
S113081060220D4B5A6280229202D96A1142FCD0A6
S113082072E7012205201100FFF71AFF8022064B10
S11308305A628022D202D96A1142FCD064E70B4981
S113084069E70B4967E7C04600800C40E81F0000D9
S1130850380B0000ED1F0000FCFFFEFF40800C4041
S113086096200000F3FFEFFFC720000030210000B6
S113087026220000EFF3108072B67047002800D1E2
S113088062B670470020704707B50422054901A8E5
S113089000F032F90448FFF761FD01A8FFF786FE76
S11308A000200EBDCE0B000000366E0113B50323ED
S11308B0002401A8437004708470FFF79FFE642035
S11308C0FFF7C8FE200016BD0F230522F0B59C4695
S11308D0FF2640275242032033001040C0008340CB
S11308E03C00DB438440D1B210060ED4C0250D4831
S11308F0910889000918AD00485903401C434C5124
S11309000132152AE7D10020F0BD604601400839C4
S11309100548890889000918C86903401C43CC614B
S1130920EEE7C04600E100E000ED00E010B5FFF79F
S11309303DFCFFF767FCFFF766FCFFF765FCFFF77C
S113094064FC10BD10B5FFF761FCFFF760FCFFF716
S11309505FFCFFF75EFC10BD02B471464908490014
S1130960095C49008E4402BC7047C046002243081B
S11309708B4274D303098B425FD3030A8B4244D363
S1130980030B8B4228D3030C8B420DD3FF220902A5
S113099012BA030C8B4202D31212090265D0030B64
S11309A08B4219D300E0090AC30B8B4201D3CB035A
S11309B0C01A5241830B8B4201D38B03C01A52419C
S11309C0430B8B4201D34B03C01A5241030B8B429E
S11309D001D30B03C01A5241C30A8B4201D3CB0289
S11309E0C01A5241830A8B4201D38B02C01A52416E
S11309F0430A8B4201D34B02C01A5241030A8B4271
S1130A0001D30B02C01A5241CDD2C3098B4201D388
S1130A10CB01C01A524183098B4201D38B01C01A06
S1130A20524143098B4201D34B01C01A524103097D
S1130A308B4201D30B01C01A5241C3088B4201D32C
S1130A40CB00C01A524183088B4201D38B00C01AD9
S1130A50524143088B4201D34B00C01A5241411A00
S1130A6000D20146524110467047FFE701B500200D
S1130A7000F006F802BDC0460029F7D076E77047BB
S1130A807047C046084B10B50400002B02D000216B
S1130A9000E000BF054B1868836A002B00D098471C
S1130AA0200000F03BF8C04600000000D40B00001A
S1130AB070B500260C4D0D4C641BA410A64209D140
S1130AC0002600F02DF80A4D0A4C641BA410A6421F
S1130AD005D170BDB300EB5898470136EEE7B3007B
S1130AE0EB5898470136F2E77004002070040020A8
S1130AF07004002074040020002310B59A4200D131
S1130B0010BDCC5CC4540133F8E70300821893424F
S1130B1000D1704719700133F9E70000FEE7C046C1
S1130B20F8B5C046F8BC08BC9E467047F8B5C04648
S1130B30F8BC08BC9E4670472F4170706C696361B5
S1130B4074696F6E732F53696D706C69636974791E
S1130B502053747564696F2E6170702F436F6E74C7
S1130B60656E74732F45636C697073652F64657665
S1130B70656C6F7065722F73646B732F6765636B3D
S1130B806F5F73646B5F73756974652F76332E3290
S1130B902F706C6174666F726D2F656D6C69622F56
S1130BA07372632F656D5F636D752E6300030206B8
S1130BB009070301051600014000040001001000AC
S1130BC00004000280000800020020000008030363
S10B0BD00000000010040020E5
S10B0BD804F5FF7F0100000099
S1130BE0809FD50000366E0100800000FFFF0000EA
S1130BF000000000000000000000000000000000F1
S1130C0000000000000000000000000000000000E0
S1130C1000000000000000000000000000000000D0
S1130C2000000000000000000000000000000000C0
S1130C3000000000000000000000000000000000B0
S1130C4000000000000000000000000000000000A0
S10B0C50BD0000009500000046
S903023DBD
