S0250000534C53544B33343030415F45464D333248475F6C65756172745F6563686F2E73333721
S1130000002000205D01000089010000890100003A
S113001089010000890100008901000089010000B4
S113002089010000890100008901000089010000A4
S11300308901000088010000890100008901000095
S11300408901000089010000890100008901000084
S11300508901000089010000890100008901000074
S113006089010000890100003D1900008901000098
S11300708901000089010000890100008901000054
S11300808901000089010000890100008901000044
S11300908901000010B5064C2378002B07D1054BCD
S11300A0002B02D0044800E000BF0123237010BDE0
S11300B088000020000000005C1E0000044B10B506
S11300C0002B03D00349044800E000BF10BDC04624
S11300D0000000008C0000205C1E00004022920200
S11300E09A1A92467047C046174B002B00D1134B07
S11300F09D46FFF7F3FF00218B460F461348144A31
S1130100121A01F0DDFD0E4B002B00D098470D4B69
S1130110002B00D098470020002104000D000D485A
S1130120002802D00C4800E000BF01F0A5FD20002B
S1130130290001F077FC01F089FDC04600000800A9
S113014000000000000000000020002088000020C3
S1130150580100200000000000000000064880470D
S11301600649074A074B9B1A03DD043BC858D05085
S1130170FBDCFFF7B9FF0000E9020000681E000085
S11301800000002088000020FEE7C04680B582B051
S113019000AF00F01FF803007B60084B5B680F2280
S11301A013407A68DA4013007B60054B7A681A6062
S11301B07B681800BD4602B080BDC04600800C407C
S11301C00800002080B500AF014B1800BD4680BD7B
S11301D000366E0180B582B000AF394BDB6A394A14
S11301E013408022D204934220D08022D20493422E
S11301F01FD88022920193420CD080229201934214
S113020017D88022120193420CD0802252019342CB
S113021004D00EE02C4B1B687B6041E080231B0262
S11302207B603DE0294B1B687B6039E0284B7B6099
S113023036E0234BDA68E023DB0013408022D2004F
S113024093421AD08022D200934225D8C022920031
S1130250934215D0C022920093421DD8802292006E
S1130260934210D080229200934215D8002B10D0D4
S113027080225200934209D00EE0164B7B600EE0C0
S1130280154B7B600BE0154B7B6008E0144B7B60E7
S113029005E0144B7B6002E000237B60C046C0464F
S11302A0074B1B689B0B0722134001331900786826
S11302B001F022FC03001800BD4602B080BDC04618
S11302C000800C40003C00040400002000000020DA
S11302D000366E01406F4001809FD500C0D8A70052
S11302E040B56400804F120080B500AF024B034A52
S11302F09A60C046BD4680BD00ED00E000000000ED
S113030080B500AF80231B021800BD4680BD80B5B8
S113031000AFFA239B001800BD4680BD80B500AF36
S1130320024B1B681800BD4680BDC0460400002077
S113033080B582B000AF786001227B689A401300D8
S11303401800BD4602B080BD80B586B000AFF8602D
S1130350B9607A60FB681B687B610122BB689A40C4
S11303601300DB431A007B691A407B6801211940A2
S1130370BB6899400B001A43FB681A60C046BD462F
S113038006B080BD80B582B000AF786039607B680C
S11303901A683B68DA401300012213401800BD4676
S11303A002B080BD80B584B000AF78607B68002B5C
S11303B000D0C046786801F02BFC0300DBB21A00C1
S11303C01F239B1AFB60FB681800BD4604B080BD68
S11303D080B500AF034BDB6C1B0EDBB21800BD46CF
S11303E080BDC046B081E00F80B582B000AF254B20
S11303F05A69E023DB001340E022D200934236D056
S1130400E022D200934235D8C0229200934212D007
S1130410C022920093422DD880229200934215D09C
S113042080229200934225D8002B1DD080225200B6
S1130430934216D01EE0FFF7CBFF0300122B02D924
S1130440114B7B6019E0114B7B6016E0FFF7C0FF96
S11304500300122B02D90E4B7B600EE00D4B7B6028
S11304600BE00D4B7B6008E00C4B7B6005E00C4B14
S11304707B6002E000237B60C0467B681800BD46B9
S113048002B080BD00800C40804F120040420F003B
S113049040B56400C0CF6A00C0D8A700809FD500D3
S11304A0406F400190B583B000AFFC1C0E4B1800A8
S11304B000F0C8FB03002370FB1C1B78072B06D03D
S11304C0092B09D1FFF786FE03007B6007E0FFF7E5
S11304D08BFF03007B6002E000237B60C0467B68E7
S11304E01800BD4603B090BD06000E0080B584B070
S11304F000AF786039600F4B5B6807221340FB60E4
S11305007B680D4A934202D80023FB6005E07B68B8
S11305100A4A934201D80123FB60064B5B68072219
S113052093431900034BFA680A435A60C046BD4618
S113053004B080BD00000C400024F4000048E80131
S113054080B582B000AF0D4BDA6BFB1D511E8A41A2
S11305501A700A4B0A4ADA63FFF734FE03000021DB
S11305601800FFF7C3FFFB1D1B78002B02D0034BC1
S11305700022DA63C046BD4602B080BD00000C40D4
S1130580711B000090B585B000AF786039600D4BE9
S1130590DA6B0F243B19511E8A411A70094B0A4A1F
S11305A0DA633A687B6811001800FFF79FFF3B1974
S11305B01B78002B02D0034B0022DA63C046BD46F1
S11305C005B090BD00000C40711B000080B584B0E4
S11305D000AF78600023BB607B683E4A934203D03F
S11305E07B683C4A934201D8C04600E0C0467B6821
S11305F0180000F027FB0300FB607B68354A934238
S113060019D07B68334A93421CD87B68324A9342A0
S113061004D07B68314A934206D013E0304B9B6A86
S113062003221340FB600EE02D4B9B6A9B080322C0
S11306301340FB6007E02A4B9B6A1B09032213400B
S1130640FB6000E0C046FB68032B18D0FB68032B5B
S113065036D8FB68022B0DD0FB68022B30D8FB6820
S1130660002B12D0FB68012B2AD1FFF749FE0300AF
S1130670BB6029E0FFF752FE0300BB6024E0FFF7F4
S113068085FD03005B08BB601EE00023BB607B6844
S1130690114A934203D07B68104A934213D1104B02
S11306A09A6A7B680C498B4201D1102300E0142321
S11306B0DA40131E07D0FFF72AFE0300BB6002E0F6
S11306C00023BB6000E0C046BB681800BD4604B010
S11306D080BDC0460400220002001E00030020006A
S11306E000800C4080B582B000AF7860074B5B6D32
S11306F00122134006D1C046044B1B6D7A68134097
S1130700FAD100E0C046BD4602B080BD00800C4076
S113071090B583B000AFFC1C164B180000F092FAA1
S113072003002370FB1C1B780A2B12D01ADC092B44
S113073013D017DC022B02D0032B05D012E0FFF7F5
S1130740EDFD03007B6010E0FFF7DAFD03007B6042
S11307500BE0094B1B687B6007E0FFF73BFD0300E0
S11307607B6002E000237B60C0467B681800BD46C6
S113077003B090BD073326000C00002080B500AF05
S1130780C046BD4680BD80B500AFC046BD4680BDF5
S113079080B584B000AF78607B681B090F221340DA
S11307A0BB60BB680D2B5BD8BB689A00304BD31879
S11307B01B689F462F4B1B689B0B0722134001337A
S11307C0FB6050E02B4B9B680F221340FB60FB68DF
S11307D01800FFF7ADFD0300FB6044E0254B5B68A8
S11307E00F221340FB60FB681800FFF7A1FD030014
S11307F0FB6038E01F4B5B681B0A01221340FB605F
S1130800FB6801331800FFF793FD0300FB602AE047
S11308107B68194A93420BD1164B9B6E0F221340EF
S1130820FB60FB681800FFF783FD0300FB6002E038
S11308300123FB60C04616E07B68104A93420BD14B
S11308400C4B1B6F03221340FB60FB681800FFF77F
S11308506FFD0300FB6002E00123FB60C04602E081
S11308600123FB60C046FB681800BD4604B080BD90
S1130870001D000000800C408006120090071A0042
S113088080B584B000AF786039607B681B090F22A3
S11308901340FB60FB680D2B00D997E0FB689A00BE
S11308A04D4BD3181B689F463B68002B00D0C046B5
S11308B0FFF746FE494B1B68494A134019003B6841
S11308C0013B9A03454B0A431A60FFF75FFC0300A0
S11308D0BB60BB6800211800FFF754FE77E03B685B
S11308E0002B00D0C0463B681800FFF75BFD0300F7
S11308F03B603A4B9B680F2293431900374B3A688D
S11309000A439A6063E03B681800FFF74BFD03005D
S1130910013B3B60314B5B68324A134019003B6832
S11309201A022E4B0A435A6051E03B68002B00D058
S1130930C046FFF705FE3B681800FFF733FD0300D0
S11309403B60264B5B680F2293431900234B3A68A4
S11309500A435A60FFF71AFC0300BB60BB6800211E
S11309601800FFF70FFE32E07B681F4A934212D152
S11309700420FFF7B7FE3B681800FFF713FD0300E0
S11309803B60164B9B6E0F2293431900134B3A683E
S11309900A439A6600E0C04619E07B68134A934212
S11309A012D14020FFF79EFE3B681800FFF7FAFCC7
S11309B003003B60094B1B6F032293431900074B51
S11309C03A680A431A6700E0C04600E0C046C046E1
S11309D0BD4604B080BDC046381D000000800C40F8
S11309E0FF3FFEFFFFFEFFFF8006120090071A0084
S11309F080B586B000AF78600A00FB1C1A70002333
S1130A003B617B681B0A0F2213400A2B34D89A00DF
S1130A101B4BD3181B689F461A4B7B6118E01A4B7B
S1130A207B6115E0194B7B6112E0194B7B6101235B
S1130A303B610DE0174B7B6110233B6108E0164BD3
S1130A407B6180235B003B6102E0144B7B61C04609
S1130A507B681B0B1F221340FB603B69002B03D0F8
S1130A603B691800FFF73EFEFB1C1A78F9687B69A6
S1130A701800FFF769FC00E0C046BD4606B080BD23
S1130A80701D000040800C4008800C4044800C40E5
S1130A9058800C4060800C4064800C4078800C408E
S1130AA090B585B000AF78607A68F8239B03134053
S1130AB0F8229203934200D1A6E0F82292039342D3
S1130AC000D9B0E098229203934200D197E0982293
S1130AD09203934200D9A6E080229203934200D16C
S1130AE06DE080229203934200D99CE0F0225203ED
S1130AF093424ED0F0225203934200D993E0D02285
S1130B005203934262D0D0225203934200D98AE026
S1130B1090225203934243D090225203934200D92D
S1130B2081E080225203934264D080225203934294
S1130B3000D978E0E0221203934256D0E022120357
S1130B40934200D96FE08022D20293420FD08022D8
S1130B50D202934267D8002B04D08022920293429F
S1130B6012D060E0FFF736FB0300FB605EE0FFF7A6
S1130B7031FB0300FB60304B9B680F221340FA6883
S1130B80DA401300FB6051E0FFF700FB0300FB6059
S1130B904CE02A4B1800FFF719FD0300FB6045E009
S1130BA0264B1800FFF712FD0300FB60224B9B6EDF
S1130BB00F221340FA68DA401300FB6036E0204B42
S1130BC01800FFF703FD0300FB602FE01C4B180027
S1130BD0FFF7FCFC0300FB60174B1B6F0322134061
S1130BE0FA68DA401300FB6020E0FFF75BFC0300C7
S1130BF0FB601BE0FFF7F8FB0300FB6016E0FFF768
S1130C0087FD0300FB6011E0FFF7C0FA04007B6876
S1130C101800FFF7BDFD03001900200000F06CFF71
S1130C200300FB6002E00023FB60C046FB68180081
S1130C30BD4605B090BDC04600800C4002001E00B9
S1130C400300200080B584B000AF78600F23FB1848
S1130C5001221A707B680F221340BB60BB68072B0C
S1130C6000D9D5E0BB689A006F4BD3181B689F4628
S1130C706E4BDB6A6E4A13408022D204934223D027
S1130C808022D204934224D88022920193420CD031
S1130C908022920193421CD88022120193420ED0EA
S1130CA080225201934205D013E00F23FB18022245
S1130CB01A7013E00F23FB1803221A700EE00F239F
S1130CC0FB1804221A7009E00F23FB180B221A7078
S1130CD004E00F23FB1805221A70C0469DE0534B15
S1130CE09B6A03221340032B0FD013D8012B02D08D
S1130CF0022B05D00EE00F23FB1803221A7015E017
S1130D000F23FB1802221A7010E00F23FB1806228F
S1130D101A700BE0454B9A6A80235B02134004D09F
S1130D200F23FB180C221A7000E0C04675E03F4BFD
S1130D309B6A0C2213400C2B0FD013D8042B02D027
S1130D40082B05D00EE00F23FB1803221A7015E0C0
S1130D500F23FB1802221A7010E00F23FB1806223F
S1130D601A700BE0314B9A6A80235B03134004D062
S1130D700F23FB180C221A7000E0C0464DE02B4BE9
S1130D809B6A30221340102B02D0202B05D009E09F
S1130D900F23FB1803221A7009E00F23FB18022209
S1130DA01A7004E00F23FB1801221A70C04634E0C5
S1130DB00F23FB1807221A702FE01C4BDA6AE0237A
S1130DC0DB0213408022D20293420CD08022D20252
S1130DD0934217D880225202934209D08022920271
S1130DE093420AD00EE00F23FB180A221A700EE079
S1130DF00F23FB1802221A7009E00F23FB180322A9
S1130E001A7004E00F23FB1801221A70C04604E094
S1130E100F23FB1800221A70C0460F23FB181B78FF
S1130E201800BD4604B080BD9C1D000000800C402D
S1130E30003C000480B588B000AF78600A00FB1C59
S1130E401A700323FB611B23FB1803221A7000236F
S1130E503B617B680F221340FB60FB68072B00D1CA
S1130E60D2E0FB68072B00D909E1FB68042B00D111
S1130E70A1E0FB68042B00D901E1FB68012B09D038
S1130E80FB68002B00D1FAE0FB68023B012B00D980
S1130E90F5E047E0FB1C1B780C2B00D9F1E09A002D
S1130EA07D4BD3181B689F460423FB611B23FB184F
S1130EB000221A701BE00323FB611B23FB18012291
S1130EC01A7014E00223FB611B23FB1802221A7020
S1130ED00DE00123FB611B23FB1803221A7006E0BB
S1130EE00523FB611B23FB1805221A70C0461B2334
S1130EF0FB181B7801220121180000F0D9F8FFF734
S1130F001FFBFFF73BFC654BFA695A62FFF73EF99A
S1130F100300BB60BB6800211800FFF733FBFFF739
S1130F2032FCB5E0FB1C1B780C2B00D9ABE09A001B
S1130F305B4BD3181B689F4600237B611DE0012295
S1130F400121002000F0B4F802237B6115E00122A6
S1130F500121012000F0ACF801237B610DE0514B2D
S1130F60012202211800FFF7EFF903237B6104E05B
S1130F7000237B6101233B61C046FB68022B0CD13B
S1130F80464B9B6A484A1A407B691A4311003B69E5
S1130F901A04424B0A439A627AE0404B9B6A434AE2
S1130FA01A407B699B001A4311003B691A053B4BAD
S1130FB00A439A626CE0FB1C1B78032B11D000DD02
S1130FC063E0012B02D0022B03D05EE000237B619F
S1130FD00FE001220121002000F06AF802237B6166
S1130FE007E001220121012000F062F801237B6166
S1130FF0C0462A4B9B6A3022934319007B691A012D
S1131000264B0A439A6243E0FB1C1B780A2B25D02B
S11310103DDC022B02D0032B10D038E00122012149
S1131020002000F045F81D4B40225A62C0461B4B7D
S1131030DA6A80235B021340F9D01FE00122012108
S1131040012000F035F8154B60225A62C046134B5C
S1131050DA6A80239B021340F9D00FE001220121B8
S1131060052000F025F80D4B80225A62C0460B4B38
S1131070DA6A8023DB021340F9D0C04608E0C04698
S113108006E0C04604E0C04602E0C04600E0C046B8
S1131090BD4608B080BDC046BC1D000000800C40A9
S11310A0F01D000040800C40FCFFFEFFF3FFEFFF4B
S11310B090B587B000AF040008001100FB1D221C8E
S11310C01A70BB1D021C1A707B1D0A1C1A70FB1DB2
S11310D01B78052B4BD89A00274BD3181B689F46C7
S11310E001233B610223FB6001237B6126E004238F
S11310F03B610823FB6003237B611FE010233B61FA
S11311002023FB6005237B6118E040233B6180239F
S1131110FB6007237B6111E080235B003B6180233C
S11311209B00FB6009237B6108E08023DB003B61BB
S113113080231B01FB6016237B61C046BB1D1B780B
S1131140002B10D00D4B3A691A627B1D1B78002BC3
S11311500ED0C0467B690A4A19001000FFF712F945
S1131160031EF7D004E0054BFA681A6200E0C0469B
S1131170BD4607B090BDC046241E000000800C4050
S11311802C800C4080B582B000AFEFF310833B603D
S11311903B687B6072B6C0467B681800BD4602B0EF
S11311A080BD80B582B000AF78607B68002B01D130
S11311B062B6C046C046BD4602B080BD80B500AF31
S11311C0FEF7E4FFC046BD4680BD000080B500AF19
S11311D0034A84230021D150C046BD4680BDC04689
S11311E000800C4080B500AF034A84230349D150EA
S11311F0C046BD4680BDC04600800C400E5800006D
S113120080B584B000AF0200FB1D1A70FB1D1B7873
S1131210002B0BD1304BDA6A304B1A601120FFF7E8
S113122011FD03001A002E4B1A7050E02A4A842341
S1131230D35801221340FB60FFF7D4FF0023BB60A7
S1131240264B1B6801221340BA681343BB60234B2F
S11312501B6810221340BA681343BB601F4B1B6802
S113126040221340BA681343BB601C4B1B68042222
S11312701340BA681343BB60184B1A6880235B00A1
S11312801340BA681343BB60144B1B68DA0A80230B
S1131290DB001340BA681343BB600F4BBA681A6291
S11312A00F4B1B78052B05D00D4B1B781900112013
S11312B0FFF7C0FD094B1B680122134002D1064B06
S11312C002221A62FB68002B01D0FFF77FFFC046A1
S11312D0BD4604B080BDC04600800C40A400002080
S11312E0A800002080B500AF01231800BD4680BDD2
S11312F080B500AFC046BD4680BD80B500AFC046D6
S1131300BD4680BD80B500AFC046BD4680BD80B53A
S113131000AFC046BD4680BDB0B586B000AF020088
S1131320FB1D1A70FB1D1B78002B02D00020FFF759
S113133067FF264B1A69254B04210A431A611725B6
S11313407C19FFF7CFFF030023707B191B78002B58
S11313500BD01F4B1B681F4A1A4008203B181A6009
S11313601B493B181B6880228B50FFF7C1FFFFF716
S1131370C4FFFFF707FF03003B6100F0B9FC3B69C2
S11313801800FFF70EFFFFF7C2FFFFF7BBFF17239D
S1131390FB181B78002B04D00D4A0823FB181B688C
S11313A01360FB1D1B78002B02D00120FFF728FFE0
S11313B0FB1D1B7801225340DBB2002B01D0FFF749
S11313C0FDFEC046BD4606B0B0BDC04600ED00E01F
S11313D000E100E094A3F7FF80B582B000AF020003
S11313E03960FB1D1A70FB1D1B78002B0DD0FB1DF3
S11313F01B78012B09D0FB1D1B78022B05D0FB1D8C
S11314001B78032B01D0FB1D1B780848FB1D1A78A1
S113141001213B6899401300DB009B189B00C31813
S113142014331960C046BD4602B080BD0060004060
S113143080B582B000AF02003960FB1D1A70FB1D3D
S11314401B78002B0DD0FB1D1B78012B09D0FB1D35
S11314501B78022B05D0FB1D1B78032B01D0FB1D31
S11314601B780848FB1D1A7801213B68994013003A
S1131470DB009B189B00C31810331960C046BD469F
S113148002B080BD0060004090B585B000AFB96087
S113149011007B600F243B19021C1A700E23FB18E9
S11314A00A1C1A702200BB181B78002B0DD0BB1825
S11314B01B78012B09D0BB181B78022B05D0BB1855
S11314C01B78032B01D0BB181B780E23FB181B7849
S11314D0002B13D07B68002B08D0BA680F23FB18AD
S11314E01B7811001800FFF7A3FF07E0BA680F2369
S11314F0FB181B7811001800FFF76EFFBB68072B61
S113150025D835490F243B191A781300DB009B18A2
S11315109B00CB1804331B68BA6892000F219140DA
S11315200A00D24313400E22BA181178BA68920006
S113153091400A00110028483A19127819431300FF
S1131540DB009B189B00C3180433196026E0224972
S11315500F243B191A781300DB009B189B00CB184F
S113156008331B68BA68083A92000F2191400A00B8
S1131570D24313400E22BA181178BA68083A92007E
S113158091400A00110014483A19127819431300C3
S1131590DB009B189B00C318083319600E23FB184B
S11315A01B78002B13D17B68002B08D0BA680F235B
S11315B0FB181B7811001800FFF73AFF07E0BA6820
S11315C00F23FB181B7811001800FFF705FFC04616
S11315D0BD4605B090BDC0460060004080B582B0F5
S11315E000AF786039607B681B6C0122134006D120
S11315F0C0467B685B6C3A681340FAD100E0C04691
S1131600BD4602B080BD000080B586B000AFF86072
S1131610B9607A60BB68002B0BD1FB68144A934213
S113162022D1144B7B617B691800FFF739FA030060
S1131630BB60BB685B017968180000F05DFA0300C9
S11316403B613B69203B3B613B69DB003B613B69A0
S1131650094A13403B61FB6804211800FFF7BEFFF1
S1131660FB683A69DA6000E0C046BD4606B080BD5A
S11316700040084090071A00F87F000080B582B04F
S113168000AF78600A00FB1C1A70FB1C1B78002B4F
S113169008D0C0467B685B6C002BFBD17B680122C1
S11316A01A6402E07B6800221A64C046BD4602B098
S11316B080BD80B582B000AF786039607B6802215C
S11316C01800FFF78BFF7B680A225A607B680121B0
S11316D01800FFF7D3FF7B681B681C2293433A680A
S11316E0127B13433A68527B13433A68927B1A4342
S11316F07B681A603B6859683B689A687B68180085
S1131700FFF782FF3B681B781A007B685A607B688E
S113171000211800FFF7B2FFC046BD4602B080BDED
S113172080B582B000AF7860C0467B689B68202299
S11317301340FAD07B68DB69DBB21800BD4602B007
S113174080BD80B582B000AF78600A00FB1C1A70BF
S1131750C0467B689B6810221340FAD07B68402106
S11317601800FFF73BFFFB1C1A787B689A62C0469F
S1131770BD4602B080BD000080B582B000AF02005B
S1131780FB1D1A70FB1D1B787F2B09D8FB1D1B78D2
S11317901A001F231A40044B012191400A001A60C9
S11317A0C046BD4602B080BD00E100E080B582B015
S11317B000AF786039607B683A685A63C046BD46BA
S11317C002B080BD80B582B000AF786039607B68BC
S11317D09B6B3A68D2431A407B689A63C046BD4605
S11317E002B080BD80B582B000AF786039607B689C
S11317F09A6B3B681A437B689A63C046BD4602B045
S113180080BD80B582B000AF78607B68DB6A180069
S1131810BD4602B080BD80B582B000AF786039604B
S11318207B683A681A63C046BD4602B080BD0000BA
S113183080B500AF034BDB6C1B0EDBB21800BD465A
S113184080BDC046B081E00F90B583B000AF0C4BB3
S113185001221A64FC1DFFF7EBFF03002370FB1D3C
S11318601B78812B08D8074B074A1A60074B1A6864
S1131870064B07490A401A60C046BD4603B090BDF6
S113188000000C4018600C4005000004E4800C408B
S1131890FFFFFFFE80B500AF094B01211800FFF7E1
S11318A0A7F80123042204210320FFF7EDFD002300
S11318B0012205210320FFF7E7FDC046BD4680BD98
S11318C00082040090B585B000AF174B01211800C9
S11318D0FFF78EF8154B02211800FFF7ABFA144BF3
S11318E001211800FFF784F8114B01211800FEF7BD
S11318F0C7FF3B000F4A13CA13C312681A603B00A8
S11319000D4A19001000FFF7D4FE0B4B03225A6551
S1131910094B05211800FFF765FF0A20FFF72CFF8C
S1131920C046BD4605B090BDD0233E000300200054
S113193090071A003C1E00000040084090B583B098
S113194000AF324B1800FFF75CFF03007B607B683D
S11319502E4A19001000FFF729FF7B680422134068
S113196032D02CE0FC1C294B1800FFF7D9FE0300F1
S11319702370274B1B684D2B0DD8FB1C1B780A2B9F
S113198009D0234B1B68591C214A1160214AF91CB8
S11319900978D15413E01E4B1B68591C1C4A116072
S11319A01C4A0A21D1541A4B1B681A4A0021D154EB
S11319B0194B01221A60164B00221A6004E0134BE3
S11319C09B6820221340CDD17B680122134019D09B
S11319D0124B1B684F2B12D8104B1B68104AD35C58
S11319E0002B0CD00D4B1B68591C0C4A11600C4A7F
S11319F0D35C064A19001000FFF7A3FE02E0074B70
S1131A0000221A60C046BD4603B090BD00400840A5
S1131A1050010020B0000020AC0000205401002040
S1131A200001002080B586B000AFFFF70DFFFFF77F
S1131A3031FFFFF747FF3B1D2A4A03CA03C312883D
S1131A401A8000237B610BE03A1D7B69D318197857
S1131A50254A7B69D3180A1C1A707B6901337B61A0
S1131A603A1D7B69D3181B78002BEDD11F4B012144
S1131A701800FFF7D0FE1E4B1B68002B2DD01B4B0C
S1131A8005211800FFF79EFE00233B610CE0194A74
S1131A903B69D3181B78D9B2134A3B69D3180A1C83
S1131AA01A703B6901333B61124A3B69D3181B78B6
S1131AB0DBB2002BEBD10C4A3B69D31800221A701D
S1131AC00B4B00221A60094B05211800FFF78AFE10
S1131AD0064B01211800FFF79EFE0020FFF71CFCB7
S1131AE0C9E7C0464C1E0000000100200040084029
S1131AF0AC000020B0000020002243088B4274D3C5
S1131B0003098B425FD3030A8B4244D3030B8B42FA
S1131B1028D3030C8B420DD3FF22090212BA030C03
S1131B208B4202D31212090265D0030B8B4219D3E4
S1131B3000E0090AC30B8B4201D3CB03C01A524104
S1131B40830B8B4201D38B03C01A5241430B8B424C
S1131B5001D34B03C01A5241030B8B4201D30B0335
S1131B60C01A5241C30A8B4201D3CB02C01A52415C
S1131B70830A8B4201D38B02C01A5241430A8B421F
S1131B8001D34B02C01A5241030A8B4201D30B0208
S1131B90C01A5241CDD2C3098B4201D3CB01C01A22
S1131BA0524183098B4201D38B01C01A524143092C
S1131BB08B4201D34B01C01A524103098B4201D31A
S1131BC00B01C01A5241C3088B4201D3CB00C01A87
S1131BD0524183088B4201D38B00C01A52414308FF
S1131BE08B4201D34B00C01A5241411A00D2014624
S1131BF0524110467047FFE701B5002000F006F897
S1131C0002BDC0460029F7D076E770477047C0464A
S1131C101C2101231B04984201D3000C10391B0A18
S1131C20984201D3000A08391B09984201D30009DC
S1131C30043902A2105C40187047C0460403020233
S1131C40010101010000000000000000084B10B574
S1131C500400002B02D0002100E000BF054B1868EF
S1131C60836A002B00D09847200000F031F8C0466A
S1131C7000000000581E000070B500260C4D0D4CED
S1131C80641BA410A64209D1002600F023F80A4DD3
S1131C900A4C641BA410A64205D170BDB300EB58D6
S1131CA098470136EEE7B300EB5898470136F2E760
S1131CB0800000208000002080000020840000209C
S1131CC003008218934200D1704719700133F9E779
S1131CD0FEE7C046F8B5C046F8BC08BC9E4670474F
S1131CE0F8B5C046F8BC08BC9E467047000000002A
S1131CF001B40248844601BC604700BF7100002063
S1131D0060080000B40700006008000060080000DC
S1131D10C40700006008000060080000DC07000041
S1131D201008000038080000600800006008000087
S1131D3060080000F4070000CC090000A8080000B7
S1131D40CC090000CC090000DE080000CC0900002A
S1131D50CC0900002A090000680900009A09000063
S1131D60CC090000CC090000CC09000006090000E1
S1131D70780A00001E0A0000240A0000180A000065
S1131D80780A0000780A00002A0A0000340A0000D9
S1131D903E0A0000780A00004A0A0000100E000003
S1131DA0700C0000DE0C00002E0D00007E0D000003
S1131DB0100E0000B00D0000BA0D000082100000EB
S1131DC082100000A80E0000B60E0000C40E000031
S1131DD0D20E000082100000821000008210000069
S1131DE08210000082100000E00E0000821000004B
S1131DF086100000380F00003E0F00004E0F000058
S1131E0086100000861000005E0F0000861000009F
S1131E108610000086100000861000008610000066
S1131E20700F0000181100000A110000EE100000ED
S1131E30E0100000FC1000002A1100000500000062
S1131E4000000000802500000000000057454C43BE
S1131E504F4D450D0A000000100000200000000056
S10B1E607CE2FF7F0100000099
S1131E6800366E0100800000809FD500006CDC0203
S1131E780000000000000000000000000000000056
S1131E880000000000000000000000000000000046
S1131E980000000000000000000000000000000036
S1131EA80000000000000000000000000000000026
S1131EB80000000000000000000000000000000016
S1131EC80000000000000000000000000000000006
S1131ED880B500AF30BF04231B68C046BD4680BD33
S10B1EE8BD000000950000009C
S903015D9E
