S0250000534C53544B33343030415F45464D333248475F6C65756172745F6563686F2E73333721
S1130000002000201D21000049210000492100009A
S11300104921000049210000492100004921000034
S11300204921000049210000492100004921000024
S11300304921000048210000492100004921000015
S11300404921000049210000492100004921000004
S113005049210000492100004921000049210000F4
S11300604921000049210000FD030000492100004E
S113007049210000492100004921000049210000D4
S113008049210000492100004921000049210000C4
S11300904921000010B5064C2378002B07D1054BED
S11300A0002B02D0044800E000BF0123237010BDE0
S11300B09400002000000000F83A0000044B10B542
S11300C0002B03D00349044800E000BF10BDC04624
S11300D00000000098000020F83A0000402292023C
S11300E09A1A92467047C046174B002B00D1134B07
S11300F09D46FFF7F3FF00218B460F461348144A31
S1130100121A02F0E3F90E4B002B00D098470D4B66
S1130110002B00D098470020002104000D000D485A
S1130120002802D00C4800E000BF02F0A1F9200032
S1130130290000F06DFD02F085F9C04600000800BA
S113014000000000000000000020002094000020B7
S113015060030020000000000000000080B582B0B1
S113016000AF0200FB1D1A70FB1D1B787F2B09D802
S1130170FB1D1B781A001F231A40044B01219140D8
S11301800A001A60C046BD4602B080BD00E100E02E
S113019080B582B000AF786039607B683A685A6392
S11301A0C046BD4602B080BD80B582B000AF786065
S11301B039607B689B6B3A68D2431A407B689A63C8
S11301C0C046BD4602B080BD80B582B000AF786045
S11301D039607B689A6B3B681A437B689A63C046B4
S11301E0BD4602B080BD80B582B000AF78607B6848
S11301F0DB6A1800BD4602B080BD80B582B000AF96
S1130200786039607B683A681A63C046BD4602B0BC
S113021080BD000080B500AF034BDB6C1B0EDBB26E
S11302201800BD4680BDC046B081E00F90B583B0D4
S113023000AF0C4B01221A64FC1DFFF7EBFF030017
S11302402370FB1D1B78812B08D8074B074A1A60C3
S1130250074B1A68064B07490A401A60C046BD4658
S113026003B090BD00000C4018600C400500000471
S1130270E4800C40FFFFFFFE80B582B000AF7860E1
S11302800F4B1B68632B04D10E4B180002F0CEF900
S113029011E00D4B1B68013302D10B4B00221A6095
S11302A0074B1B685A1C064B1A60054B1A68074B10
S11302B092007968D150C046BD4602B080BDC046A8
S11302C0040000208038000000000020B00000205E
S11302D080B500AF074B1B68013305D0054B1A6886
S11302E0054B1B689A4201DD012300E0002318003E
S11302F0BD4680BD000000200400002080B582B00F
S113030000AF104B1B68013305D00E4B1A680E4B1F
S11303101B689A4206DD0D4B180002F087F9012094
S113032002F090F8074B1A68094B9200D3587B608F
S1130330044B1B685A1C034B1A607B681800BD46AB
S113034002B080BD000000200400002090380000AE
S1130350B000002080B500AF094B0121180001F066
S113036019F8012304220421032001F05FFD002376
S113037001220521032001F059FDC046BD4680BD80
S11303800082040090B585B000AF174B012118001E
S113039001F000F8154B0221180001F01DFA144B6E
S11303A00121180000F0F6FF114B0121180000F0A4
S11303B039FF3B000F4A13CA13C312681A603B008B
S11303C00D4A1900100001F046FE0B4B03225A653A
S11303D0094B05211800FFF7F7FE0A20FFF7BEFEC0
S11303E0C046BD4605B090BDD0233E0003002000AA
S11303F090071A00A43800000040084090B583B06C
S113040000AF324B1800FFF7EEFE03007B607B6801
S11304102E4A19001000FFF7BBFE7B68042213402C
S113042032D02CE0FC1C294B180001F04BFE0300D9
S11304302370274B1B684D2B0DD8FB1C1B780A2BF4
S113044009D0234B1B68591C214A1160214AF91C0D
S11304500978D15413E01E4B1B68591C1C4A1160C7
S11304601C4A0A21D1541A4B1B681A4A0021D15440
S1130470194B01221A60164B00221A6004E0134B38
S11304809B6820221340CDD17B680122134019D0F0
S1130490124B1B684F2B12D8104B1B68104AD35CAD
S11304A0002B0CD00D4B1B68591C0C4A11600C4AD4
S11304B0D35C064A1900100001F015FE02E0074B58
S11304C000221A60C046BD4603B090BD00400840FB
S11304D03C0300209C0200209802002040030020DE
S11304E0EC02002080B584B000AF7860102001F0E9
S11304F0E3FF0300FB60FB687A681A60FB68002274
S1130500DA60FB681800BD4604B080BD80B584B0D5
S113051000AF7860082001F0CFFF0300BB60BB6828
S11305207A681A607B689B00180001F0C5FF03001D
S11305301A00BB685A600023FB6009E0BB685A6874
S1130540FB689B00D31800221A60FB680133FB6030
S1130550FA687B689A42F1DBBB681800BD4604B0B8
S113056080BD80B586B000AFF860B9607A603B604A
S11305707B681800FFF7B6FF03007B617B690433D7
S11305803A681100180002F09DF8FB685A68BB68CD
S11305909B00D3181A687B69DA60FB685A68BB68E9
S11305A09B00D3187A691A60BB681800FFF79AFF9A
S11305B003003B613B6904333A6A1100180002F0FE
S11305C081F8FB685A687B689B00D3181A683B69FA
S11305D0DA60FB685A687B689B00D3183A691A6032
S11305E0C046BD4606B080BDF0B5ABB000AF78667E
S11305F03966FA65BB656B461E00DB4B5022002151
S1130600180001F063FFFB6D002B0ADBBB6D002BB0
S113061007DB3A6EFB6D9A4203DD3A6EBB6D9A427C
S113062005DCD24B180002F001F8B546D2E1FB6DAF
S11306308422BA1813603A6E531E802179180B6015
S11306401300BB620023FB62B86AF96A0300DB0E85
S11306509C460B005D0163461D4303005C011300CF
S11306603B6200237B62386A796A0300DB0E0C006C
S113067064017C657C6D1C437C6503005B013B6508
S113068013009B000733DB08DB006A46D31A9D4640
S11306906B4603339B089B00FB673A6E531EBB6794
S11306A01300BB610023FB61B869F9690300DB0E29
S11306B00C006401FC64FC6C1C43FC6403005B01DF
S11306C0BB6413003B6100237B61386979690300D3
S11306D0DB0E0C0064017C647C6C1C437C640300B2
S11306E05B013B6413009B000733DB08DB006A46B5
S11306F0D31A9D466B4603339B089B007B673B6E76
S11307005A1E3A671A00BA600022FA60B868F9689B
S11307100200D20E0C006401FC63FC6B1443FC6306
S113072002005201BA631A003A6000227A60386803
S113073079680200D20E0C0064017C637C6B144364
S11307407C63020052013A639B000733DB08DB0041
S11307506A46D31A9D466B4603339B089B00FB668F
S113076000238822BA18136000238C22BA1813605D
S11307701DE0FB6F8C22BA181268920001214942D5
S1130780D150FB6E8C22BA181268920001214942A2
S1130790D1507B6F8C22BA18126892000021D1507C
S11307A08C23FB181B6801338C22BA1813608C232A
S11307B0FB181A683B6E9A42DBDB00239022BA18BE
S11307C013600EE06A4B9022BA181268920001215D
S11307D04942D1509023FB181B6801339022BA1868
S11307E013609023FB181B68122BEBDD8423FB188A
S11307F01B681800FFF740FDE6E0FFF77FFD0300EC
S11308008422BA1813607B6F8422BA18126892008B
S1130810D358012B00D1D7E07B6F8422BA18126819
S113082092000121D1507B6E5A688423FB181B6807
S11308309B00D3181B689422BA1813608423FB18F6
S11308401A68BB6D9A4200D0B9E0BB6D9822BA1801
S1130850136000239C22BA1813601EE09823FB182F
S11308601A68FB6D9A421FD0FB6E9C22BA1812685C
S11308709200982179180968D150FB6F9822BA1810
S113088012689200D3589822BA1813609C23FB185C
S11308901B6801339C22BA1813609C23FB181A6846
S11308A03B6E9A42DADB00E0C0460023A022BA186D
S11308B0136015E0FB6EA022BA1812689200D35898
S11308C0013306D08823FB181B6801338822BA1829
S11308D01360A023FB181B680133A022BA1813600D
S11308E0A023FB181A683B6E9A42E3DB0023A42280
S11308F0BA1813601FE0A423FB181B68002B03D154
S11309001B4BFA6D1A600FE08823FB181A68A423A6
S1130910FB181B68D21AFB6E9200D158144BA42208
S1130920BA1812689200D150A423FB181B68013333
S1130930A422BA1813608823FB181A68A423FB188E
S11309401B689A42D7DA01E0FFF7D8FCFFF7C0FC36
S1130950031EF9D0074B012252421A60064B0122B2
S113096052421A6035E0C046EC020020E83800002C
S11309704002002000000020040000209423FB1803
S11309801B681A68FB6F9200D358013309D1942372
S1130990FB181B681A68FB6F920084217918096898
S11309A0D1509423FB181B681B681800FFF764FCE4
S11309B09423FB181B68DB689422BA1813609423F1
S11309C0FB181B68002BD9D1FFF782FC031E00D152
S11309D013E7B546BD462BB0F0BDC04680B584B024
S11309E002AF13237B607B681800FFF78FFD0200C2
S11309F0824B1A60814B1868814A824B0093130022
S1130A0001220021FFF7ADFD7C4B18687D4A7C4B29
S1130A100093130002220121FFF7A3FD774B18680E
S1130A20774A774B0093130003220221FFF799FDC5
S1130A30724B1868724A724B00931300092200210A
S1130A40FFF78FFD6D4B18686D4A6D4B00931300D3
S1130A5007220221FFF785FD684B1868684A684B36
S1130A600093130004220321FFF77BFD634B1868F6
S1130A70634A644B0093130005220421FFF771FDC0
S1130A805E4B18685F4A5E4B0093130006220521F3
S1130A90FFF767FD594B1868594A594B00931300E7
S1130AA007220621FFF75DFD544B1868544A544B46
S1130AB00093130008220721FFF753FD4F4B1868DA
S1130AC04F4A4F4B0093130009220821FFF749FDB9
S1130AD04A4B18684A4A4A4B009313000E220421D9
S1130AE0FFF73FFD454B1868454A454B00931300FB
S1130AF00D220621FFF735FD404B1868404A404B54
S1130B00009313000B220821FFF72BFD3B4B1868C1
S1130B103B4A3B4B009313000A220921FFF721FDB6
S1130B20364B1868364A364B009313000B220A21C1
S1130B30FFF717FD314B1868314A314B009313000E
S1130B400C220B21FFF70DFD2C4B18682C4A2C4B63
S1130B50009313000D220C21FFF703FD274B1868A7
S1130B60274A274B009313000E220D21FFF7F9FCAF
S1130B70224B1868224A224B009313000F220E21A5
S1130B80FFF7EFFC1D4B18681D4A1D4B0093130023
S1130B9012220A21FFF7E5FC184B1868184A184B73
S1130BA00093130010220C21FFF7DBFC134B186891
S1130BB0134A134B0093130010220F21FFF7D1FCAB
S1130BC00E4B18680E4A0F4B00931300112210218C
S1130BD0FFF7C7FC094B1868094A0A4B0093130036
S1130BE011221221FFF7BDFC074B0C221A60074BA0
S1130BF009221A60C046BD4602B080BD8C020020A6
S1130C0008390000103900009002002094020020EE
S1130C1080B582B000AFFFF709FBFFF79BFBFFF73E
S1130C20B1FBFFF7DBFE224B01211800FFF7E5FAC9
S1130C30204B1B68002B37D01D4B05211800FFF7F4
S1130C40B3FA1D4B18681D4B1A681D4B1B68132102
S1130C50FFF7CAFC00237B600BE01A4B7A68920012
S1130C60D358194A1949184801F00CFD7B6801331F
S1130C707B607B68122BF0D9134A154B11001800C6
S1130C8001F0D4FC7B68013B0F4A0021D154094B8D
S1130C9000221A60064B05211800FFF795FA044B51
S1130CA001211800FFF7A9FA002001F007F8BFE7B7
S1130CB000400840980200208C020020900200208E
S1130CC09402002040020020EC02002018390000A9
S1130CD02039000080B582B000AF786001227B68C3
S1130CE09A4013001800BD4602B080BD80B586B09E
S1130CF000AFF860B9607A60FB681B687B61012211
S1130D00BB689A401300DB431A007B691A407B6876
S1130D1001211940BB6899400B001A43FB681A6013
S1130D20C046BD4606B080BD80B582B000AF7860D5
S1130D3039607B681A683B68DA401300012213406B
S1130D401800BD4602B080BD80B584B000AF7860A5
S1130D507B68002B00D0C046786801F055FB030087
S1130D60DBB21A001F239B1AFB60FB681800BD4608
S1130D7004B080BD80B500AF034BDB6C1B0EDBB24F
S1130D801800BD4680BDC046B081E00F80B582B07A
S1130D9000AF254B5A69E023DB001340E022D20068
S1130DA0934236D0E022D200934235D8C02292003A
S1130DB0934212D0C022920093422DD880229200F6
S1130DC0934215D080229200934225D8002B1DD047
S1130DD080225200934216D01EE0FFF7CBFF03009F
S1130DE0122B02D9114B7B6019E0114B7B6016E08A
S1130DF0FFF7C0FF0300122B02D90E4B7B600EE0FD
S1130E000D4B7B600BE00D4B7B6008E00C4B7B6073
S1130E1005E00C4B7B6002E000237B60C0467B68EE
S1130E201800BD4602B080BD00800C40804F120007
S1130E3040420F0040B56400C0CF6A00C0D8A7008C
S1130E40809FD500406F400190B583B000AFFC1C7B
S1130E500E4B180000F0C8FB03002370FB1C1B782A
S1130E60072B06D0092B09D101F094F903007B600C
S1130E7007E0FFF78BFF03007B6002E000237B6049
S1130E80C0467B681800BD4603B090BD06000E0046
S1130E9080B584B000AF786039600F4B5B6807227F
S1130EA01340FB607B680D4A934202D80023FB6029
S1130EB005E07B680A4A934201D80123FB60064B94
S1130EC05B68072293431900034BFA680A435A608C
S1130ED0C046BD4604B080BD00000C400024F400B0
S1130EE00048E80180B582B000AF0D4BDA6BFB1D02
S1130EF0511E8A411A700A4B0A4ADA6301F042F918
S1130F00030000211800FFF7C3FFFB1D1B78002B13
S1130F1002D0034B0022DA63C046BD4602B080BD56
S1130F2000000C40711B000090B585B000AF7860E4
S1130F3039600D4BDA6B0F243B19511E8A411A702C
S1130F40094B0A4ADA633A687B6811001800FFF714
S1130F509FFF3B191B78002B02D0034B0022DA635E
S1130F60C046BD4605B090BD00000C40711B00009A
S1130F7080B584B000AF78600023BB607B683E4AD4
S1130F80934203D07B683C4A934201D8C04600E0B8
S1130F90C0467B68180000F027FB0300FB607B68F9
S1130FA0354A934219D07B68334A93421CD87B68F4
S1130FB0324A934204D07B68314A934206D013E00C
S1130FC0304B9B6A03221340FB600EE02D4B9B6A5F
S1130FD09B0803221340FB6007E02A4B9B6A1B0912
S1130FE003221340FB6000E0C046FB68032B18D0CB
S1130FF0FB68032B36D8FB68022B0DD0FB68022B51
S113100030D8FB68002B12D0FB68012B2AD101F0E9
S113101057F90300BB6029E001F060F90300BB60ED
S113102024E001F093F803005B08BB601EE000239A
S1131030BB607B68114A934203D07B68104A934299
S113104013D1104B9A6A7B680C498B4201D110234F
S113105000E01423DA40131E07D001F038F903002E
S1131060BB6002E00023BB6000E0C046BB68180020
S1131070BD4604B080BDC0460400220002001E002C
S11310800300200000800C4080B582B000AF78607F
S1131090074B5B6D0122134006D1C046044B1B6D08
S11310A07A681340FAD100E0C046BD4602B080BD64
S11310B000800C4090B583B000AFFC1C164B1800A8
S11310C000F092FA03002370FB1C1B780A2B12D049
S11310D01ADC092B13D017DC022B02D0032B05D00A
S11310E012E001F0FBF803007B6010E001F0E8F887
S11310F003007B600BE0094B1B687B6007E001F099
S113110049F803007B6002E000237B60C0467B68F3
S11311101800BD4603B090BD073326000800002028
S113112080B500AFC046BD4680BD80B500AFC046A7
S1131130BD4680BD80B584B000AF78607B681B0974
S11311400F221340BB60BB680D2B5BD8BB689A00B1
S1131150304BD3181B689F462F4B1B689B0B0722F1
S113116013400133FB6050E02B4B9B680F2213406C
S1131170FB60FB681800FFF7ADFD0300FB6044E073
S1131180254B5B680F221340FB60FB681800FFF7D8
S1131190A1FD0300FB6038E01F4B5B681B0A0122C2
S11311A01340FB60FB6801331800FFF793FD030055
S11311B0FB602AE07B68194A93420BD1164B9B6E65
S11311C00F221340FB60FB681800FFF783FD030048
S11311D0FB6002E00123FB60C04616E07B68104A16
S11311E093420BD10C4B1B6F03221340FB60FB6833
S11311F01800FFF76FFD0300FB6002E00123FB60B2
S1131200C04602E00123FB60C046FB681800BD46EF
S113121004B080BD2439000000800C408006120018
S113122090071A0080B584B000AF786039607B689D
S11312301B090F221340FB60FB680D2B00D997E0BC
S1131240FB689A004D4BD3181B689F463B68002BE4
S113125000D0C046FFF746FE494B1B68494A13407D
S113126019003B68013B9A03454B0A431A6000F09E
S11312706DFF0300BB60BB6800211800FFF754FE3C
S113128077E03B68002B00D0C0463B681800FFF7AE
S11312905BFD03003B603A4B9B680F2293431900AC
S11312A0374B3A680A439A6063E03B681800FFF7DB
S11312B04BFD0300013B3B60314B5B68324A1340FA
S11312C019003B681A022E4B0A435A6051E03B68EE
S11312D0002B00D0C046FFF705FE3B681800FFF75F
S11312E033FD03003B60264B5B680F2293431900D8
S11312F0234B3A680A435A6000F028FF0300BB609E
S1131300BB6800211800FFF70FFE32E07B681F4A1C
S1131310934212D10420FFF7B7FE3B681800FFF791
S113132013FD03003B60164B9B6E0F229343190081
S1131330134B3A680A439A6600E0C04619E07B689A
S1131340134A934212D14020FFF79EFE3B681800D7
S1131350FFF7FAFC03003B60094B1B6F0322934326
S11313601900074B3A680A431A6700E0C04600E0D8
S1131370C046C046BD4604B080BDC0465C390000CE
S113138000800C40FF3FFEFFFFFEFFFF80061200BF
S113139090071A0080B586B000AF78600A00FB1C85
S11313A01A7000233B617B681B0A0F2213400A2B2F
S11313B034D89A001B4BD3181B689F461A4B7B6189
S11313C018E01A4B7B6115E0194B7B6112E0194B55
S11313D07B6101233B610DE0174B7B6110233B6173
S11313E008E0164B7B6180235B003B6102E0144BF9
S11313F07B61C0467B681B0B1F221340FB603B696B
S1131400002B03D03B691800FFF73EFEFB1C1A7843
S1131410F9687B691800FFF769FC00E0C046BD4627
S113142006B080BD9439000040800C4008800C4018
S113143044800C4058800C4060800C4064800C4018
S113144078800C4090B585B000AF78607A68F82356
S11314509B031340F8229203934200D1A6E0F822A2
S11314609203934200D9B0E098229203934200D1B0
S113147097E098229203934200D9A6E08022920337
S1131480934200D16DE080229203934200D99CE004
S1131490F022520393424ED0F0225203934200D9D9
S11314A093E0D0225203934262D0D022520393425B
S11314B000D98AE090225203934243D090225203EF
S11314C0934200D981E080225203934264D0802267
S11314D05203934200D978E0E0221203934256D09B
S11314E0E0221203934200D96FE08022D202934299
S11314F00FD08022D202934267D8002B04D08022DE
S11315009202934212D060E000F044FE0300FB60BC
S11315105EE000F03FFE0300FB60304B9B680F224F
S11315201340FA68DA401300FB6051E000F00EFE4D
S11315300300FB604CE02A4B1800FFF719FD030081
S1131540FB6045E0264B1800FFF712FD0300FB602B
S1131550224B9B6E0F221340FA68DA401300FB60A3
S113156036E0204B1800FFF703FD0300FB602FE07B
S11315701C4B1800FFF7FCFC0300FB60174B1B6FB0
S113158003221340FA68DA401300FB6020E0FFF7FF
S11315905BFC0300FB601BE0FFF7F8FB0300FB6050
S11315A016E0FFF787FD0300FB6011E000F0CEFDBD
S11315B004007B681800FFF7BDFD0300190020003C
S11315C000F096FE0300FB6002E00023FB60C046CF
S11315D0FB681800BD4605B090BDC04600800C40B5
S11315E002001E000300200080B584B000AF7860C4
S11315F00F23FB1801221A707B680F221340BB6073
S1131600BB68072B00D9D5E0BB689A006F4BD31891
S11316101B689F466E4BDB6A6E4A13408022D204DD
S1131620934223D08022D204934224D88022920170
S113163093420CD08022920193421CD88022120142
S113164093420ED080225201934205D013E00F231F
S1131650FB1802221A7013E00F23FB1803221A70DE
S11316600EE00F23FB1804221A7009E00F23FB1865
S11316700B221A7004E00F23FB1805221A70C046CF
S11316809DE0534B9B6A03221340032B0FD013D8C6
S1131690012B02D0022B05D00EE00F23FB180322EE
S11316A01A7015E00F23FB1802221A7010E00F23A2
S11316B0FB1806221A700BE0454B9A6A80235B02E2
S11316C0134004D00F23FB180C221A7000E0C0460C
S11316D075E03F4B9B6A0C2213400C2B0FD013D8A0
S11316E0042B02D0082B05D00EE00F23FB18032295
S11316F01A7015E00F23FB1802221A7010E00F2352
S1131700FB1806221A700BE0314B9A6A80235B03A4
S1131710134004D00F23FB180C221A7000E0C046BB
S11317204DE02B4B9B6A30221340102B02D0202B10
S113173005D009E00F23FB1803221A7009E00F23D8
S1131740FB1802221A7004E00F23FB1801221A70FE
S1131750C04634E00F23FB1807221A702FE01C4BFD
S1131760DA6AE023DB0213408022D20293420CD0D7
S11317708022D202934217D880225202934209D087
S11317808022920293420AD00EE00F23FB180A2211
S11317901A700EE00F23FB1802221A7009E00F23BF
S11317A0FB1803221A7004E00F23FB1801221A709D
S11317B0C04604E00F23FB1800221A70C0460F2312
S11317C0FB181B781800BD4604B080BDC03900006A
S11317D000800C40003C000480B588B000AF786005
S11317E00A00FB1C1A700323FB611B23FB18032252
S11317F01A7000233B617B680F221340FB60FB6877
S1131800072B00D1D2E0FB68072B00D909E1FB6864
S1131810042B00D1A1E0FB68042B00D901E1FB6893
S1131820012B09D0FB68002B00D1FAE0FB68023BD6
S1131830012B00D9F5E047E0FB1C1B780C2B00D9E9
S1131840F1E09A007D4BD3181B689F460423FB618B
S11318501B23FB1800221A701BE00323FB611B23CC
S1131860FB1801221A7014E00223FB611B23FB18EE
S113187002221A700DE00123FB611B23FB180322D3
S11318801A7006E00523FB611B23FB1805221A705E
S1131890C0461B23FB181B7801220121180000F00D
S11318A0D9F8FFF71FFBFFF73BFC654BFA695A6257
S11318B000F04CFC0300BB60BB6800211800FFF77C
S11318C033FBFFF732FCB5E0FB1C1B780C2B00D973
S11318D0ABE09A005B4BD3181B689F4600237B61E7
S11318E01DE001220121002000F0B4F802237B61F5
S11318F015E001220121012000F0ACF801237B61F5
S11319000DE0514B012202211800FFF7EFF90323E8
S11319107B6104E000237B6101233B61C046FB68DB
S1131920022B0CD1464B9B6A484A1A407B691A43E6
S113193011003B691A04424B0A439A627AE0404B15
S11319409B6A434A1A407B699B001A4311003B6916
S11319501A053B4B0A439A626CE0FB1C1B78032B71
S113196011D000DD63E0012B02D0022B03D05EE036
S113197000237B610FE001220121002000F06AF8BE
S113198002237B6107E001220121012000F062F8BB
S113199001237B61C0462A4B9B6A30229343190082
S11319A07B691A01264B0A439A6243E0FB1C1B78AD
S11319B00A2B25D03DDC022B02D0032B10D038E0BB
S11319C001220121002000F045F81D4B40225A62FB
S11319D0C0461B4BDA6A80235B021340F9D01FE038
S11319E001220121012000F035F8154B60225A62D2
S11319F0C046134BDA6A80239B021340F9D00FE0F0
S1131A0001220121052000F025F80D4B80225A62A5
S1131A10C0460B4BDA6A8023DB021340F9D0C04680
S1131A2008E0C04606E0C04604E0C04602E0C04606
S1131A3000E0C046BD4608B080BDC046E0390000A5
S1131A4000800C40143A000040800C40FCFFFEFF74
S1131A50F3FFEFFF90B587B000AF0400080011005A
S1131A60FB1D221C1A70BB1D021C1A707B1D0A1C54
S1131A701A70FB1D1B78052B4BD89A00274BD318E3
S1131A801B689F4601233B610223FB6001237B61AA
S1131A9026E004233B610823FB6003237B611FE0F2
S1131AA010233B612023FB6005237B6118E0402366
S1131AB03B618023FB6007237B6111E080235B0093
S1131AC03B6180239B00FB6009237B6108E080234A
S1131AD0DB003B6180231B01FB6016237B61C04656
S1131AE0BB1D1B78002B10D00D4B3A691A627B1D6D
S1131AF01B78002B0ED0C0467B690A4A19001000DF
S1131B00FFF712F9031EF7D004E0054BFA681A62D6
S1131B1000E0C046BD4607B090BDC046483A00004C
S1131B2000800C402C800C4080B582B000AFEFF3F5
S1131B3010833B603B687B6072B6C0467B681800CC
S1131B40BD4602B080BD80B582B000AF78607B68CE
S1131B50002B01D162B6C046C046BD4602B080BD6E
S1131B6080B500AF00F0F2FAC046BD4680BD00006B
S1131B7080B500AF034A84230021D150C046BD463E
S1131B8080BDC04600800C4080B500AF034A84236A
S1131B900349D150C046BD4680BDC04600800C40BC
S1131BA00E58000080B584B000AF0200FB1D1A700F
S1131BB0FB1D1B78002B0BD1304BDA6A304B1A60BB
S1131BC01120FFF711FD03001A002E4B1A7050E08C
S1131BD02A4A8423D35801221340FB60FFF7D4FF21
S1131BE00023BB60264B1B6801221340BA681343D1
S1131BF0BB60234B1B6810221340BA681343BB60BD
S1131C001F4B1B6840221340BA681343BB601C4B34
S1131C101B6804221340BA681343BB60184B1A684C
S1131C2080235B001340BA681343BB60144B1B68EA
S1131C30DA0A8023DB001340BA681343BB600F4BFE
S1131C40BA681A620F4B1B78052B05D00D4B1B7815
S1131C5019001120FFF7C0FD094B1B680122134036
S1131C6002D1064B02221A62FB68002B01D0FFF757
S1131C707FFFC046BD4604B080BDC04600800C4016
S1131C80440300204803002080B500AF012318005E
S1131C90BD4680BD80B500AFC046BD4680BD80B5A1
S1131CA000AFC046BD4680BD80B500AFC046BD464E
S1131CB080BD80B500AFC046BD4680BDB0B586B01E
S1131CC000AF0200FB1D1A70FB1D1B78002B02D015
S1131CD00020FFF767FF264B1A69254B04210A43AE
S1131CE01A6117257C19FFF7CFFF030023707B19B6
S1131CF01B78002B0BD01F4B1B681F4A1A4008206F
S1131D003B181A601B493B181B6880228B50FFF755
S1131D10C1FFFFF7C4FFFFF707FF03003B6101F0BA
S1131D20A7FD3B691800FFF70EFFFFF7C2FFFFF79F
S1131D30BBFF1723FB181B78002B04D00D4A082384
S1131D40FB181B681360FB1D1B78002B02D00120BD
S1131D50FFF728FFFB1D1B7801225340DBB2002B49
S1131D6001D0FFF7FDFEC046BD4606B0B0BDC0467B
S1131D7000ED00E000E100E094A3F7FF80B582B03D
S1131D8000AF02003960FB1D1A70FB1D1B78002B8D
S1131D900DD0FB1D1B78012B09D0FB1D1B78022BDA
S1131DA005D0FB1D1B78032B01D0FB1D1B780848B5
S1131DB0FB1D1A7801213B6899401300DB009B1836
S1131DC09B00C31814331960C046BD4602B080BDE1
S1131DD00060004080B582B000AF02003960FB1D96
S1131DE01A70FB1D1B78002B0DD0FB1D1B78012BDB
S1131DF009D0FB1D1B78022B05D0FB1D1B78032B80
S1131E0001D0FB1D1B780848FB1D1A7801213B6893
S1131E1099401300DB009B189B00C3181033196012
S1131E20C046BD4602B080BD0060004090B585B09C
S1131E3000AFB96011007B600F243B19021C1A70BB
S1131E400E23FB180A1C1A702200BB181B78002BE7
S1131E500DD0BB181B78012B09D0BB181B78022BA3
S1131E6005D0BB181B78032B01D0BB181B780E239D
S1131E70FB181B78002B13D07B68002B08D0BA68A2
S1131E800F23FB181B7811001800FFF7A3FF07E0CE
S1131E90BA680F23FB181B7811001800FFF76EFFB8
S1131EA0BB68072B25D835490F243B191A78130032
S1131EB0DB009B189B00CB1804331B68BA689200A4
S1131EC00F2191400A00D24313400E22BA18117810
S1131ED0BA68920091400A00110028483A19127811
S1131EE019431300DB009B189B00C31804331960CB
S1131EF026E022490F243B191A781300DB009B18B3
S1131F009B00CB1808331B68BA68083A92000F216B
S1131F1091400A00D24313400E22BA181178BA68CD
S1131F20083A920091400A00110014483A191278B4
S1131F3019431300DB009B189B00C3180833196076
S1131F400E23FB181B78002B13D17B68002B08D0C1
S1131F50BA680F23FB181B7811001800FFF73AFF2B
S1131F6007E0BA680F23FB181B7811001800FFF76D
S1131F7005FFC046BD4605B090BDC04600600040A8
S1131F8080B582B000AF786039607B681B6C012239
S1131F90134006D1C0467B685B6C3A681340FAD1A3
S1131FA000E0C046BD4602B080BD000080B586B0EA
S1131FB000AFF860B9607A60BB68002B0BD1FB6896
S1131FC0144A934222D1144B7B617B691800FFF7BA
S1131FD039FA0300BB60BB685B017968180000F044
S1131FE087F903003B613B69203B3B613B69DB00B4
S1131FF03B613B69094A13403B61FB6804211800BB
S1132000FFF7BEFFFB683A69DA6000E0C046BD46F0
S113201006B080BD0040084090071A00F87F000019
S113202080B582B000AF78600A00FB1C1A70FB1CFC
S11320301B78002B08D0C0467B685B6C002BFBD15F
S11320407B6801221A6402E07B6800221A64C0469D
S1132050BD4602B080BD80B582B000AF7860396003
S11320607B6802211800FFF78BFF7B680A225A6005
S11320707B6801211800FFF7D3FF7B681B681C22D3
S113208093433A68127B13433A68527B13433A688A
S1132090927B1A437B681A603B6859683B689A686C
S11320A07B681800FFF782FF3B681B781A007B6887
S11320B05A607B6800211800FFF7B2FFC046BD4696
S11320C002B080BD80B582B000AF7860C0467B6846
S11320D09B6820221340FAD07B68DB69DBB21800CE
S11320E0BD4602B080BD80B582B000AF78600A0002
S11320F0FB1C1A70C0467B689B6810221340FAD000
S11321007B6840211800FFF73BFFFB1C1A787B68B3
S11321109A62C046BD4602B080BD000006488047B2
S11321200649074A074B9B1A03DD043BC858D050A5
S1132130FBDCFDF7D9FF0000A9220000043B0000EE
S11321400000002094000020FEE7C04680B582B065
S113215000AF00F01FF803007B60084B5B680F22A0
S113216013407A68DA4013007B60054B7A681A6082
S11321707B681800BD4602B080BDC04600800C409C
S11321801400002080B500AF014B1800BD4680BD8F
S113219000366E0180B582B000AF394BDB6A394A34
S11321A013408022D204934220D08022D20493424E
S11321B01FD88022920193420CD080229201934234
S11321C017D88022120193420CD0802252019342EC
S11321D004D00EE02C4B1B687B6041E080231B0283
S11321E07B603DE0294B1B687B6039E0284B7B60BA
S11321F036E0234BDA68E023DB0013408022D20070
S113220093421AD08022D200934225D8C022920051
S1132210934215D0C022920093421DD8802292008E
S1132220934210D080229200934215D8002B10D0F4
S113223080225200934209D00EE0164B7B600EE0E0
S1132240154B7B600BE0154B7B6008E0144B7B6007
S113225005E0144B7B6002E000237B60C046C0466F
S1132260074B1B689B0B0722134001331900786846
S113227000F03EF803001800BD4602B080BDC04621
S113228000800C40003C0004100000200C000020E2
S113229000366E01406F4001809FD500C0D8A70072
S11322A040B56400804F120080B500AF024B034A72
S11322B09A60C046BD4680BD00ED00E0000000000D
S11322C080B500AF80231B021800BD4680BD80B5D9
S11322D000AFFA239B001800BD4680BD80B500AF57
S11322E0024B1B681800BD4680BDC046100000208C
S11322F0002243088B4274D303098B425FD3030A41
S11323008B4244D3030B8B4228D3030C8B420DD353
S1132310FF22090212BA030C8B4202D312120902E1
S113232065D0030B8B4219D300E0090AC30B8B421F
S113233001D3CB03C01A5241830B8B4201D38B03CD
S1132340C01A5241430B8B4201D34B03C01A524172
S1132350030B8B4201D30B03C01A5241C30A8B42B5
S113236001D3CB02C01A5241830A8B4201D38B02A0
S1132370C01A5241430A8B4201D34B02C01A524144
S1132380030A8B4201D30B02C01A5241CDD2C309B6
S11323908B4201D3CB01C01A524183098B4201D332
S11323A08B01C01A524143098B4201D34B01C01A1D
S11323B0524103098B4201D30B01C01A5241C30895
S11323C08B4201D3CB00C01A524183088B4201D304
S11323D08B00C01A524143088B4201D34B00C01AF0
S11323E05241411A00D20146524110467047FFE75C
S11323F001B5002000F006F802BDC0460029F7D060
S113240076E770477047C0461C2101231B0498429D
S113241001D3000C10391B0A984201D3000A083971
S11324201B09984201D30009043902A2105C401828
S11324307047C046040302020101010100000000CC
S113244000000000084B10B50400002B02D000214E
S113245000E000BF054B1868836A002B00D0984742
S1132460200001F0EBF9C04600000000603A0000D3
S113247070B500260C4D0D4C641BA410A64209D166
S1132480002601F0E7F90A4D0A4C641BA410A64289
S113249005D170BDB300EB5898470136EEE7B300A1
S11324A0EB5898470136F2E78C0000208C0000209E
S11324B08C0000209000002010B5034B0100186828
S11324C000F056F810BDC046180000200300821822
S11324D0934200D1704719700133F9E770B50500D4
S11324E0002910D00C1F2368002B00DAE418280000
S11324F000F0F6F91D4A1368002B05D163601460DF
S1132500280000F0F5F970BDA34208D921686018CD
S11325108342F3D118685B6841182160EEE71A0022
S11325205B68002B01D0A342F9D911685018A0426E
S11325300BD120680918501811608342E0D1186843
S11325405B68411811605360DAE7A04202D90C239A
S11325502B60D5E721686018834203D118685B6853
S11325604118216063605460CAE7C0464C030020F0
S1132570F8B50323CD1C9D43083506000C2D1FD24E
S11325800C25A9421ED8300000F0AAF925490A6892
S11325901400002C1AD1244F3B68002B04D12100D5
S11325A0300000F05DF838602900300000F058F881
S11325B0431C2BD10C233000336000F099F903E065
S11325C0002DDEDA0C2333600020F8BD23685B1B8A
S11325D019D40B2B03D92360E418256003E0636846
S11325E0A2420ED10B60300000F082F920000722D5
S11325F00B30231D9043C21A9842E6D01B1AA350F5
S1132600E3E75360EFE722006468C2E70323C41CD6
S11326109C43A042E1D0211A300000F021F8431C71
S1132620DBD1C7E74C030020500300200FB40B4B51
S113263013B51C68002C05D0A369002B02D120001F
S113264000F0AAF805AB2000049AA168019300F0F9
S1132650E1FA16BC08BC04B01847C04618000020B4
S1132660002370B5064D040008002B6001F0D0F87B
S1132670431C03D12B68002B00D0236070BDC046DF
S1132680580300200EB400B50B499CB01DAB02905A
S11326900690079104910948094904CB0591006803
S11326A002A9019300F08EF90023029A13701CB062
S11326B008BC03B01847C046FFFFFF7F1800002086
S11326C00802FFFF03000A7801311A700133002A5F
S11326D0F9D17047002310B50400036043608360A0
S11326E0818143661900C2810361436183610822C9
S11326F05C30FFF7EBFE054B24626362044BA3627C
S1132700044BE362044B236310BDC0468D310000CB
S1132710B5310000ED3100001932000010B5024956
S113272000F0BAF810BDC0462535000070B5682524
S11327304A1E55430E0029007431FFF719FF041E89
S113274008D000212A00016046600C30A060683285
S1132750FFF7BCFE200070BD10B5024800F0BDF8C4
S113276010BDC0465503002010B5024800F0B6F86D
S113277010BDC0465503002010B5024800F0ADF866
S113278010BDC0465603002010B5024800F0A6F85C
S113279010BDC0465603002013B50400FFF7ECFF3C
S11327A0A369002B02D0FFF7EFFF13BDA364E3641A
S11327B02365134B134A1B68A2620193A34201D100
S11327C00123A361200000F01FF86060200000F0E6
S11327D01BF8A060200000F017F800220421E0603C
S11327E06068FFF777FF01220921A068FFF772FFF5
S11327F002221221E068FFF76DFF0123A361D2E7F3
S1132800603A00001D270000F8B50700FFF7A4FF99
S11328101F4B1E68B369002B02D13000FFF7BCFFC9
S11328204836B4687368013B04D53368002B22D062
S11328303668F6E70C22A55E002D1AD12000154B50
S11328405830E360656600F047F8FFF78DFF20001D
S1132850082229002560A560656025616561A56180
S11328605C30FFF733FE6563A563A564E56420006F
S1132870F8BD6834D7E704213800FFF757FF041E7A
S11328803060D5D1FFF770FF0C233B60EFE7C04603
S1132890603A00000100FFFFF7B5040006000027BE
S11328A0019148346368A5680093009B013B009341
S11328B004D52468002CF5D13800FEBDAB89012B6A
S11328C008D90E22AB5E013304D029003000019BED
S11328D0984707436835E8E770477047704700003A
S11328E010B50248FFF7F9FF10BDC046540300209D
S11328F010B50248FFF7F2FF10BDC0465403002094
S1132900F0B58E6885B007000C00039201939E42D7
S11329103CD890238A89DB001A4234D009692368A1
S113292060695B1A029303234343DD0FED18019B97
S1132930029801331B186D10AB4200D91D005305DA
S113294032D529003800FFF713FE061E09D10C23E7
S11329503B6040230120A28940421343A38105B078
S1132960F0BD029A216900F0A8FEA389144A1A4016
S113297080231343A381029B2661F61826606561B8
S1132980019EED1AA560019B9E4200D9019E320072
S11329900399206800F09AFEA36800209B1BA360A3
S11329A023689E192660DAE72A00380000F0A1FEA9
S11329B0061EE0D138002169FFF790FDC7E7C04645
S11329C07FFBFFFFF0B5A1B003901D008B890F00C2
S11329D016001B0611D50B69002B0ED14021FFF701
S11329E0C7FD38603861002805D10C23039A0138EB
S11329F0136021B0F0BD40237B61002308AC636108
S1132A00203363761033A376079535002B78002B9B
S1132A1001D0252B47D1AB1B0593B5420CD0320016
S1132A2039000398FFF76CFF431C00D1AEE06269E4
S1132A30059B9446634463612B78002B00D1A5E089
S1132A40012200235242626004A9543252186E1CBF
S1132A502360E360A3601370A365052231785448B2
S1132A6000F020FE751C00281FD12268D30604D56F
S1132A70532304A95B1820211970130704D5532389
S1132A8004A95B182B21197033782A2B16D0350032
S1132A9000210A20E3682A786E1C303A092A4ED9AC
S1132AA0002911D117E00135B0E7414B2268C01A63
S1132AB00123834013432E002360CEE7079B191D97
S1132AC01B680791002B01DB0B9304E05B42E3607E
S1132AD00223134323602B782E2B0AD16B782A2BE5
S1132AE035D1079B02351A1D1B680792002B2BDB7F
S1132AF00993304E03223000297800F0D3FD0028DA
S1132B0006D04023801B8340226801351343236091
S1132B102978062228486E1C217600F0C3FD00287F
S1132B203CD0264B002B25D10722079B0733934328
S1132B30083307936369049A9B18636165E7434309
S1132B40350001219B18A6E701235B42D0E700234F
S1132B500A201A000135636029786E1C303909296E
S1132B6003D9002BC5D00992C3E7424335000123A2
S1132B705218F1E707AB00933A002100104B039879
S1132B8000E000BF0490049B0133D3D1BB890D98AE
S1132B905B0600D42DE7012040422AE707AB0093EF
S1132BA03A002100064B039800F0DEF9EAE7C0463C
S1132BB0C43A0000CA3A0000CE3A00000000000007
S1132BC001290000936810B5013B9360002B04DADF
S1132BD09469A34207DB0A2905D01368581C1060C6
S1132BE01970080010BD00F01DFB0100F9E7F8B5ED
S1132BF006000F001400D518AC4201D1002007E0F4
S1132C0021783A003000FFF7DDFF0134431CF3D193
S1132C10F8BD0000F0B5A1B006000C001F0003923F
S1132C20002804D08369002B01D1FFF7B5FD8E4B3A
S1132C309C421CD17468636EDB0705D4A3899B0591
S1132C4002D4A06DFFF749FEA3891B0702D52369AF
S1132C50002B1DD12100300000F04EFB002817D0BE
S1132C60636EDB070DD50120404221B0F0BD7F4BE0
S1132C709C4201D1B468DEE77D4B9C42DBD1F46811
S1132C80D9E7A3899B05EED4A06DFFF727FEEAE7F9
S1132C90002308AD6B6120336B761033AB76079756
S1132CA0039F3B78002B01D0252B4ED1039BFB1AAD
S1132CB00593039B9F420DD0059B21003000039A8E
S1132CC0FFF795FF431C00D1B5E06A69059B944664
S1132CD063446B613B78002B00D1ACE001227B1C88
S1132CE00393002352426A6004A9543252182B60A1
S1132CF0EB60AB601370AB65039B052219785D48EC
S1132D0000F0D0FC039B5F1C002820D12A68D30666
S1132D1004D5532304A95B1820211970130704D583
S1132D20532304A95B182B211970039B1B782A2BAE
S1132D3016D00021EB68039F3A78781C303A844619
S1132D40092A4FD9002911D117E00137A9E7494BC6
S1132D502A68C01A0123834013432B600397CBE7EF
S1132D60079B191D1B680791002B01DB0B9304E0E3
S1132D705B42EB60022313432B603B782E2B0AD17A
S1132D807B782A2B37D1079B02371A1D1B680792C1
S1132D90002B2DDB099303223978374800F082FC9D
S1132DA0002807D0344B2A68C01A402383401343B9
S1132DB001372B6039787B1C06223048039329762F
S1132DC000F070FC002845D02D4B002B27D10722A2
S1132DD0079B07339343083307936B69049A9B1843
S1132DE06B615DE70A214B4367469B180939A3E7EA
S1132DF001235B42CEE700231A0001376B60397868
S1132E00781C30398446092903D9002BC3D0099290
S1132E10C1E70A235A4367465218093BEFE707AB59
S1132E200093220029003000164B00E000BF0490FC
S1132E30049B0133D1D1636EDB0705D4A3899B05C1
S1132E4002D4A06DFFF74AFDA3895B0600D50AE70B
S1132E500D980AE707AB0093220029003000094BC4
S1132E6000F082F8E3E7C046843A0000A43A000088
S1132E70643A0000C43A0000CA3A0000CE3A0000A6
S1132E8000000000EF2B0000F7B5150001938A68DD
S1132E900B690C000090934200DA130022002B60AF
S1132EA043321278002A01D001332B6023689B0639
S1132EB002D52B6802332B602268062317001F40BB
S1132EC01A4227D0230043331B785A1E93412268A9
S1132ED0920630D4220001990098089E4332B047EC
S1132EE0431C25D0062320682A68E1680025034096
S1132EF0042B03D18D1AEB43DB171D40A368226911
S1132F00934201DD9B1AED180027BD4220D1002019
S1132F1010E00137E3682A689B1ABB42D2DD220025
S1132F20012301990098089E1932B047431CF0D13F
S1132F3001204042FEBD3020E118433108702100D9
S1132F405A1C45310978A218433202331170C1E783
S1132F502200012301990098089E1A32B047431CAD
S1132F60E6D00137D1E70000F0B58BB006920A0035
S1132F7043320793059004920A7E0C00109B782A32
S1132F8007D8622A09D8002A00D1C1E0582A00D102
S1132F908CE026004236327022E010006338152897
S1132FA0F7D800F04DFC16001F00F6FFF6FFF6FF01
S1132FB0F6FF1F00F6FFF6FFF6FFF6FFA800360047
S1132FC09A00F6FFF6FFB900F6FF3600F6FFF6FFAB
S1132FD09E0026001A684236111D1960136833706A
S1132FE00123A7E0086819680A1D05060BD50D68BA
S1132FF01A60002D03DA2D23049A6D421370614B7D
S11330000A2703931BE00D681A604106F1D52DB21F
S1133010EFE70D681968081D18602E0601D50D68C4
S113302003E06D06FBD50D68ADB2564B082703933C
S11330306F2A00D002372300002243331A706368DA
S1133040A360002B03DB0422216891432160002D3F
S113305002D1049E002B0CD0049E28003900FFF7F7
S1133060CDF9039B013E5B5C33702B0005009F424E
S1133070F3D9082F09D12368DB0706D563682269D1
S1133080934202DC3023013E3370049B9B1B23617B
S1133090079B210000930598069B09AAFFF7F4FEFD
S11330A0431C4CD1012040420BB0F0BD45310A70A5
S11330B0344A03921A68216820CA1A60080616D591
S11330C0CB0702D52023194321601027002DB2D14C
S11330D0202322689A432260ADE7202209680A432C
S11330E022602200782145321170274AE1E7480620
S11330F0E6D5ADB2E4E71A680D68101D4969186099
S113310013682E0601D5196002E06D06FBD51980FF
S11331100023049E2361BBE71A68111D1960166819
S113312000213000626800F0BDFA002801D0801B45
S11331306060636823610023049A1370A8E723691D
S1133140320006990598079DA847431CAAD0236816
S11331509B0715D4099BE0689842A5DA1800A3E7F9
S11331602200012306990598079E1932B047431C93
S113317098D00135E368099A9B1AAB42F0DCE9E781
S11331800025F7E7D53A0000E63A000070B50C00D8
S11331900E25495F00F0D4FA002803DB636D1B1889
S11331A0636570BDA389024A1340A381F9E7C04651
S11331B0FFEFFFFFF8B51F008B8905000C00160018
S11331C0DB0505D50E23C95E0022022300F0EAF9CF
S11331D0A389054A28001340A38132000E23E15E2F
S11331E03B0000F075F8F8BDFFEFFFFF70B50C0071
S11331F00E25495F00F0D6F9A389421C03D1054A84
S11332001340A38170BD802252011343A3816065E2
S1133210F8E7C046FFEFFFFF10B50E23C95E00F0CC
S1133220E3F810BDF8B505000E001400002804D022
S11332308369002B01D1FFF7AFFA224B9C422ED1B8
S11332406C68A369A360A3891B0732D52369002B8B
S11332502FD023682269F7B2981A6369F6B28342C1
S113326005DC2100280000F05DF9002827D1A368BF
S11332700130013BA36023685A1C22601F706369FC
S1133280834204D0A389DB0707D50A2E05D1210088
S1133290280000F047F9002811D13000F8BD0A4B8E
S11332A09C4201D1AC68CCE7084B9C42C9D1EC6884
S11332B0C7E72100280000F01FF80028C9D0012624
S11332C07642EAE7843A0000A43A0000643A000037
S11332D070B50400080011001A000023054D2B608E
S11332E000F0A4FA431C03D12B68002B00D0236008
S11332F070BDC04658030020374B70B51D680600EA
S11333000C00002D05D0AB69002B02D12800FFF77B
S113331043FA324B9C420FD16C680C23E25E93B2A9
S113332011072DD4D90611D4092301203360373372
S11333301343A381404270BD294B9C4201D1AC6828
S1133340EBE7284B9C42E8D1EC68E6E75B0713D532
S1133350616B002908D023004433994202D0300025
S1133360FFF7BCF8002363632422A3899343A3815A
S113337000236360236923600823A2891343A38184
S11333802369002B0BD1A0218022A38989009200FC
S11333900B40934203D02100300000F03FF90C228F
S11333A0A35E01201A0099B2024003420FD000220A
S11333B0A26062695242A261002022698242BAD1AB
S11333C00A06B8D540221343A3810138B3E788071E
S11333D000D46269A260EFE718000020843A00007C
S11333E0A43A0000643A0000002370B5064D0400BE
S11333F008002B6000F0E4F9431C03D12B68002B78
S113340000D0236070BDC04658030020F7B58B89F7
S113341005000C001A075FD44A68002A04DC0A6C11
S1133420002A01DC0020FEBDE76A002FFAD000224A
S113343080212E682A601A0049010A400B4234D0C8
S1133440606DA3895B0706D56368C01A636B002BA4
S113345001D0236CC01A0200216A00232800E76A05
S1133460B847A189431C06D12B681D2B31D82C4A9F
S1133470DA40D3072DD50023636023692360CB048E
S113348005D5431C02D12B68002B00D16065616B0C
S11334902E600029C6D023004433994202D028006C
S11334A0FFF71CF800206063BDE701232800216AB0
S11334B0B847431CC5D12B68002BC2D01D2B01D0AB
S11334C0162B01D12E60ADE74023A2891343A381BB
S11334D0A9E740230B43FAE70F69002FA2D00A683B
S11334E00F60D21B019200229B0700D14A69A2609F
S11334F0019B002B00DC95E73A002800019B216A20
S1133500A66AB047002806DC40230120A289404275
S11335101343A38187E7019B3F181B1A0193E7E735
S1133520010040200B6970B505000C00002B02D18E
S11335300025280070BD002804D08369002B01D128
S1133540FFF72AF9144B9C421BD16C680C22A35E32
S1133550002BEDD0626ED20704D49B0502D4A06D7B
S1133560FFF7BBF928002100FFF750FF636E050049
S1133570DB07DED4A3899B05DBD4A06DFFF7AEF98E
S1133580D7E7064B9C4201D1AC68DFE7044B9C4271
S1133590DCD1EC68DAE7C046843A0000A43A0000C3
S11335A0643A000070B50400080011001A000023FA
S11335B0054D2B6000F01CF9431C03D12B68002B34
S11335C000D0236070BDC0465803002070B50E00C3
S11335D01D000E23C95E140096B0002908DA0C22DF
S11335E0B35E00222A601B0611D48023DB000FE0A7
S11335F06A4600F0B9F80028F1DBF02301991B02B8
S11336001940054BC9184B4259412960EDE7402345
S11336100020236016B070BD00E0FFFFF7B502265E
S11336208B8905000C00334206D023004733236006
S1133630236101236361F7BD6A4601ABFFF7C6FF4F
S1133640009907002800FEF793FF002808D10C22F8
S1133650A35E9A05EFD4032293431E43A681E4E7B5
S11336600F4BAB628023A28920601343A381009B8C
S113367020616361019B002B0DD028000E23E15EC5
S113368000F084F8002806D00322A38993431A008B
S113369001231343A381A0890743A781CBE7C04635
S11336A01D270000C9B28218904201D10020704742
S11336B003788B42FBD00130F6E7002310B59A4221
S11336C000D110BDCC5CC4540133F8E710B5884276
S11336D002D98B18984203D3002307E08B5C8354F0
S11336E0013AFBD210BDCC5CC45401339A42FAD1E6
S11336F0F8E7F8B507000D001600002905D1110000
S1133700FEF736FF04002000F8BD002A03D1FEF7BF
S1133710E5FE3400F7E700F04BF82C00B042F2D29B
S113372031003800FEF724FF041EECD029003200DB
S1133730FFF7C3FF29003800FEF7D0FEE3E70000DF
S113374070B50400080011001A000023054D2B6019
S113375000F056F8431C03D12B68002B00D02360E3
S113376070BDC04658030020002370B5064D040008
S1133770080011002B6000F02BF8431C03D12B68C8
S1133780002B00D0236070BD58030020002370B5C7
S1133790064D040008002B6000F022F8431C03D1FE
S11337A02B68002B00D0236070BDC0465803002056
S11337B00B1F1B68181F002B01DA0B58C018704729
S11337C058220120014B40421A60704758030020E0
S11337D058220120014B40421A60704758030020D0
S11337E05822024B00201A607047C046580300203C
S11337F058220120014B40421A60704758030020B0
S113380058220120014B40421A607047580300209F
S1133810044A03001068002802D0C31813607047DC
S11338200148FAE75C0300206003002058220120CD
S1133830014B40421A60704758030020FEE7C0461F
S113384003B47146490840004900095E49008E44AA
S113385003BC7047F8B5C046F8BC08BC9E46704728
S1133860F8B5C046F8BC08BC9E467047000000008E
S113387001B40248844601BC604700BF7D000020BB
S11338805175657565204F766572666C6F770A00B1
S1133890517565756520556E646572666C6F770A3F
S11338A0000000000500000000000000802500006A
S11338B0000000000A2041646A6163656E63792038
S11338C06C697374206F6620766572746578202540
S11338D0640A202564202825732920002D3E2025F4
S11338E0640000000A000000496E76616C6964207F
S11338F0737461727420616E6420656E6420696EF5
S1133900707574732E0A0000726F61640000000009
S11339106465737400000000257325642C000000A6
S11339202573000004120000581100000412000066
S113393004120000681100000412000004120000C8
S113394080110000B4110000DC110000041200001A
S1133950041200000412000098110000701300000B
S11339604C1200007013000070130000821200005B
S11339707013000070130000CE1200000C1300003E
S11339803E13000070130000701300007013000059
S1133990AA1200001C140000C2130000C813000087
S11339A0BC1300001C1400001C140000CE13000003
S11339B0D8130000E21300001C140000EE130000F2
S11339C0B41700001416000082160000D21600007E
S11339D022170000B4170000541700005E170000FF
S11339E0261A0000261A00004C1800005A1800007D
S11339F06818000076180000261A0000261A000035
S1133A00261A0000261A0000261A00008418000056
S1133A10261A00002A1A0000DC180000E218000030
S1133A20F21800002A1A00002A1A000002190000E5
S1133A302A1A00002A1A00002A1A00002A1A000072
S1133A402A1A000014190000BC1A0000AE1A000063
S1133A50921A0000841A0000A01A0000CE1A000076
S1133A601C00002000000000000000000000000016
S1133A700000000000000000000000000000000042
S1133A800000000000000000000000000000000032
S1133A900000000000000000000000000000000022
S1133AA00000000000000000000000000000000012
S1133AB00000000000000000000000000000000002
S1133AC000000000232D302B2000686C4C0065663C
S1133AD0674546470030313233343536373839415B
S1133AE04243444546003031323334353637383971
S10F3AF061626364656600000000000071
S10B3AFCE0C5FF7F010000009A
S1133B04FFFFFFFFFFFFFFFF006CDC0200366E01C6
S1133B1400800000809FD5001C00002000000000ED
S1133B24843A0000A43A0000643A00000000000053
S1133B34000000000000000000000000000000007D
S1133B44000000000000000000000000000000006D
S1133B54000000000000000000000000000000005D
S1133B64000000000000000000000000000000004D
S1133B7400000000000000000000000080B500AF59
S1133B8430BF04231B68C046BD4680BDBD00000091
S1073B949500000094
S903211DBE
