:1000000000000420C9010000F5010000F501000016
:10001000F5010000F5010000F5010000F501000008
:10002000F5010000F5010000F5010000F5010000F8
:10003000F5010000F4010000F5010000F5010000E9
:10004000F5010000F5010000F5010000F5010000D8
:10005000F5010000F5010000F5010000F5010000C8
:10006000F5010000F5010000F5010000F5010000B8
:100070002D47000065470000F5010000F501000074
:10008000F5010000F5010000F5010000F501000098
:10009000B1470000E94700008D300000F501000085
:1000A000F5010000F5010000F5010000F501000078
:1000B000F5010000F5010000F5010000F501000068
:1000C000F5010000F5010000F5010000F501000058
:1000D000F5010000F5010000F5010000F501000048
:1000E000354800006D480000F5010000B9480000E7
:1000F000F1480000F5010000F5010000F5010000E5
:10010000F5010000F5010000F501000010B5054CF7
:10011000237833B9044B13B10448AFF300800123B3
:10012000237010BD880000200000000080660000E1
:1001300008B5034B1BB103490348AFF3008008BD6A
:10014000000000008C00002080660000A3F5803ACB
:10015000704700BF174B002B08BF134B9D46FFF79E
:10016000F5FF00218B460F461348144A121A04F07B
:1001700071FD0E4B002B00D098470D4B002B00D08B
:1001800098470020002104000D000D48002802D0EF
:100190000C48AFF3008004F031FD2000290004F08A
:1001A0008BF804F017FD00BF0000080000000000FD
:1001B000000000000000042088000020B80D00208E
:1001C0000000000000000000064880470649074A7A
:1001D000074B9A42BEBF51F8040B42F8040BF8E7F4
:1001E000FFF7B8FFED0200008C6600000000002061
:1001F00088000020FEE700BF80B582B000AF00F0AD
:1002000025F878600A4BD3F808311B0AC3F30803BA
:100210003B603B6801337A68B2FBF3F37B60054ACD
:100220007B6813607B6818460837BD4680BD00BFF9
:1002300000400E400800002080B400AF024B18467A
:10024000BD465DF8047B7047005A620280B483B0FB
:1002500000AF1C4BD3F8943003F00703023B032B91
:100260001BD801A252F823F089020000810200008D
:100270007902000091020000134B1B687B6010E0C4
:100280004FF400437B600CE0104B1B687B6008E080
:100290000F4B1B685B087B6003E00D4B1B687B60AA
:1002A00000BF084BD3F800311B0A03F01F030133D2
:1002B0007A68B2FBF3F318460C37BD465DF8047B51
:1002C000704700BF00400E400400002000000020E6
:1002D0000C00002080B400AF034B1B681846BD46DD
:1002E0005DF8047B704700BF0000002080B400AFC1
:1002F000074B084A9A60064BD3F88830044A43F407
:100300007003C2F8883000BFBD465DF8047B7047BB
:1003100000ED00E00000000080B400AF4FF40043A7
:100320001846BD465DF8047B704780B400AF4FF4BB
:100330007A731846BD465DF8047B704780B400AF01
:10034000034B1B681846BD465DF8047B704700BF31
:100350000400002080B483B000AF786001227B6885
:1003600002FA03F318460C37BD465DF8047B70476C
:1003700080B487B000AFF860B9607A60FB6803F1C1
:10038000424303F58013DA00BB6813449B007B6192
:100390007B697A681A6000BF1C37BD465DF8047B34
:1003A000704780B485B000AF786039607B6803F136
:1003B000424303F58013DA003B6813449B00FB6063
:1003C000FB681B6818461437BD465DF8047B704710
:1003D00080B485B000AF78607B68002B03D07B6869
:1003E000B3F5004F00BF7B68B3FA83F3DBB2C3F110
:1003F0001F03FB60FB6818461437BD465DF8047B9D
:10040000704780B584B000AF78607B680133B3FA81
:1004100083F3DBB2C3F11F03FB60F868FFF79AFFB9
:10042000FB6818461037BD4680BD000080B400AFA1
:10043000064B1B6803F04003002B01D1012300E0B1
:1004400000231846BD465DF8047B70473C300E40E3
:1004500080B500AFFFF7EAFF034683F00103DBB28C
:10046000002B08D100BF12210448FFF79AFF034672
:10047000002BF8D100E000BF80BD00BF04300E406B
:1004800080B500AFFFF7E4FF034B5B681B0C03F084
:100490000303DBB2184680BD00300E4080B584B047
:1004A00000AF78600123FB607B68124A934204D856
:1004B0000023FB600023BB6008E07B680E4A934288
:1004C00002D80123BB6001E00223BB60FA6810215F
:1004D0000A48FFF74DFF094BD3F8003123F0807233
:1004E000BB681B0605491343C1F8003100BF103734
:1004F000BD4680BD0048E8010090D00300400E409A
:1005000080B483B000AF054B1B687B607B681846E6
:100510000C37BD465DF8047B704700BF100000201B
:1005200080B582B000AFFFF791FE7860064BD3F83C
:1005300000311B0A03F01F0301337A6802FB03F347
:1005400018460837BD4680BD00400E4080B582B0D9
:1005500000AF0D4800F09AFD0346FB70FB78072BB7
:1005600005D0092B07D1FFF771FE786006E0FFF791
:10057000C7FF786002E000237B6000BF7B681846FD
:100580000837BD4680BD00BF06000E0080B584B0B0
:1005900000AF78607B68002B1CD11B4800F076FD13
:1005A0000346FB7200BFFB7A013B072B23D801A255
:1005B00052F823F0D9050000F7050000F705000008
:1005C000E7050000F7050000F7050000DF05000063
:1005D000EF050000002312E00023FB600EE0FFF7B0
:1005E0008FFFF8600AE0FFF775FEF86006E0FFF79E
:1005F00097FFF86002E00023FB6000BFFB6818462D
:100600001037BD4680BD00BFB800320080B485B051
:1006100000AF786039601E4B5B6803F04073FB608D
:100620000023BB6012E01B4ABB68DB0013441A794D
:100630003B68DBB29A4206D1164ABB6852F83330A7
:100640007A689A4206D9BB680133BB60BB68042B49
:10065000E9D900E000BFBB68052B02D10323FB6092
:1006600005E00C4ABB68DB0013445B79FB60FB6868
:100670001B06FB60064B5B6823F040720449FB6875
:1006800013434B6000BF1437BD465DF8047B7047D1
:1006900000000E404C61000080B582B000AF0E4BF0
:1006A0001B6C002B14BF01230023FB710A4B41F686
:1006B00071321A64FFF7C0FD034600211846FFF7A8
:1006C000A5FFFB79002B02D0034B00221A6400BF68
:1006D0000837BD4680BD00BF00000E4080B584B025
:1006E00000AF786039600C4B1B6C002B14BF0123EA
:1006F0000023FB73084B41F671321A64396878683D
:10070000FFF784FFFB7B002B02D0034B00221A640F
:1007100000BF1037BD4680BD00000E4080B487B0DA
:1007200000AF78600F237B617B6803333B617B699B
:10073000FB60FA683B69934228BF1346BB60BB6805
:100740001B07BB60BB6818461C37BD465DF8047BC1
:100750007047000080B400AF044B5B6A1B0903F0D4
:1007600003031846BD465DF8047B704700400E4009
:1007700080B483B000AF7860074B5B6A23F030022F
:100780007B681B01044913434B6200BF0C37BD4615
:100790005DF8047B704700BF00400E4090B585B007
:1007A00000AF78600023BB607B683C4A93420BD06B
:1007B0007B683A4A934209D87B68394A934203D00E
:1007C0007B68384A934201E000BF00E000BF7868D0
:1007D00000F05CFC0346FB607B68304A93421AD011
:1007E0007B682E4A93421DD87B682D4A934204D0E1
:1007F0007B682C4A934207D014E02B4BD3F880300F
:1008000003F00703FB600EE0274BD3F8843003F0BE
:100810000703FB6007E0244BD3F8883003F007039D
:10082000FB6000E000BFFB68042B2ED801A252F849
:1008300023F000BF850800004908000051080000AF
:100840006108000059080000FFF766FDB8601FE06E
:10085000FFF774FDB8601BE0FFF767FDB86017E0B5
:10086000FFF7F4FC0446104BD3F800311B0E03F0E5
:10087000010301331846FFF76DFD0346B4FBF3F3A4
:10088000BB6005E00023BB6002E00023BB6000BF4B
:10089000BB6818461437BD4690BD00BF0500240054
:1008A00002001E000300200000400E4080B483B010
:1008B00000AF78600A4BD3F8443103F00103002BFA
:1008C00008D100BF064BD3F840217B681340002BB2
:1008D000F8D100E000BF0C37BD465DF8047B7047DF
:1008E00000400E4080B400AF00BFBD465DF8047B01
:1008F000704780B400AF00BFBD465DF8047B704711
:1009000080B582B000AF7860786800F0BDF903462A
:10091000013318460837BD4680BD80B582B000AFB0
:10092000786039603B68013B1946786800F078FAD6
:1009300000BF0837BD4680BD80B586B000AF786087
:100940000B46FB7000233B617B681B0A03F00F031F
:10095000013B092B44D801A252F823F0850900007D
:1009600091090000E1090000E10900008B09000085
:1009700097090000A1090000E1090000AB0900008F
:10098000B7090000184B7B6118E0184B7B6115E03C
:10099000174B7B6112E0174B7B6101233B610DE03C
:1009A000154B7B6110233B6108E0144B7B614FF4D6
:1009B00080333B6102E0124B7B6100BF7B681B0B05
:1009C00003F01F03FB603B69002B02D03869FFF77F
:1009D0006DFFFB781A46F9687869FFF7C9FC00E0FB
:1009E00000BF1837BD4680BD00400E40B0400E40ED
:1009F000C0400E40E0400E40E8400E40F0400E4047
:100A000050410E4090B585B000AF78607B6803F42C
:100A10007813B3F5781F00F01B81B3F5781F00F24F
:100A20002281B3F5481F00F00E81B3F5481F00F294
:100A30001A81B3F5401F00F0E580B3F5401F00F2C6
:100A40001281B3F5381F00F0B680B3F5381F00F2FD
:100A50000A81B3F5101F00F0E980B3F5101F00F212
:100A60000281B3F5001F00F0B580B3F5001F00F25E
:100A7000FA80B3F5F01F79D0B3F5F01F00F2F380E0
:100A8000B3F5D01F00F0AB80B3F5D01F00F2EB80C0
:100A9000B3F5B01F7DD0B3F5B01F00F2E480B3F51D
:100AA000A01F68D0B3F5A01F00F2DD80B3F5801F52
:100AB00000F0C580B3F5801F00F2D580B3F5602F3C
:100AC00000F0B980B3F5602F00F2CD80B3F5402F70
:100AD0003DD0B3F5402F00F2C680B3F5202F23D0D0
:100AE000B3F5202F00F2BF80B3F5802F0DD0B3F502
:100AF000802F00F2B880002B03D0B3F5003F17D051
:100B0000B1E0FFF7A3FBF860B0E0FFF79FFBF860F0
:100B1000594BD3F80C311B0AC3F308030133FA68AD
:100B2000B2FBF3F3FB60A1E0FFF790FBF8609DE000
:100B3000FFF78CFBF860504BD3F808311B0AC3F366
:100B400008030133FA68B2FBF3F3FB608EE0FFF7B2
:100B50007DFBF860484BD3F814311B0A03F01F03E8
:100B60000133FA68B2FBF3F3FB607FE04348FFF721
:100B700015FEF8607AE04248FFF710FEF8603E4B41
:100B8000D3F8303103F00303FA6822FA03F3FB6071
:100B90006CE03A48FFF702FEF860374BD3F820319B
:100BA00003F00F031846FFF7D5FB0246FB68B3FBC3
:100BB000F2F3FB605AE03148FFF7F0FDF8602E4B8E
:100BC000D3F820311B0903F00303FA6822FA03F378
:100BD000FB604BE02B48FFF7E1FDF86046E0294859
:100BE000FFF7DCFDF860244BD3F828311B0903F034
:100BF00003031846FFF7AEFB0246FB68B3FBF2F3B4
:100C0000FB6033E01F48FFF7C9FDF8601A4BD3F8CB
:100C100028311B0A03F0030304331846FFF79AFB3D
:100C20000246FB68B3FBF2F3FB601FE01448FFF7DA
:100C3000B5FDF8601AE0FFF789FCF86016E0FFF7F1
:100C40005FFCF86012E00020FFF7A0FCF8600DE008
:100C5000FFF7FCFA04467868FFF752FE0346B4FB40
:100C6000F3F3FB6002E00023FB6000BFFB68184663
:100C70001437BD4690BD00BF00400E4002001E006C
:100C8000050024000300200080B584B000AF786028
:100C90007B681B0903F00F03BB60BB68013B092B9A
:100CA00000F2AA8001A252F823F000BFD50C000088
:100CB000E50C0000F50C0000150D0000F90D00001A
:100CC000F90D0000250D0000350D0000850D000018
:100CD000DB0D00004C4BD3F800311B0A03F01F035F
:100CE000FB608CE0484BD3F814311B0A03F01F0360
:100CF000FB6084E0444BD3F800311B0E03F001038A
:100D0000FB60FB6801331846FFF724FB0346013BF9
:100D1000FB6074E03C4BD3F80C311B0AC3F30803AF
:100D2000FB606CE0384BD3F808311B0AC3F30803AF
:100D3000FB6064E07B68354A934204D07B68344AA8
:100D400093420DD01AE0304BD3F8203103F00F035B
:100D5000FB60F868FFF7FEFA0346013BFB6010E01A
:100D6000294BD3F820311B0903F00303FB60F8681B
:100D7000FFF7F0FA0346013BFB6002E00023FB6053
:100D800000BF3CE07B68234A934204D07B68224A40
:100D900093420ED01DE01C4BD3F828311B0903F001
:100DA0000303FB60F868FFF7D5FA0346013BFB60DD
:100DB00012E0154BD3F828311B0A03F00303FB6044
:100DC000FB6804331846FFF7C5FA0346013BFB6096
:100DD00002E00023FB6000BF11E07B680F4A9342F2
:100DE00006D1094BD3F8303103F00303FB6002E076
:100DF0000023FB6000BF02E00023FB6000BFFB6834
:100E000018461037BD4680BD00400E4080061600D3
:100E100080162E0090171A0090273000A0091400A9
:100E200080B584B000AF786039607B681B0903F03F
:100E30000F03FB60FB68013B092B00F2148101A248
:100E400052F823F06D0E0000B70E0000CF0E000028
:100E5000EF0E000067100000671000000B0F00008D
:100E60003F0F0000CD0F00003D100000FFF714FC05
:100E70007F48FFF713FBFFF735FD7E4BD3F80031BA
:100E800023F4F8523B681B027A491343C1F800313E
:100E9000FFF7B2F9B860FFF7F3FA03461946B868EE
:100EA000FFF71CFCFFF7D2F903461846FFF7F6FAE6
:100EB000FFF71FFDD8E06F4BD3F8143123F4F8523D
:100EC0003B681B026B491343C1F81431CCE038680E
:100ED000FFF77EFA3860674BD3F8003123F0807259
:100EE0003B681B0663491343C1F80031BCE0614B0A
:100EF000D3F80C3123F4FF3323F480733A681202E1
:100F00005C491343C1F80C31AEE0FFF7C5FB594B08
:100F1000D3F8083123F4FF3323F480733A681202C4
:100F200054491343C1F80831FFF766F9B860FFF779
:100F3000A7FA03461946B868FFF7D0FB94E07B6830
:100F40004D4A93422DD07B684B4A93423CD87B68F4
:100F50004A4A934204D07B68494A93420FD033E017
:100F60004FF48020FFF7A2FC424BD3F8303123F03E
:100F7000030240493B681343C1F8303125E038682B
:100F8000FFF73FFA38600420FFF790FC394BD3F8A5
:100F9000203123F00F0237493B681343C1F8203159
:100FA00013E03868FFF72DFA38600420FFF77EFC65
:100FB000304BD3F8203123F030023B681B012D4920
:100FC0001343C1F8203100E000BF4DE07B682D4A9B
:100FD000934204D07B682C4A934213D02DE03868AA
:100FE000FFF70FFA38604020FFF760FC214BD3F881
:100FF000283123F030023B681B011E491343C1F81E
:1010000028311AE03B687F2B02D83B680E2B00BFCB
:101010003868FFF7F6F90346043B3B604020FFF7D2
:1010200045FC144BD3F8283123F440723B681B0273
:1010300010491343C1F8283100BF15E07B680F4AFF
:1010400093420ED14FF48020FFF730FC094BD3F8C8
:10105000303123F0030207493B681343C1F83031B4
:1010600000E000BF00E000BF00BF1037BD4680BDFC
:101070000148E80100400E4080162E00A00914002F
:101080008006160090171A009027300080B485B0B3
:1010900000AF78600123FB737B6803F00F03BB6034
:1010A000BB68013B072B00F2CC8001A252F823F071
:1010B000D1100000271100005D1100004312000054
:1010C000A5110000DB11000043120000FF11000019
:1010D000614BD3F8943003F00703023B052B1ED875
:1010E00001A252F823F000BF0D110000071100000B
:1010F00001110000131100001F1100001911000060
:101100000223FB730EE00323FB730BE00423FB734A
:1011100008E00B23FB7305E00C23FB7302E00523BF
:10112000FB7300BF90E04C4BD3F8803003F0070313
:10113000042B0CD0042B0DD8012B02D0022B03D092
:1011400008E00323FB7308E00223FB7305E00A2396
:10115000FB7302E00123FB7300BF75E03E4BD3F845
:10116000843003F00703013B032B17D801A252F888
:1011700023F000BF851100008B11000097110000C3
:10118000911100000323FB730BE00223FB7308E0C3
:101190000A23FB7305E00623FB7302E00123FB73C4
:1011A00000BF51E02C4BD3F8883003F00703042B29
:1011B0000CD0042B0DD8012B02D0022B03D008E059
:1011C0000323FB7308E00223FB7305E00A23FB7390
:1011D00002E00123FB7300BF36E01F4B1B6F03F0DF
:1011E0000103002B04D0012B05D10923FB7305E07B
:1011F0000723FB7302E00123FB7300BF24E0164BBF
:10120000D3F85C3103F03003302B13D0302B14D8DB
:10121000202B0CD0202B10D8002B02D0102B03D069
:101220000BE00123FB730BE00723FB7308E00423AF
:10123000FB7305E00823FB7302E00123FB7300BF8F
:1012400002E00023FB7300BFFB7B18461437BD464A
:101250005DF8047B704700BF00400E4080B58AB047
:1012600000AF78600B46FB7003237B62032387F893
:1012700023300023BB6100237B617B68112B19D1D4
:10128000FB78042B03D1FFF725F878610BE0FB789E
:10129000052B08D100F058F90346A44A934202D91D
:1012A00000F052F978617B69002B03D00021786946
:1012B00000F028FC7B6803F00F033B613B69013BB6
:1012C000072B00F2298101A252F823F0ED12000051
:1012D000DF130000F113000019150000E3130000F4
:1012E0008914000019150000A7140000FB78023BC8
:1012F0000A2B00F2138101A252F823F029130000F7
:101300003513000041130000531300001D150000A9
:101310001D1500001D1500001D1500001D15000005
:10132000651300007113000004237B62002387F81B
:10133000233023E003237B62012387F823301DE061
:1013400002237B62022387F823307948FFF7A6F84F
:1013500014E001237B62032387F823307448FFF7EE
:101360009DF80BE005237B62032387F8233005E01B
:1013700007237B62062387F8233000BF97F82330CA
:10138000062B06D097F8233001220121184600F0E1
:10139000E7F8FFF781F9FFF7A5FA7B69002B01D089
:1013A000FFF756F8634A7B6A5367FEF725FFF8603C
:1013B000FEF74CFF03461846FFF770F8FFF760F89A
:1013C00003461946F868FFF789F97B69002B03D1BA
:1013D0000121002000F096FBFFF78BFAA3E0564BAB
:1013E000BB61BB69002B01D0BB6900E0534BBB6103
:1013F000BB69002B01D0BB6900E0514BBB61FB789E
:10140000013B092B00F28C8001A252F823F000BFAF
:10141000391400003F1400004F1400002115000093
:10142000211500005F1400002115000021150000A7
:10143000211500007B1400000023FB6120E0012245
:101440000121002000F08CF80223FB6118E001224A
:101450000121012000F084F80123FB6110E0FEF778
:10146000F5FE03461846FFF719F801220221354818
:10147000FEF77EFF0323FB6102E00423FB6100BF54
:10148000BB69FA691A604EE0FB78072B02D0092B82
:1014900004D048E0274B00221A6703E0254B0122C5
:1014A0001A6700BF3FE0FB78013B072B3AD801A247
:1014B00052F823F0D5140000251500002515000072
:1014C000EB1400002515000025150000DB140000BA
:1014D000FB1400000023FB6112E001220121042023
:1014E00000F03EF80123FB610AE001220121022005
:1014F00000F036F80223FB6102E00323FB6100BF2A
:101500000C4BD3F85C3123F03002FB691B01094915
:101510001343C1F85C3106E000BF04E000BF02E005
:1015200000BF00E000BF2837BD4680BD002D31015F
:101530000148E80100400E4080400E4088400E40C7
:1015400084400E40B0400E4080B400AF034B1B6897
:101550001846BD465DF8047B704700BF0C000020B4
:1015600080B588B000AF0346FB710B46BB711346D4
:101570007B71FB79042B00F2B88001A252F823F0B2
:10158000DD150000CB150000A71500009515000023
:10159000B915000001237B6102233B610123FB613C
:1015A0000023BB6125E004237B6108233B61032307
:1015B000FB610223BB611CE010237B6120233B61A4
:1015C0000523FB610423BB6113E040237B6180237F
:1015D0003B610723FB610623BB610AE04FF4807384
:1015E0007B614FF400733B610923FB610823BB61FE
:1015F00000BFBB79002B5BD00023FB73FB79022B70
:1016000011D1FFF7A7F80346002B0CD1394BDB6B48
:101610000123FB73384B5B6A03F00103012B02D1FA
:101620000120FFF7A5F8344A7B69136600BFB9694A
:101630003248FEF7B6FE0346002BF8D07B79002B2C
:1016400054D000BFF9692D48FEF7ABFE0346002BCE
:10165000F8D0FB79022B49D1FB7B002B46D0264BDF
:101660005B6A03F00103012B05D101222021022036
:1016700000F04CF903E00021022000F0FBF802200A
:1016800000F03EF8B860012200210220FFF768FF59
:10169000B968022000F06EF8174A7B69136600BF34
:1016A000F9691648FEF77DFE0346002BF8D01DE0D1
:1016B000114A3B69136600BF0F4BD3F890300121EC
:1016C000BA6901FA02F21340002BF5D17B79002BA5
:1016D0000CD000BF084BD3F890300121FA6901FA11
:1016E00002F21340002BF5D100E000BF2037BD46C9
:1016F00080BD00BF00300E4000400E4090400E40C4
:1017000080B485B000AF0346FB71FB79013B032B2E
:1017100023D801A252F823F0291700004D1700002A
:101720003517000041170000114B1B6AC3F3080373
:10173000FB6015E00E4B1B6903F07F03FB600FE0BD
:101740000B4B9B6903F07F03FB6009E0084BD3F868
:101750009C30C3F30A03FB6002E00023FB6000BF80
:10176000FB6818461437BD465DF8047B704700BF20
:1017700000400E4080B584B000AF03463960FB7175
:10178000FB79013B032B6AD801A252F823F000BF7A
:10179000A117000023180000CF170000F917000060
:1017A0003B68C3F308033B6000BF1A212E48FEF7D5
:1017B000F8FD0346002BF8D12C4B1B6A23F4FF7372
:1017C00023F0010329493A6813430B6248E03B6860
:1017D00003F07F033B6000BF18212348FEF7E1FDC3
:1017E0000346002BF8D1214B1B6923F07F021F49D0
:1017F0003B6813430B6133E03B6803F07F033B60BE
:1018000000BF19211848FEF7CCFD0346002BF8D184
:10181000164B9B6923F07F0214493B6813438B618D
:101820001EE0124BD3F89030104B5B6A23F030036C
:101830000E4A43F0100353623B68DB0903F00F03C9
:101840001846FEF76BFFF860084B1A6B084B134005
:101850003A681A430549FB6813430B6300E000BF75
:1018600000BF1037BD4680BD40410E4000400E40D5
:1018700000F8FF0F80B584B000AF03460A46FB7145
:101880001346BB71FEF766FF0346002B03D14FF4EE
:101890004003FB6017E0BB79302B0DD0302B0FDC01
:1018A000002B05D0202B0BD14FF40003FB600AE086
:1018B0004FF44003FB6006E04FF44003FB6002E09E
:1018C000104BFB6000BF00BF0F4BD3F89020FB68AC
:1018D0001340FA689A42F7D1FB6803F48003002BA7
:1018E0000AD0094BD3F8A03003F48063002B14BF57
:1018F00001230023DBB200E0012318461037BD4668
:1019000080BD00BFFF33E10700400E4080B582B0CC
:1019100000AF0346FB710B46BB7113467B71FB792D
:10192000022B15D1BB79002B07D00D4B4FF48062F1
:10193000C3F8A8200A4ABB7953667B79002B09D0EB
:10194000BA79FB7911461846FFF794FF034603E086
:1019500000BF00E000BF012318460837BD4680BD28
:1019600000400E4080B483B000AFEFF310833B60C3
:101970003B687B6072B600BF7B6818460C37BD467B
:101980005DF8047B704780B483B000AF78607B68FB
:10199000002B01D162B600BF00BF0C37BD465DF819
:1019A000047B704780B487B000AFF860B9607A609C
:1019B000FB6803F1424303F58013DA00BB6813446C
:1019C0009B007B617B697A681A6000BF1C37BD464B
:1019D0005DF8047B704780B485B000AF78603960F3
:1019E0007B6803F1424303F58013DA003B6813443C
:1019F0009B00FB60FB681B6818461437BD465DF80A
:101A0000047B704780B400AF064B1B6803F04003B3
:101A1000002B01D1012300E000231846BD465DF8EC
:101A2000047B70473C300E4080B500AFFFF7EAFF03
:101A3000034683F00103DBB2002B08D100BF122163
:101A40000448FFF7C8FF0346002BF8D100E000BFB1
:101A500080BD00BF04300E4080B500AFFFF7E4FF4B
:101A6000034B5B681B0C03F00303DBB2184680BD1D
:101A700000300E4080B483B000AF7860044A7B68C9
:101A8000D36200BF0C37BD465DF8047B704700BFD2
:101A900000300E4080B400AF034B5B6A1846BD4671
:101AA0005DF8047B704700BF00300E4080B400AF8B
:101AB000034B00225A6300BFBD465DF8047B7047AC
:101AC00000300E4080B400AF044B4AF6E8525A632F
:101AD00000BFBD465DF8047B704700BF00300E407C
:101AE00080B483B000AF0346FB71FB79C3F10203FE
:101AF000102202FA03F318460C37BD465DF8047B4A
:101B00007047000080B584B000AF78600B46FB7072
:101B1000FFF778FF034683F00103DBB2002B28D1E7
:101B20007B68002B0FD1154BD3F800311B0A03F053
:101B30001F030133BB60FEF789FB0246BB6802FB53
:101B400003F3FB6001E07B68FB600D4B1B78002B0F
:101B500009D0FB680B4A934205D8FB78194602204E
:101B600000F012F806E0FB781946002000F00CF8AF
:101B700000E000BF1037BD4680BD00BF00400E40F2
:101B8000AC000020002D310190B587B000AF0346B6
:101B90000A46FB711346BB71FFF734FF034683F01F
:101BA0000103DBB2002B31D1FFF756FF03461A4683
:101BB000FB7993422CD0184BD3F800311B0A03F069
:101BC0001F0301337B61FEF741FB38613B697A6992
:101BD00002FB03F3FB60FB79022B03D1022138697E
:101BE000FEF77CFD0D4CFB791846FFF779FF0346A5
:101BF0002361BB79002B01D0FFF716FFFB79002B87
:101C000007D100213869FEF769FD02E000BF00E05E
:101C100000BF1C37BD4690BD00400E4000300E4056
:101C200080B400AF01231846BD465DF8047B7047C1
:101C300080B582B000AF0C4BDB6E0B4A43F0807373
:101C4000D36600210948FFF7C6FE78607B68002B49
:101C500003D0042000F0CAFC02E0002000F0C6FC23
:101C600000BF0837BD4680BD00300E404C300E40EE
:101C700080B48BB000AF01237B627B6A1B053B62A3
:101C8000324BDB6C1B0A03F00F03FB61304B1B88EC
:101C90001A462F4B1B8828335B08134403F1280195
:101CA000FB695A1C13469B001344B1FBF3F3013B41
:101CB000BB61BB697B6107233B613A697B699342E6
:101CC00028BF1346BB61BB691B06BB611F4BDB6CA6
:101CD00023F0EE62B9693B6A0B431C491343CB64A2
:101CE0001C4BB3F90030002B29DB1A4BB3F9003041
:101CF000FB81FA89FB8928335B08134403F128022E
:101D0000FB6901335900FB6901335B080B44B2FBEB
:101D1000F3F3BB60BB687B6007233B603A687B687A
:101D2000934228BF1346BB60BB681B01BB60074BD7
:101D30001B6D23F070020549BB6813430B6500BFA0
:101D40002C37BD465DF8047B704700BF00300E4065
:101D5000A4000020A800002080B483B000AF786009
:101D60000B467B807B689AB2054B1A80054A7B88BC
:101D7000138000BF0C37BD465DF8047B704700BF81
:101D8000A4000020A800002080B483B000AF034668
:101D9000FB71FB79002B02D0012B04D007E0074B2D
:101DA000074A9A6503E0054B064A9A6500BF00BFE3
:101DB0000C37BD465DF8047B704700BF00300E4015
:101DC00077402057372110B780B485B000AF034665
:101DD000FB710B46BB7113467B712D4BD3F88031E1
:101DE000FB60BB79032B1DD801A252F823F000BF82
:101DF000011E0000091E0000131E00001D1E000031
:101E0000FB68DBB2FB600FE0FB681B0ADBB2FB6028
:101E10000AE0FB681B0CDBB2FB6005E0FB681B0EF5
:101E2000FB6001E000232CE07B79002B11D1FB68E3
:101E30001B03FB60FB6823F47043002B01D00023DD
:101E40001FE0144BDB6E23F470421249FB6813430E
:101E5000CB667B79012B13D1FB681B03FB60FB680E
:101E600023F47043002B01D000230AE0094BD3F880
:101E7000EC3023F470420749FB681343C1F8EC309F
:101E8000012318461437BD465DF8047B704700BF38
:101E9000B081E00F00300E4080B489B000AFF86030
:101EA000B96011461A460B46FB711346BB710023FD
:101EB000FB610023BB61BB791B02FA79002A01D0C8
:101EC000012200E0002213437B617B6940F2013272
:101ED00093425CD07B6940F20132934200F29380DE
:101EE0007B69B3F5407F00F082807B69B3F5407F6A
:101EF00000F289807B6940F2012293423BD07B69EA
:101F000040F2012293427ED87B69B3F5007F62D014
:101F10007B69B3F5007F76D87B6940F2011293426A
:101F20001DD07B69B3F5817F6DD27B69B3F5807F6E
:101F300045D07B69B3F5807F65D87B69002B32D0B3
:101F40007B69012B5FD1364BD3F87431FB61FB69A0
:101F50001B0ADBB2BB61FB69DBB2FB6154E0304BB7
:101F6000D3F87431FB61FB691B0EBB61FB691B0C71
:101F7000DBB2FB6148E02A4BD3F87831FB61FB69A7
:101F80001B0ADBB2BB61FB69DBB2FB613CE0244BAB
:101F9000D3F87831FB61FB691B0EBB61FB691B0C3D
:101FA000DBB2FB6130E01E4BD3F86C31FB61FB69A7
:101FB0001B0ADBB2BB61FB69DBB2FB6124E0184B9F
:101FC000D3F86C31FB61FB691B0EBB61FB691B0C19
:101FD000DBB2FB6118E0124BD3F87031FB61FB6997
:101FE0001B0ADBB2BB61FB69DBB2FB610CE00C4B93
:101FF000D3F87031FB61FB691B0EBB61FB691B0CE5
:10200000DBB2FB6100E000BFFB68FA691A60BB68E5
:10201000BA691A6000BF2437BD465DF8047B70477B
:10202000B081E00F80B584B000AF0346FB713E4B3A
:102030005B6B012B0CBF01230023FB73FFF742FDF9
:1020400000BF394B9B6F03F00103002BF9D1364BD6
:102050001B6C03F00303BB60BB68002B04D00122A0
:102060000D213248FFF79EFCBB68DBB2FA799A4239
:1020700008D1FB79002B53D100220D212B48FFF70B
:1020800091FC4DE0BB68032B02D0BB68002B20D134
:10209000FB79022B02D0FB79012B1AD14FF40020DF
:1020A000FFF7E8FC00BF204B9B6F03F00103002B00
:1020B000F9D11D4B1B6C23F003031B4A43F00103B2
:1020C000136400BFFFF7E6FC034603F40023002B74
:1020D000F8D000BF144B9B6F03F00103002BF9D124
:1020E000114B1B6C23F00302FB790F4913430B6464
:1020F00000BF0D4B9B6F03F00103002BF9D1FB795F
:10210000002B14BF01230023DBB21A460D21074820
:10211000FFF748FCFB7B002B03D0FFF7C7FC00E078
:1021200000BF1037BD4680BD00300E4054300E4019
:1021300080B584B000AF7860484B02229A63474B69
:102140009B6B03F00F03022B01D0002381E0FFF70C
:1021500067FD7B685B78012B02D07B685B78022B84
:102160007B68DB884A2B02D80023FB6015E07B6884
:10217000DB88B3F5FA7F03D24FF08053FB600CE0AD
:102180007B68DB8840F6C312934203D84FF00053BC
:10219000FB6002E04FF04053FB60304BDB6C23F000
:1021A000405323F001037A68B2F90C20002A01DBC6
:1021B000012100E00021FA680A4328491343CB6457
:1021C000264BD3F8EC30254A43F44073C2F8EC3088
:1021D0007B689A88224B1A80FFF72AFD7B681B894F
:1021E0001A467B68B3F90C3019461046FFF7B4FD68
:1021F0007B689B88184600F08DF97B689B7B1846AE
:10220000FFF7C2FD7B685B8801220121184600F0C0
:102210002BF8034683F00103DBB2002B01D000232F
:1022200017E00E4BDB6B0D4A43F48063D3637B688E
:102230005B781846FFF7F6FE7B689B7A202B01D16E
:10224000012300E000231A4605210648FFF7AAFBF8
:10225000012318461037BD4680BD00BF00300E4038
:10226000A60000203C300E4090B595B000AF7860DD
:102270000B46FB701346BB700023FB6400237B649A
:1022800007F1240300221A605A609A6007F11803CC
:1022900000221A605A609A6007F10C0300221A604B
:1022A0005A609A60984B1B883B810023BB727B6805
:1022B000B3F5E16F06D37B6840F6B832934201D89C
:1022C000012300E0002387F8433097F8433003F000
:1022D000010387F8433097F8433083F00103DBB202
:1022E000002B01D000230AE17B68B3F5E16F8CBFBE
:1022F0000123002387F8423097F84230002B0AD0A0
:102300004FF4E163FB6440F6B8337B647A6CFB6C9A
:10231000D31ABB6409E04FF49663FB644FF4E163A6
:102320007B647A6CFB6CD31ABB6497F84230002B49
:102330000BD0764BD3F868313B623B6A1B0E7B6156
:102340003B6A1B0CDBB23B620AE0704BD3F868318E
:102350003B623B6A1B0ADBB27B613B6ADBB23B62DE
:102360006B4BDB6C1B0FDBB203F00303DBB23B7286
:102370003B7A97F8422007F10C0107F11800FFF7AC
:102380008BFD634BD3F8EC301B0ADBB203F0030385
:10239000DBB27B727C7A97F8422007F10C03191D9F
:1023A00007F11803181D2346FFF776FD7A68FB6CCA
:1023B000D31A79693A6A8A1A03FB02F2BB6CB2FB40
:1023C000F3F3FB62FA6A3B6A1344FB627A68FB6CC4
:1023D000D31AF968BA698A1A03FB02F2BB6CB2FB22
:1023E000F3F37B627A6ABB6913447B627A68FB6CA5
:1023F000D31A3969FA698A1A03FB02F2BB6CB2FB81
:10240000F3F3BB62BA6AFB691344BB62FA6A7B6985
:102410009A4213D8FA6A3B6A9A420FD3BA6A3B6966
:102420009A420BD8BA6AFB699A4207D37A6AFB6868
:102430009A4203D87A6ABB699A4201D200235EE0CD
:10244000BB78002B12D0324BDB6D23F4FE4323F01C
:102450000203FA6A1202134397F84220002A01D0BD
:10246000022200E000222A491343CB65FB78002BAF
:1024700044D0397A97F8423000221846FFF7A4FC7E
:10248000034683F00103DBB2002B01D0002336E0CA
:10249000797A97F8423001221846FFF795FC0346F7
:1024A00083F00103DBB2002B01D0002327E07B6A1D
:1024B000FB63BB6ABB63BA6BFB6B934238BF1346CB
:1024C0007B627B6A7B63E7233B633A6B7B6B934264
:1024D00028BF13467B620E4B5B6E23F4FF7323F021
:1024E00001037A6A5200134397F84220002A01D070
:1024F000012200E00022064913434B6601231846DF
:102500005437BD4690BD00BF74610000B081E00F3C
:1025100000300E4080B584B000AF78600023FB60CF
:10252000314B1B6F03F00703BB602F4BDB6C03F0D9
:102530000103002B14D0BB68012B11D97B68132B2E
:1025400002D80423FB6037E07B68132B05D97B6836
:10255000272B02D80823FB602EE01023FB602BE022
:10256000214BDB6C03F00103002B14D1BB68012B62
:1025700011D87B68092B02D80423FB601CE07B6820
:10258000092B05D97B68132B02D80823FB6013E0C5
:102590001023FB6010E0144BDB6C03F00103002BF5
:1025A0000AD0BB68012B07D87B68272B02D80823E9
:1025B000FB6001E01023FB60FB68013BFB60FB68F4
:1025C0001A02FB681B031343FB60074BDB6C23F40D
:1025D0007F420549FB681343CB64FFF749FB00BF0B
:1025E0001037BD4680BD00BF00300E4080B584B0BE
:1025F00000AF0346FB7100210E48FFF7ECF9F860CD
:10260000FB68002B02D1FB79012B01D9FB68002B61
:1026100000BF094B1B6F23F00702FB7906491343E8
:102620000B67064B1B881846FFF774FF00BF103777
:10263000BD4680BD4C300E4000300E40A60000204C
:1026400080B485B000AF786039607B6803F1C06307
:10265000FB60FB683A681A6000BF1437BD465DF83E
:10266000047B704780B485B000AF786039607B68C8
:1026700003F18063FB60FB683A681A6000BF14379F
:10268000BD465DF8047B704780B582B000AF03465D
:102690003960FB71FB79002B1CD0FB79012B19D021
:1026A000FB79022B16D0FB79032B13D0FB79042B7B
:1026B00010D0FB79052B0DD0FB79062B0AD0FB79C6
:1026C000072B07D0FB79082B04D0FB79092B01D00D
:1026D000FB790A2BFA7913465B0013441B010C3378
:1026E00003F1804303F5204301213A6801FA02F225
:1026F00011461846FFF7B6FF00BF0837BD4680BD3C
:1027000080B582B000AF03463960FB71FB79002BC6
:102710001CD0FB79012B19D0FB79022B16D0FB7949
:10272000032B13D0FB79042B10D0FB79052B0DD094
:10273000FB79062B0AD0FB79072B07D0FB79082BF6
:1027400004D0FB79092B01D0FB790A2BFA791346C7
:102750005B0013441B010C3303F1804303F520435A
:1027600001213A6801FA02F211461846FFF768FFA4
:1027700000BF0837BD4680BD80B584B000AFB960EA
:102780007B600346FB731346BB73FB7B002B1CD0A3
:10279000FB7B012B19D0FB7B022B16D0FB7B032B81
:1027A00013D0FB7B042B10D0FB7B052B0DD0FB7BC8
:1027B000062B0AD0FB7B072B07D0FB7B082B04D012
:1027C000FB7B092B01D0FB7B0A2BBB7B002B0DD0A5
:1027D0007B68002B05D0FB7BB9681846FFF790FF9C
:1027E00004E0FB7BB9681846FFF74EFFBB68072B78
:1027F00020D82C49FA7B13465B0013441B010B4481
:1028000004331A68BB689B000F2101FA03F3DB4312
:102810001340B97BBA68920001FA02F211462148CE
:10282000FA7B194313465B0013441B010344043332
:10283000196021E01B49FA7B13465B0013441B011E
:102840000B4408331A68BB68083B9B000F2101FA50
:1028500003F3DB431340B97BBA68083A920001FAEC
:1028600002F211460F48FA7B194313465B001344EA
:102870001B01034408331960BB7B002B0DD17B681F
:10288000002B05D0FB7BB9681846FFF739FF04E041
:10289000FB7BB9681846FFF7F7FE00BF1037BD464F
:1028A00080BD00BF00A0004080B483B000AF78605E
:1028B00039607B681B6C03F00103002B07D100BF5C
:1028C0007B685A6C3B681340002BF9D100E000BFD5
:1028D0000C37BD465DF8047B7047000080B586B0BC
:1028E00000AFF860B9607A60BB68002B09D1FB6863
:1028F000124A93421DD1124B7B617869FEF782F830
:10290000B860BB685A017B68B2FBF3F33B613B697B
:10291000203B3B613B69DB003B613A69094B13405B
:102920003B610421F868FFF7BFFFFB683A69DA6092
:1029300000E000BF1837BD4680BD00BF00A00440C6
:1029400090171A00F8FF010080B483B000AF7860E0
:102950000B46FB70FB78002B08D000BF7B685B6CDC
:10296000002BFBD17B6801221A6402E07B68002205
:102970001A6400BF0C37BD465DF8047B704780B514
:1029800082B000AF7860396002217868FFF78CFF71
:102990007B680A225A6001217868FFF7D5FF7B68BF
:1029A0001B6823F01C033A68127B13433A68527B7E
:1029B00013433A68927B1A437B681A603B685968F4
:1029C0003B689B681A467868FFF788FF3B681B786E
:1029D0001A467B685A6000217868FFF7B5FF00BF90
:1029E0000837BD4680BD80B483B000AF786000BFBB
:1029F0007B689B6803F02003002BF9D07B68DB69C0
:102A0000DBB218460C37BD465DF8047B704780B5D5
:102A100082B000AF78600B46FB7000BF7B689B689C
:102A200003F01003002BF9D040217868FFF73CFF3A
:102A3000FA787B689A6200BF0837BD4680BD80B4D3
:102A400083B000AF78600B46FB70FB7863F07F03C8
:102A5000DBB21A467B689A6500BF0C37BD465DF84D
:102A6000047B704780B586B000AFF860B9607A60CB
:102A7000FB7000237B61BB68002B03D12748FDF767
:102A8000C1FFB860FB78602B13D0602B14DC402BA7
:102A90000CD0402B10DC002B02D0202B03D00BE0FD
:102AA00010237B6109E008237B6106E006237B613C
:102AB00003E004237B6100E000BF7B69002B29D089
:102AC000BB685A017B69796801FB03F35B08134417
:102AD0003B617B697A6802FB03F33A69B2FBF3F36B
:102AE0003B613B69203B3B613B69DB003B613A69F1
:102AF0000B4B13403B61FB681B6823F06002FB68D3
:102B00001A60FB681A68FB781A43FB681A60FB6856
:102B10003A695A6100BF1837BD4680BD4041050083
:102B2000F8FF7F0080B485B000AF78600B46FB7083
:102B30007B68114A93420AD07B68104A934206D0C0
:102B40007B680F4A934202D07B680E4A934200BFD3
:102B5000FB78DB43FB60FB6803F00503FB60FB686D
:102B60005A007B68DA60FA787B68DA6000BF143755
:102B7000BD465DF8047B7047000001400004014041
:102B800000080140000C014080B582B000AF7860C1
:102B900039607B68334A93420AD07B68324A934259
:102BA00006D07B68314A934202D07B68304A934218
:102BB00000BF786800F05EF83B689B7C002B05D076
:102BC0007B681B6843F080427B681A603B68DB7C53
:102BD000002B05D03B681B7D19467868FFF72FFF57
:102BE0003B685B7B1A463B681B8A13433A68D28971
:102BF0001A437B685A603B6859683B689A683B682F
:102C00001B7B7868FFF72EFF3B685B7D002B05D0B0
:102C10007B681B6843F480327B681A603B689B7D4D
:102C20001B0703F0E0423B68DB7D1B0503F4E00378
:102C30001A437B681A667B685B6F23F030027B68FF
:102C40005A677B685B6F3A68127E1A437B685A67E3
:102C50003B681B781A467B68DA6000BF0837BD46C0
:102C600080BD00BF00000140000401400008014099
:102C7000000C014080B483B000AF78607B682C4AC0
:102C800093420AD07B682B4A934206D07B682A4A3B
:102C9000934202D07B68294A934200BF7B6840F68A
:102CA000AA62DA607B6800221A607B6841F2050242
:102CB0005A607B6800229A607B6800225A617B68B8
:102CC0000022DA647B681E4A9A647B6800221A66D6
:102CD0007B6800225A677B6800229A677B68002223
:102CE000DA677B68124A93420BD07B68114A9342A1
:102CF00007D07B68104A934203D07B680F4A934207
:102D000002D17B6800221A657B6800229A657B6885
:102D1000084A934203D07B68084A934202D17B68F9
:102D20000022DA6500BF0C37BD465DF8047B7047B2
:102D3000000001400004014000080140000C014077
:102D4000F9FF010080B483B000AF0346FB7197F92F
:102D50000730002B0BDBFB7903F01F02074997F9C3
:102D600007305B09012000FA02F241F8232000BF7E
:102D70000C37BD465DF8047B704700BF00E100E002
:102D800080B400AF054B1B69044A23F004031361B0
:102D900030BF00BFBD465DF8047B704700ED00E02A
:102DA00080B483B000AF786039607B683A685A635A
:102DB00000BF0C37BD465DF8047B704780B483B01C
:102DC00000AF786039607B689A6B3B68DB431A40E0
:102DD0007B689A6300BF0C37BD465DF8047B704783
:102DE00080B483B000AF786039607B689A6B3B68D1
:102DF0001A437B689A6300BF0C37BD465DF8047BBD
:102E0000704780B483B000AF78607B68DB6A184697
:102E10000C37BD465DF8047B704780B483B000AFCB
:102E2000786039607B683A681A6300BF0C37BD462A
:102E30005DF8047B7047000080B400AF044BDB6C8E
:102E40001B0EDBB21846BD465DF8047B704700BF21
:102E5000B081E00F80B582B000AF194B01225A64F7
:102E6000FFF7EAFF0346FB71FB79002B0CD1154BF2
:102E70004AF6E8521A60144B1B68134A43F00403E5
:102E80001360104B00221A60FB79012B05D80F4B01
:102E90001B680E4A43F4005313600D4B1B6A23F466
:102EA00044130B4A43F4881313620A4B1B68094A04
:102EB00043F4F843136000BF0837BD4680BD00BF30
:102EC00000000E4090310E4098310E4064310E40AB
:102ED00000400E40A4310E4080B582B000AF786053
:102EE0000F4B1B68632B03D10E4801F061FF12E00A
:102EF0000D4B1B68B3F1FF3F02D10B4B00221A6050
:102F0000074B1B680133064A1360054B1B687A6840
:102F1000064941F8232000BF0837BD4680BD00BFE9
:102F2000180000207861000014000020B00000208C
:102F300080B400AF094B1B68B3F1FF3F05D0074BCE
:102F40001A68074B1B689A4201DD012300E0002349
:102F50001846BD465DF8047B704700BF1400002092
:102F60001800002080B582B000AF104B1B68B3F191
:102F7000FF3F05D00D4B1A680D4B1B689A4205DDCB
:102F80000C4801F015FF012001F024FE074B1B68DF
:102F9000094A52F823307B60044B1B680133034A13
:102FA00013607B6818460837BD4680BD14000020BA
:102FB0001800002088610000B000002080B500AF3C
:102FC00001211448FDF7B8FC012304220A21032043
:102FD000FFF7D2FB002301220B210320FFF7CCFBDC
:102FE0000123042206210020FFF7C6FB0023012253
:102FF00007210020FFF7C0FB012304220621012046
:10300000FFF7BAFB0023012207210120FFF7B4FBE1
:1030100000BF80BD00350A0090B585B000AF01212A
:103020001548FDF789FC02211448FEF717F9012124
:103030001348FDF781FC01211148FDF76EFC114B8F
:103040003C460FCB84E80F003B4619460E48FFF77D
:1030500096FC0D4B03225A650B4B41F212229A65E6
:1030600005210948FFF7BCFE1620FFF76BFE00BFE5
:103070001437BD4690BD00BF30253E000300200040
:1030800090171A009C61000000A0044080B582B037
:1030900000AF2F48FFF7B5FE786079682C48FFF73E
:1030A0007FFE7B6803F00403002B2FD028E0284824
:1030B000FFF799FC0346FB70264B1B684D2B0BD882
:1030C000FB780A2B08D0234B1B685A1C21490A6045
:1030D0002149FA78CA5413E01E4B1B685A1C1D493B
:1030E0000A601D4A0A21D1541A4B1B681A4A002152
:1030F000D1541A4B01221A60164B00221A6005E0C7
:10310000134B9B6803F02003002BD0D17B6803F0A6
:103110000103002B18D0124B1B684F2B11D8104BFA
:103120001B68104AD35C002B0BD00D4B1B685A1C3C
:103130000B490A600B4AD35C19460548FFF767FC48
:1031400002E0074B00221A6000BF0837BD4680BD71
:1031500000A004405C0A0020BC090020B80900203F
:10316000600A00200C0A002080B584B000AF7860AF
:1031700039600C2001F066FD0346FB607A68FB684D
:103180001A60FB683A685A60FB6800229A60FB6824
:1031900018461037BD4680BD80B586B000AFF860D8
:1031A000B9607A600C2001F04DFD03467B617B69BC
:1031B000FA681A607B69BA685A607B697A689A60B3
:1031C0007B6918461837BD4680BD80B584B000AF16
:1031D0007860082001F036FD0346BB60BB687A6862
:1031E0001A607B689B00184601F02CFD03461A46C6
:1031F000BB685A600023FB6009E0BB685A68FB6843
:103200009B00134400221A60FB680133FB60FA68DC
:103210007B689A42F1DBBB6818461037BD4680BD1B
:1032200080B58AB000AFF860B9607A603B60396BF6
:103230007868FFF799FFF861BB6879687A6B184680
:10324000FFF7AAFFB86100237B620EE02A4A7B6A7F
:1032500052F82330002B05D127497B6ABA6941F81F
:10326000232005E07B6A01337B627B6AAD2BEDDDB9
:10327000FB685A68BB689B0013441A68FB699A6034
:10328000FB685A68BB689B001344FA691A60396886
:10329000B868FFF769FF78617B68B968BA6B184650
:1032A000FFF77AFF386100233B620EE0124A3B6A67
:1032B00052F82330002B05D10F493B6A3A6941F897
:1032C000232005E03B6A01333B623B6AAD2BEDDD19
:1032D000FB685A687B689B0013441A687B699A6094
:1032E000FB685A687B689B0013447A691A6000BFC8
:1032F0002837BD4680BD00BFF80600202DE9F04FFD
:103300009BB000AF78623962FA61BB616B461E46C2
:1033100050220021A34801F09DFCFB69002B0ADB31
:10332000BB69002B07DB3A6AFB699A4203DD3A6A04
:10333000BB699A4204DC9C4801F03AFDB5465BE16A
:10334000FB697B64396A4B1E3B640A4600231446C2
:103350001D464FF000024FF000036B0143EAD463B7
:1033600062010A4600233A617B614FF000024FF090
:103370000003D7E9044528464301204643EAD063C9
:10338000204642010B469B000733DB08DB00ADEB18
:10339000030D6B4603339B089B00FB63396A4B1E8E
:1033A000BB630A460023BA60FB604FF000024FF097
:1033B0000003D7E9024528464301204643EAD0638B
:1033C000204642010A4600233A607B604FF000022B
:1033D0004FF00003D7E9004528464301204643EA61
:1033E000D063204642010B469B000733DB08DB001D
:1033F000ADEB030D6B4603339B089B007B63396A7F
:103400004B1E3B630A46002392469B464FF0000248
:103410004FF000034FEA4B1343EADA634FEA4A12D4
:103420000A460023904699464FF000024FF00003F1
:103430004FEA491343EAD8634FEA48120B469B0010
:103440000733DB08DB00ADEB030D6B4603339B0852
:103450009B00FB620023BB640023FB6413E0FB6B57
:10346000FA6C4FF0FF3143F82210FB6AFA6C4FF010
:10347000FF3143F822107B6BFA6C002143F82210D5
:10348000FB6C0133FB64FA6C3B6A9A42E7DB002376
:103490003B6508E0454A3B6D4FF0FF3142F8231091
:1034A0003B6D01333B653B6D322BF3DD7B6C184686
:1034B000FFF712FD99E0FFF755FD78647B6B7A6C9E
:1034C00053F82230012B00D18FE07B6B7A6C012105
:1034D00043F822107B6A5A687B6C9B0013441B687C
:1034E0007B657A6CBB699A427CD1BB69BB65002362
:1034F000FB6510E0BA6DFB699A4211D0FB6AFA6D68
:10350000B96D43F82210FB6BBA6D53F82230BB65DE
:10351000FB6D0133FB65FA6D3B6A9A42EADB00E022
:1035200000BF00233B660CE0FB6A3A6E53F8223082
:10353000B3F1FF3F02D0BB6C0133BB643B6E013380
:103540003B663A6E3B6A9A42EEDB00237B6613E0F1
:103550007B6E002B03D1154AFB69136009E0BA6C3E
:103560007B6ED21AFB6A53F8222010497B6E41F819
:1035700023207B6E01337B66BA6C7B6E9A42E7DA5E
:1035800001E0FFF7EFFCFFF7D3FC0346002BF8D078
:10359000074B4FF0FF321A60064B4FF0FF321A60B4
:1035A00029E000BF0C0A0020F0610000400200206A
:1035B00014000020180000207B6D1A68FB6B53F884
:1035C0002230B3F1FF3F05D17B6D1A68FB6B796C3C
:1035D00043F822107B6D1B681846FFF77DFC7B6D5E
:1035E0009B687B657B6D002BE6D1FFF7A1FC034652
:1035F000002B3FF460AFB5466C37BD46BDE8F08F99
:1036000080B586B004AF33237B607868FFF7DDFDBB
:103610000346954A13607868FFF7D7FD0346924A40
:103620001360914B1868914B0293904B0193904B10
:103630000093904B01220021FFF7F2FD8A4B18689E
:103640008D4B02938D4B01938D4B0093894B03223D
:103650000021FFF7E5FD844B1868884B0293864BE9
:103660000193884B0093834B02220021FFF7D8FD82
:103670007D4B1868814B02937F4B0193824B0093E3
:103680007B4B05220121FFF7CBFD774B18687A4B66
:1036900002937A4B01937B4B0093754B02220121DD
:1036A000FFF7BEFD704B1868704B02936F4B019390
:1036B000764B0093734B04220221FFF7B1FD6A4B56
:1036C00018686D4B02936D4B0193714B00936C4BDB
:1036D00006220321FFF7A4FD634B1868634B029396
:1036E000624B01936B4B0093654B08220321FFF75C
:1036F00097FD5D4B1868614B02935F4B0193644BE0
:103700000093624B06220421FFF78AFD564B18688E
:10371000594B0293594B01935F4B00935B4B07222C
:103720000421FFF77DFD504B1868504B02934F4B1F
:1037300001935A4B0093554B09220421FFF770FD6A
:10374000494B1868494B0293484B0193544B0093E3
:103750004D4B0A220521FFF763FD434B1868474B89
:103760000293454B01934C4B0093474B0722052195
:10377000FFF756FD3C4B18683C4B02933B4B0193C3
:10378000454B0093424B07220621FFF749FD364B7C
:1037900018683A4B0293384B0193424B00933C4BD1
:1037A00009220621FFF73CFD2F4B1868324B02938C
:1037B000324B0193374B0093354B08220621FFF71C
:1037C0002FFD294B18682D4B02932B4B0193344B43
:1037D0000093314B0A220721FFF722FD224B186884
:1037E000254B0293254B01932E4B00932A4B092224
:1037F0000721FFF715FD1C4B18681C4B02931B4B50
:103800000193294B0093234B0B220821FFF708FD5E
:10381000154B1868154B0293144B0193234B0093DF
:10382000204B0C220921FFF7FBFC0F4B1868124BB1
:103830000293124B01931E4B0093194B14220A2141
:10384000FFF7EEFC084B18680B4B02930B4B0193F0
:10385000184B0093144B0D220B21FFF7E1FC024B98
:103860001868024B029327E0F40600201C62000057
:1038700020620000106200002C6200003062000034
:1038800034620000406200004C6200005862000098
:1038900064620000706200007C62000088620000C8
:1038A00094620000A0620000AC620000B8620000F8
:1038B000C4620000D0620000954B0193954B0093C9
:1038C000954B0E220B21FFF7ABFC944B1868944BE1
:1038D0000293944B0193944B0093944B0D220C2133
:1038E000FFF79EFC8D4B1868894B0293884B019320
:1038F0008F4B00938D4B0F220C21FFF791FC874BD0
:103900001868884B0293864B0193824B0093864B39
:103910000E220D21FFF784FC804B1868804B029328
:10392000804B0193824B00937F4B0F220D21FFF7B9
:1039300077FC7A4B18687B4B0293794B01937D4B54
:103940000093744B11220E21FFF76AFC734B186829
:103950006F4B02936E4B0193774B0093744B102285
:103960000F21FFF75DFC6D4B18686D4B02936D4B9B
:103970000193704B0093704B11221021FFF750FC04
:10398000664B1868674B0293654B01936B4B009332
:10399000694B12221021FFF743FC604B18685C4B07
:1039A00002935B4B0193654B0093624B12221121F2
:1039B000FFF736FC594B1868554B0293544B019353
:1039C0005F4B00935D4B13221221FFF729FC534BF1
:1039D0001868544B0293524B01935A4B0093584B27
:1039E00016221321FFF71CFC4C4B1868484B02931E
:1039F000474B0193544B0093514B17221321FFF770
:103A00000FFC464B1868464B0293464B01934F4BB5
:103A100000934F4B15221421FFF702FC3F4B18680F
:103A20003B4B02933A4B01934A4B0093484B1B226A
:103A30001421FFF7F5FB394B1868394B0293394BCA
:103A40000193444B0093414B1B221521FFF7E8FBE8
:103A5000324B1868334B0293314B01933E4B00932A
:103A60003A4B19221521FFF7DBFB2C4B1868284B2A
:103A70000293274B0193334B0093344B16221521AD
:103A8000FFF7CEFB254B1868254B0293254B01937E
:103A9000314B00932B4B19221621FFF7C1FB1F4B13
:103AA0001868204B02931E4B0193274B0093254B24
:103AB00017221621FFF7B4FB184B1868144B02931A
:103AC000134B0193254B00931F4B18221721FFF72F
:103AD000A7FB124B1868134B0293114B0193204B19
:103AE00000931E4B1D221821FFF79AFB0B4B186801
:103AF000074B0293064B01931A4B0093174B1F225F
:103B00001821FFF78DFB054B1868014B02932BE042
:103B10001C620000DC620000AC620000F4060020C1
:103B2000306200002C620000D0620000B862000029
:103B3000E8620000F4620000006300000C63000013
:103B40001863000024630000306300003C63000041
:103B5000C46200004863000054630000606300001A
:103B60006C63000078630000954B0193954B0093C4
:103B7000954B1A221921FFF753FB944B1868944B6D
:103B80000293944B0193944B00938E4B1D221A2168
:103B9000FFF746FB8D4B18688E4B02938C4B0193BD
:103BA0008E4B0093874B1E221A21FFF739FB874B60
:103BB0001868834B0293824B0193894B0093894B86
:103BC0001C221B21FFF72CFB804B1868804B0293B3
:103BD000804B0193814B0093814B1E221C21FFF7E8
:103BE0001FFB7A4B1868764B0293754B01937E4B03
:103BF00000937B4B20221C21FFF712FB734B1868AC
:103C00006F4B02936E4B0193744B0093724B1E22C9
:103C10001D21FFF705FB6D4B18686E4B02936C4B33
:103C20000193724B00936C4B1F221D21FFF7F8FA92
:103C3000664B1868664B0293664B01936A4B009380
:103C4000664B20221E21FFF7EBFA604B18685C4B95
:103C500002935B4B0193664B0093644B21221F211F
:103C6000FFF7DEFA594B18685A4B0293584B0193F1
:103C7000604B00935C4B29222021FFF7D1FA534B74
:103C800018684F4B02934E4B01935B4B0093584B7C
:103C900022222121FFF7C4FA4C4B18684D4B0293A6
:103CA0004B4B0193554B0093514B23222121FFF79E
:103CB000B7FA464B1868474B0293454B0193504B5C
:103CC00000934D4B25222221FFF7AAFA3F4B18689B
:103CD0003B4B02933A4B01934A4B0093474B2422B0
:103CE0002321FFF79DFA394B1868394B0293394B62
:103CF0000193454B0093434B26222421FFF790FA72
:103D0000324B18682E4B02932D4B01933F4B00937F
:103D10003C4B27222421FFF783FA2C4B18682D4BAC
:103D200002932B4B0193384B0093354B26222521D0
:103D3000FFF776FA254B1868214B0293204B01932D
:103D4000334B00932E4B28222521FFF769FA1F4B96
:103D500018681F4B02931F4B01932C4B00932A4B67
:103D600027222621FFF75CFA184B1868194B02939B
:103D7000174B0193264B0093234B28222621FFF754
:103D80004FFA124B18680E4B02930D4B0193214BC7
:103D900000931F4B2B222821FFF742FA0B4B186888
:103DA0000B4B02930B4B01931B4B0093114B2C229B
:103DB0002921FFF735FA054B1868014B02932DE0D6
:103DC0001C6200008463000054630000F4060020BD
:103DD000306200002C6200006C6300009063000001
:103DE0009C63000048630000A86300007863000043
:103DF000B4630000C0630000CC630000D86300001F
:103E0000E4630000F0630000FC630000086400004D
:103E100014640000206400002C640000714B0193C6
:103E2000714B0093714B2E222921FFF7F9F9704B4A
:103E30001868704B0293704B0193704B0093704B5A
:103E40002C222A21FFF7ECF9694B18686A4B029380
:103E5000684B01936B4B0093694B2D222A21FFF78E
:103E6000DFF9634B18685F4B02935E4B0193664B1F
:103E70000093634B2F222A21FFF7D2F95C4B18687D
:103E8000584B0293574B0193604B0093604B302289
:103E90002B21FFF7C5F9564B1868574B0293554B2A
:103EA0000193584B00935A4B2D222B21FFF7B8F961
:103EB0004F4B18684B4B02934A4B0193514B009365
:103EC0004E4B2D222C21FFF7ABF9494B18684A4B7A
:103ED0000293484B0193444B0093484B2E222C21D4
:103EE000FFF79EF9424B1868424B0293424B0193F5
:103EF000454B0093414B2F222C21FFF791F93C4B6E
:103F000018683D4B02933B4B01933F4B00933D4B55
:103F10002F222D21FFF784F9354B1868354B02937A
:103F2000354B0193394B0093364B30222D21FFF74F
:103F300077F92F4B1868304B02932E4B0193354B7A
:103F40000093294B32222E21FFF76AF9284B18687B
:103F5000244B0293234B01932F4B00932A4B312286
:103F60002F21FFF75DF9224B1868224B0293224B59
:103F700001932A4B0093254B33223021FFF750F950
:103F80001B4B18681B4B02931B4B0193214B009357
:103F9000214B32223121FFF743F9154B1868164B9C
:103FA0000293144B01931D4B00931B4B3322312181
:103FB000FFF736F90E4B18680A4B0293094B019331
:103FC000164B0093134B33223221FFF729F9144B80
:103FD00000221A60134B09221A6000BF0837BD4641
:103FE00080BD00BF1C62000038640000C063000098
:103FF000F40600202C620000306200002C640000F7
:1040000044640000506400005C64000068640000C8
:104010002064000074640000806400008C64000070
:10402000B0090020B409002080B400AF134B1B7806
:10403000DBB2682B03D1124B124A1A6019E00F4B06
:104040001B78DBB2772B03D10D4B0C221A6010E0EA
:104050000A4B1B78DBB2732B03D1094B11221A6078
:1040600007E0064B1B78DBB26F2B02D1044B052215
:104070001A6000BFBD465DF8047B7047BC09002094
:10408000B4090020D0B6048880B400AF034B0022EE
:104090001A6000BFBD465DF8047B7047B009002080
:1040A00080B485B000AF786039600023FB6018E011
:1040B000114AFB6852F823301A687B689A420DD186
:1040C0000D4AFB6852F823305A683B689A4205D182
:1040D000094AFB6852F823309B6806E0FB6801330D
:1040E000FB60FB68AD2BE3DD044B18461437BD467F
:1040F0005DF8047B704700BFF8060020986400005C
:1041000080B58CB000AF0023FB620123BB6233E0BB
:104110002A4B1B685A682A49FB6A51F823309B00D6
:1041200013441B685A683B462649184600F068FE4F
:104130003B461946244800F083FE2449224800F0FB
:104140007FFE1F4AFB6A52F823201D49BB6A51F8C3
:10415000233019461046FFF7A3FF034619461A48B5
:1041600000F06EFE1949184800F06AFEFB6A013340
:10417000FB62BB6A0133BB62114ABB6A52F823304F
:10418000B3F1FF3FC4D1124B1A6807F11403114970
:10419000184600F035FE07F1140319460A4800F0EE
:1041A0004FFE0A49084800F04BFE0B49064800F054
:1041B00047FE00BF3037BD4680BD00BFF40600207B
:1041C000400200209C6400000C030020A06400005A
:1041D000B4090020A4640000A864000080B584B085
:1041E00000AF786005211448FEF7E8FD0023FB606E
:1041F0000BE07A68FB6813441978104AFB68134493
:104200000A461A70FB680133FB607A68FB68134446
:104210001B78002BEDD1094AFB68134400221A7069
:1042200005210548FEF7DCFD01210348FEF7F5FDF9
:1042300000BF1037BD4680BD00A004400C0A00201E
:1042400080B584B000AF786039600023FB600BE07C
:10425000FB6801337A681A44FB6839680B441278AA
:104260001A70FB680133FB60786800F000FE0246BC
:10427000FB689A42ECD800BF00BF1037BD4680BD36
:1042800080B483B000AF00237B6007E0094A7B68FD
:10429000134400221A707B6801337B607B68B3F59E
:1042A0007A7FF3DB00BF00BF0C37BD465DF8047BAF
:1042B000704700BF0C03002090B591B000AFFEF72F
:1042C000C9FD5D4B07F12C040FCB84E80F0007F10B
:1042D0002C031846FDF72CFFFEF770FEFEF79CFE40
:1042E000FFF78EF900F0DEF8544B554A1A600121B1
:1042F0005448FEF792FD544B1B68002B22D0052139
:104300005048FEF75BFDFFF7BBFFFFF7BDFEFFF771
:104310008BFE4E4B18684E4B1A68484B1B68332176
:10432000FEF7ECFFFFF7ECFE4A4800F0DDF8464BE5
:1043300000221A6005214348FEF752FD0121414841
:10434000FEF76BFD00F0E4F80346002B71D007F197
:104350001803184600F0ECF83B7E622B13D107F1EE
:104360001803184600F083FD0346022B0BD93A1DB3
:1043700007F1180311461846FFF762FF07F118030B
:104380001846FFF72BFF3B7E722B2BD107F118034A
:10439000184600F06CFD0346022B23D93A1D07F1A5
:1043A000180311461846FFF74BFF3B1D184600F057
:1043B0000DFC0346FB63FA6B274B1340264A9342DE
:1043C00010D1FB6B224A1360204B1868204B1A68EF
:1043D0001A4B1B683321FEF791FFFFF791FE1D4832
:1043E00000F082F83B7E4C2B05D17B7E422B02D124
:1043F000124B11221A603B7E412B05D17B7E562B3E
:1044000002D11648FFF7EAFE3B7E542B08D17B7E93
:104410004F2B05D11248FFF7E1FE084B084A1A60FE
:104420003B7E532B05D17B7E432B02D10D48FFF7FA
:10443000D5FEFEF7A5FC5EE7B8640000B4090020D5
:10444000D0B6048800A00440B8090020F40600207B
:10445000B00900200C03002000000488AC640000B8
:10446000B0640000B464000080B483B000AF0346C1
:10447000FB7197F90730002B0BDBFB7903F01F0270
:10448000074997F907305B09012000FA02F241F869
:10449000232000BF0C37BD465DF8047B704700BF8A
:1044A00000E100E080B586B000AF4FF41653FB602A
:1044B00000233B824FF480537B820023BB600523A3
:1044C0003B750123BB7501233B604FF480737B6018
:1044D0003B461946034800F03FF800BF1837BD4679
:1044E00080BD00BF0008014080B582B000AF786099
:1044F000786800F0BCFC03461A467968034800F06F
:104500001FFA00BF0837BD4680BD00BF000801404C
:1045100080B400AF054B1B6E002B14BF012300239A
:10452000DBB21846BD465DF8047B70476C0C00207A
:1045300080B582B000AF78600549786800F08FFCE4
:10454000044B00221A6600BF0837BD4680BD00BF7D
:10455000740C00206C0C0020B0B58AB000AF7860FD
:1045600039607B68604A934215D101215F48FCF7AE
:10457000E3F90C20FFF778FF0D20FFF775FF5C4B88
:104580000022DA655A4B00221A66594B564A5A6085
:10459000584B554A5A607B68574A934215D10121BE
:1045A0005648FCF7C9F91420FFF75EFF1520FFF706
:1045B0005BFF534B0022DA65514B00221A66504BC9
:1045C0004D4A5A604F4B4C4A5A607B684E4A934260
:1045D00015D101214D48FCF7AFF92820FFF744FF22
:1045E0002920FFF741FF4A4B0022DA65484B0022A1
:1045F0001A66474B444A5A60464B434A5A607B68A6
:10460000454A934215D101214448FCF795F92B20E6
:10461000FFF72AFF2C20FFF727FF414B0022DA6526
:104620003F4B00221A663E4B3B4A5A603D4B3A4A8A
:104630005A607B681B6C03F00103002B08D17B6878
:1046400001225A647B681B6C7B6801229A6404E037
:104650007B6801229A647B681B6C7868FEF70AFB12
:10466000314B07F10C041D460FCD0FC495E8070030
:1046700084E807003B68DB687B6100233B733B6891
:104680001B7D7B763B681B8A7B833B685B8ABB8395
:104690003B689B683B6107F10C0319467868FEF79D
:1046A00073FA7B681B6843F002027B681A607B68C0
:1046B0004FF44062DA607B6803225A673B681A68ED
:1046C0003B685B681A437B689A6705217868FEF748
:1046D00029FA3B689B7D002B02D07B680422DA64B8
:1046E00000BF2837BD46B0BD0000014000420400B5
:1046F000CC0A0020640A002000040140005204009B
:104700009C0B0020340B00200008014000620400D4
:104710006C0C0020040C0020000C0140007204000E
:104720003C0D0020D40C0020C864000080B582B08D
:1047300000AF0A4B1A6C094BDB6C13407B60074AD5
:104740007B6893647B6803F00403002B02D0044869
:1047500000F0B4F900BF0837BD4680BD000001403D
:10476000CC0A002080B582B000AF0F4B1A6C0E4B04
:10477000DB6C13407B600C4A7B6893647B6803F0BE
:104780000203002B02D0094800F036F97B6803F0E1
:104790000103002B04D0044B1B6C044800F068F9A3
:1047A00000BF0837BD4680BD00000140640A0020FC
:1047B00080B582B000AF0A4B1A6C094BDB6C13401A
:1047C0007B60074A7B6893647B6803F00403002BDB
:1047D00002D0044800F072F900BF0837BD4680BD22
:1047E000000401409C0B002080B582B000AF0F4B4D
:1047F0001A6C0E4BDB6C13407B600C4A7B68936435
:104800007B6803F00203002B02D0094800F0F4F8A3
:104810007B6803F00103002B04D0044B1B6C04489D
:1048200000F026F900BF0837BD4680BD00040140F6
:10483000340B002080B582B000AF0A4B1A6C094BD4
:10484000DB6C13407B60074A7B6893647B6803F0F2
:104850000403002B02D0044800F030F900BF0837F1
:10486000BD4680BD000801406C0C002080B582B0C0
:1048700000AF0F4B1A6C0E4BDB6C13407B600C4A85
:104880007B6893647B6803F00203002B02D0094825
:1048900000F0B2F87B6803F00103002B04D0044B56
:1048A0001B6C044800F0E4F800BF0837BD4680BD2B
:1048B00000080140040C002080B582B000AF0A4B14
:1048C0001A6C094BDB6C13407B60074A7B6893646E
:1048D0007B6803F00403002B02D0044800F0EEF8DC
:1048E00000BF0837BD4680BD000C01403C0D0020D4
:1048F00080B582B000AF0F4B1A6C0F4BDB6C1340CE
:104900007B600C4A7B6893647B6803F00203002B96
:1049100002D00A4800F070F87B6803F00103002B16
:1049200004D0044B1B6C054800F0A2F800BF083708
:10493000BD4680BD000C014000080140D40C0020A1
:1049400080B586B000AFF860B9607A6000BFF868E3
:1049500000F0FCF80346002BF9D1FDF703F83861AD
:10496000FB681D4A934201D11C4B7B61FB681C4ACA
:10497000934201D11B4B7B61FB681B4A934201D1DF
:104980001A4B7B61FB681A4A934201D1194B7B6138
:104990007B69012283F864207B697A689A657B6968
:1049A0000833B968184600F05AFA7B690022DA65C4
:1049B0007B69FA685A607B6901221A70FB68DB6CBC
:1049C00043F00202FB68DA643869FCF7DCFF00BFE1
:1049D0001837BD4680BD00BF00000140640A0020BA
:1049E00000040140340B002000080140040C0020AA
:1049F000000C0140D40C002080B584B000AF78607A
:104A0000FCF7B0FFF8607B681B78012B26D17B6830
:104A1000DB6D7A6813441A7A7B685B685A637B683B
:104A2000DB6D5A1C7B68DA657B68DA6D7B689B6D91
:104A30009A4215D17B685B68DA6C7B685B6822F010
:104A40000202DA647B6802221A707B685B68DA6CA7
:104A50007B685B6842F00102DA6401E000BF00E0BD
:104A600000BFF868FCF78FFF00BF1037BD4680BD60
:104A700080B584B000AF7860FCF774FFF8600E4B2F
:104A80001B78022B0FD17B6800221A707B685B6851
:104A9000DA6C7B685B6822F00102DA647B680022D2
:104AA00083F8642000E000BFF868FCF76CFF00BFEB
:104AB0001037BD4680BD00BF040C002080B584B017
:104AC00000AF7860FCF74EFFF8607B685B68DB69DD
:104AD000BB607B681B78002B02D0032B0AD02DE033
:104AE000BB68232B29D17B6803221A707B680022C4
:104AF000DA6522E0BB68212B11D17B6800221A7095
:104B00007B68DB6D7A68134400221A727B685B68ED
:104B10004FF40062DA607B6801221A660EE07B685F
:104B2000DB6DBA68D1B27A6813440A461A727B68A0
:104B3000DB6D5A1C7B68DA6500E000BFF868FCF7A3
:104B400022FF00BF1037BD4680BD000080B483B097
:104B500000AF78607B68154A934204D1144B93F8F8
:104B60006430DBB21BE07B68124A934204D1124BE3
:104B700093F86430DBB212E07B68104A934204D1B0
:104B80000F4B93F86430DBB209E07B680D4A934227
:104B900004D10D4B93F86430DBB200E000231846DB
:104BA0000C37BD465DF8047B704700BF0000014034
:104BB000640A002000040140340B0020000801407A
:104BC000040C0020000C0140D40C00200A2200211B
:104BD00000F0D8B908B5074B044613B10021AFF374
:104BE0000080054B1868836A03B19847204601F09E
:104BF0009FFA00BF00000000E464000070B50D4D96
:104C00000D4C641BA4100026A64209D10B4D0C4C80
:104C100001F090FA641BA4100026A64205D170BDD5
:104C200055F8043B98470136EEE755F8043B9847A2
:104C30000136F2E780000020800000208000002084
:104C400084000020024B0146186800F057B800BFEE
:104C50001C00002002440346934200D1704703F831
:104C6000011BF9E737B5002944D051F8043C019005
:104C7000002BA1F10404B8BFE41800F08BFA1E4A1F
:104C80000198136833B96360146003B0BDE8304025
:104C900000F086BAA34208D9256861198B4201BF8A
:104CA00019685B6849192160EDE71A465B680BB12A
:104CB000A342FAD911685518A5420BD124682144A2
:104CC0005418A3421160E0D11C685B685360214412
:104CD0001160DAE702D90C230360D6E72568611971
:104CE0008B4204BF19685B68636004BF4919216087
:104CF0005460CAE703B030BDA40D0020F8B5CD1C48
:104D000025F0030508350C2D38BF0C25002D06466F
:104D100001DBA94203D90C2333600020F8BD00F069
:104D200039FA21490A6814469CB9204F3B6823B9D7
:104D30002146304600F054F838602946304600F0ED
:104D40004FF8431C23D10C233360304600F028FA7F
:104D5000E3E723685B1B17D40B2B03D923601C44A8
:104D6000256004E06368A2420CBF0B6053603046CC
:104D700000F016FA04F10B00231D20F00700C21A00
:104D8000CCD01B1AA350C9E722466468CCE7C41CE8
:104D900024F00304A042E3D0211A304600F020F8AA
:104DA0000130DDD1CFE700BFA40D0020A80D002009
:104DB0000FB40A4B13B51C6824B1A36913B920467C
:104DC00000F048F905AB049AA1680193204600F071
:104DD00073FB02B0BDE8104004B070471C00002017
:104DE00038B5064D0023044608462B6001F08AF9C9
:104DF000431C02D12B6803B1236038BDB00D0020E5
:104E00000EB400B59CB01DAB029006906FF000414F
:104E1000094807910491094953F8042B059100684A
:104E2000019302A900F01EFA029B00221A701CB026
:104E30005DF804EB03B070471C0000200802FFFF80
:104E400010B50246147813460132002CFAD1013B0A
:104E500011F8012B03F8012F002AF9D110BD0346E8
:104E600011F8012B03F8012B002AF9D170470346F2
:104E700013F8012B002AFBD1181A013870470000E3
:104E8000012B2DE9F04701D0242B06D900F084F83E
:104E9000162303600020BDE8F087DFF8E4C00D466C
:104EA0002E4615F8014B14F80C7017F00807F7D1CF
:104EB0002D2C32D12C780127B51C002B5BD0102B68
:104EC00009D1302C07D12C7804F0DF04582C4DD1B7
:104ED0006C781023023507F1004808F1FF384FF0D5
:104EE000000CB8FBF3F9664603FB198AA4F1300EF7
:104EF000BEF1090F16D87446A34224DDBCF1000FA1
:104F00001EDBB1451CD301D1A24519DB06FB0346CC
:104F10004FF0010C15F8014BE8E72B2C04BF2C785F
:104F2000B51CCAE7A4F1410EBEF1190F01D8373CF8
:104F3000E2E7A4F1610EBEF1190F04D8573CDBE79C
:104F40004FF0FF3CE6E7BCF1000F05DA22230360D7
:104F5000464642B930469EE707B17642002AF9D06C
:104F6000BCF1000F00D0691E1160F3E73024002B64
:104F7000B1D10823AFE7302CA5D00A23ABE700BF9F
:104F8000E964000013460A46014602480068FFF73C
:104F900077BF00BF1C000020014B1868704700BF9E
:104FA0001C000020002310B50446C0E90033C0E90E
:104FB0000433836081814366C2818361194608227C
:104FC0005C30FFF747FE054B6362054BA362054B60
:104FD000E362054B2462236310BD00BF415A000009
:104FE000635A00009B5A0000BF5A0000014900F0BC
:104FF000AFB800BF995D000070B568224D1E5543E3
:105000000E4605F17401FFF779FE044640B1002118
:10501000C0E900160C30A06005F16802FFF71AFE27
:10502000204670BD014800F0B3B800BFAD0D0020B0
:10503000014800F0AEB800BFAD0D0020014800F0FF
:10504000A7B800BFAE0D0020014800F0A2B800BF15
:10505000AE0D002010B50446FFF7F0FFA3691BB1A9
:10506000BDE81040FFF7F0BFC4E912332365134BCE
:10507000134A1B68A262A34204BF0123A361204616
:1050800000F020F86060204600F01CF8A060204688
:1050900000F018F80022E06004216068FFF782FF4A
:1050A000A06801220921FFF77DFFE068022212219A
:1050B000FFF778FF0123A361D2E700BFE46400009B
:1050C000ED4F0000F8B50746FFF7ACFF1E4B1E681A
:1050D000B36913B93046FFF7BDFF4836D6E901344E
:1050E000013B03D533680BB33668F7E7B4F90C50CE
:1050F000D5B9164BE36004F15800656600F047F837
:10510000FFF796FFC4E90155C4E904552560A56180
:105110000822294604F15C00FFF79CFDC4E90D5507
:10512000C4E912552046F8BD6834D9E70421384651
:10513000FFF762FF044630600028D5D1FFF778FF03
:105140000C233B60EEE700BFE46400000100FFFFBA
:105150002DE9F8430646884600F148040027D4E9C3
:105160000195B9F1010905D52468002CF7D138461D
:10517000BDE8F883AB89012B07D9B5F90E300133AF
:1051800003D029463046C04707436835E9E77047F2
:10519000704770470148FFF7FBBF00BFAC0D002010
:1051A0000148FFF7F6BF00BFAC0D00202DE9F04726
:1051B0008E689E4282460C4690461F4638D88A89A1
:1051C00012F4906F32D025680969A5EB0109656971
:1051D00005EB450505EBD57501334B446D109D423C
:1051E00038BF1D46530531D52946FFF787FD0646D2
:1051F00050B90C23CAF80030A38943F04003A381BF
:105200004FF0FF30BDE8F08721694A4600F0C8FE44
:10521000A38923F4906343F08003A3812661656131
:105220004E44A5EB09052660A5603E46BE4200D966
:105230003E4620683246414600F0C0FEA3689B1BF4
:10524000A3602368334423600020DBE72A4600F094
:10525000CFFE06460028E1D121695046FFF702FD46
:10526000C7E700002DE9F04F98468B891B069DB0DB
:1052700007460D4614460ED50B6963B94021FFF76A
:105280003DFD2860286120B90C233B604FF0FF30C2
:10529000D1E040236B610023099320238DF829304E
:1052A000CDF80C803023DFF8A8818DF82A304FF03C
:1052B000010923469A4613F8012B0AB1252AF9D190
:1052C000BAEB040B0BD05B46224629463846FFF763
:1052D0006DFF013000F0AA80099A5A4409929AF8A9
:1052E0000030002B00F0A28000234FF0FF32CDE908
:1052F00005230AF1010A049307938DF853301A939A
:105300005446052214F8011B514800F0F9FD049A97
:10531000D8B9D00644BF20238DF85330110744BFBD
:105320002B238DF853309AF800302A2B15D0079A8A
:10533000544600204FF00A0C214611F8013B303B47
:10534000092B4ED9B0B1079214E0A0EB080309FA7B
:1053500003F313430493A246D2E7039B191D1B6872
:105360000391002BBBBF5B4242F0020207930793FD
:10537000B8BF049223782E2B0CD163782A2B35D119
:10538000039B1A1D1B680392002BB8BF4FF0FF331D
:1053900002340593DFF8C8A021780322504600F0BC
:1053A000AFFD40B14023A0EB0A0003FA00F0049BDC
:1053B00003430134049314F8011B26488DF8281088
:1053C000062200F09DFD002838D0234B1BBB039B19
:1053D000073323F0070308330393099B33440993EE
:1053E00067E70CFB02320C460120A5E700230134DD
:1053F000059319464FF00A0C204610F8012B303A5D
:10540000092A03D9002BC5D00591C3E70CFB012164
:1054100004460123F0E703AB00932A460F4B04A98F
:105420003846AFF30080421C0646D6D1AB895B06F6
:105430003FF52CAF09981DB0BDE8F08F03AB00938A
:105440002A46064B04A9384600F0D4F9EBE700BF22
:105450004C6600005666000000000000AD510000E0
:10546000526600009368013B002B10B4936008DA89
:105470009469A34201DB0A2903D15DF8044B00F0D3
:1054800023BB1368581C1060197008465DF8044B64
:105490007047F8B506460F461446D518AC4201D100
:1054A000002007E014F8011B3A463046FFF7DAFF08
:1054B000431CF3D1F8BD00002DE9F04F0D469DB01F
:1054C00014469846064618B183690BB9FFF7C2FD2A
:1054D000894B9D421BD175686B6ED90705D4AB898A
:1054E0009A0502D4A86DFFF753FEAB891B0701D5BF
:1054F0002B69EBB92946304600F04AFBC0B16B6E10
:10550000DC070ED54FF0FF301DB0BDE8F08F7B4BB0
:105510009D4201D1B568DFE7794B9D4208BFF56830
:10552000DAE7AB899805EDD4A86DFFF732FEE9E71D
:105530000023099320238DF82930CDF80C803023E7
:10554000DFF8C0818DF82A304FF0010923469A46D2
:1055500013F8012B0AB1252AF9D1BAEB040B0BD0B1
:105560005B46224629463046FFF793FF013000F0A4
:10557000AA80099A5A4409929AF80030002B00F048
:10558000A28000234FF0FF32CDE905230AF1010A82
:10559000049307938DF853301A935446052214F858
:1055A000011B584800F0ACFC049AD8B9D10644BF9E
:1055B00020238DF85330130744BF2B238DF853302D
:1055C0009AF800302A2B15D0079A544600204FF045
:1055D0000A0C214611F8013B303B092B4ED9B0B1E2
:1055E000079214E0A0EB080309FA03F313430493B2
:1055F000A246D2E7039B191D1B680391002BBBBF7A
:105600005B4242F0020207930793B8BF04922378EB
:105610002E2B0CD163782A2B35D1039B1A1D1B68C6
:105620000392002BB8BF4FF0FF3302340593DFF82D
:10563000E4A021780322504600F062FC40B14023F0
:10564000A0EB0A0003FA00F0049B03430134049327
:1056500014F8011B2C488DF82810062200F050FC8D
:1056600000283FD0294B1BBB039B073323F00703C4
:1056700008330393099B3B44099367E70CFB023211
:105680000C460120A5E700230134059319464FF08D
:105690000A0C204610F8012B303A092A03D9002BB6
:1056A000C5D00591C3E70CFB012104460123F0E7B7
:1056B00003AB00932A46164B04A93046AFF3008093
:1056C0000746781CD6D16B6ED90705D4AB899A05ED
:1056D00002D4A86DFFF75DFDAB895B063FF512AF05
:1056E000099811E703AB00932A46094B04A93046F9
:1056F00000F080F8E4E700BF0C6600002C660000B4
:10570000EC6500004C6600005666000000000000DA
:1057100093540000526600002DE9F0471646994662
:105720008A680B69DDF820809342B8BF1346336066
:1057300091F8432007460C460AB1013333602368D1
:10574000990642BF336802333360256815F00605B9
:1057500006D104F1190AE36832689B1AAB4226DCD1
:1057600094F84320131E226818BF012392062BD4FD
:1057700004F1430249463846C04701301ED0236831
:10578000E568326803F00603042B08BFAD1AA3686E
:1057900022690CBF25EAE57500259342C4BF9B1A18
:1057A000ED1800261A34B5421AD1002008E0012372
:1057B000524649463846C047013003D14FF0FF30CA
:1057C000BDE8F0870135C6E7E1185A1C302081F8A2
:1057D0004300224494F8451082F843100233C7E78F
:1057E0000123224649463846C0470130E6D00136FB
:1057F000D9E700002DE9FF470F7E0C9D782F9146D9
:1058000080460C469A4601F1430207D8622F0AD817
:10581000002F00F0D880582F00F0A38004F142053B
:1058200084F842703AE0A7F16303152BF6D801A182
:1058300051F823F08D580000A15800001D580000B9
:105840001D5800001D5800001D580000A158000000
:105850001D5800001D5800001D5800001D58000074
:10586000AD590000D15800008F5900001D580000AC
:105870001D580000CF5900001D580000D1580000ED
:105880001D5800001D580000975900002B681A1D74
:105890001B682A6004F1420584F842300123A3E02A
:1058A00020682968060601F104030AD50E682B60FA
:1058B000002E03DA2D23764284F843305E480A2313
:1058C00019E00E682B6010F0400F18BF36B2EFE7FA
:1058D0002B682068191D2960010601D51E6802E0A9
:1058E0004606FBD51E8854486F2F0CBF08230A2399
:1058F000002184F843106568A560002DA2BF2168CF
:1059000021F0040121600EB9002D4DD01546B6FBE3
:10591000F3F103FB1167C75D05F8017D3746BB4214
:105920000E46F4D9082B0BD12368DE0708D523696E
:1059300061689942DEBF302305F8013C05F1FF356F
:10594000521B2261CDF800A04B4603AA21464046D7
:10595000FFF7E2FE01304CD14FF0FF3004B0BDE85C
:10596000F087354881F845702968236851F8046B41
:1059700029601D0614D5DF0744BF43F020032360D0
:105980001EB9236823F0200323601023B0E72368A7
:1059900043F0200323607823284884F84530E3E768
:1059A000590648BFB6B2E6E71546BBE72B6826683E
:1059B0006169181D286035061B6801D5196002E071
:1059C0007006FBD51980002323611546BAE72B68C2
:1059D0001A1D2A601D6862680021284600F090FAAE
:1059E00008B1401B606063682361002384F8433082
:1059F000A8E723692A4649464046D0470130ABD044
:105A000023689B0713D4E068039B9842B8BF1846ED
:105A1000A4E70123324649464046D04701309BD097
:105A20000135E36803995B1AAB42F2DCEBE7002532
:105A300004F11906F5E700BF5D6600006E66000020
:105A400010B50C46B1F90E1000F0F8FA0028ABBF03
:105A5000636DA3891B1823F48053ACBF6365A381D6
:105A600010BD2DE9F0411F468B89DB0505460C462C
:105A7000164605D5B1F90E100223002200F0C8F930
:105A8000A389B4F90E1023F48053A38132463B4618
:105A90002846BDE8F04100F069B810B50C46B1F9F0
:105AA0000E1000F0B5F9431CA38915BF606523F4FF
:105AB000805343F48053A38118BFA38110BDB1F973
:105AC0000E1000F0D3B80000F8B50E461446054697
:105AD00018B183690BB9FFF7BDFA214B9C422BD15A
