S0190000657868696269742D6C696768742D746573742E733337BC
S113000000000420C9010000F5010000F501000012
S1130010F5010000F5010000F5010000F501000004
S1130020F5010000F5010000F5010000F5010000F4
S1130030F5010000F4010000F5010000F5010000E5
S1130040F5010000F5010000F5010000F5010000D4
S1130050F5010000F5010000F5010000F5010000C4
S1130060F5010000F5010000F5010000F5010000B4
S113007069210000A1210000F5010000F501000044
S1130080F5010000F5010000F5010000F501000094
S1130090ED21000025220000F5010000F50100001B
S11300A0F5010000F5010000F5010000F501000074
S11300B0F5010000F5010000F5010000F501000064
S11300C0F5010000F5010000F5010000F501000054
S11300D0F5010000F5010000F5010000F501000044
S11300E071220000A9220000F5010000F5220000A1
S11300F02D230000F5010000F5010000F5010000CA
S1130100F5010000F5010000F501000010B5054CF3
S1130110237833B9044B13B10448AFF300800123AF
S1130120237010BD7800002000000000F8260000B5
S113013008B5034B1BB103490348AFF3008008BD66
S1130140000000007C000020F8260000A3F5803A9F
S1130150704700BF174B002B08BF134B9D46FFF79A
S1130160F5FF00218B460F461348144A121A02F079
S11301707DFA0E4B002B00D098470D4B002B00D07E
S113018098470020002104000D000D48002802D0EB
S11301900C48AFF3008002F045FA2000290001F07A
S11301A047FE02F02BFA00BF000008000000000028
S11301B0000000000000042078000020DC03002080
S11301C00000000000000000064880470649074A76
S11301D0074B9A42BEBF51F8040B42F8040BF8E7F0
S11301E0FFF7B8FF99020000042700000000002078
S11301F078000020FEE700BF80B483B000AF1C4B42
S1130200D3F8943003F00703023B032B1BD801A25D
S113021052F823F0350200002D02000025020000F0
S11302203D020000134B1B687B6010E04FF4004359
S11302307B600CE0104B1B687B6008E00F4B1B6875
S11302405B087B6003E00D4B1B687B6000BF084BC1
S1130250D3F800311B0A03F01F0301337A68B2FBA1
S1130260F3F318460C37BD465DF8047B704700BFB6
S113027000400E4004000020000000200800002080
S113028080B400AF034B1B681846BD465DF8047B81
S1130290704700BF0000002080B400AF074B084A3D
S11302A09A60064BD3F88830044A43F47003C2F8CA
S11302B0883000BFBD465DF8047B704700ED00E068
S11302C00000000080B400AF4FF400431846BD4660
S11302D05DF8047B704780B400AF4FF47A7318461E
S11302E0BD465DF8047B704780B400AF034B1B68C8
S11302F01846BD465DF8047B704700BF040000202B
S113030080B483B000AF786001227B6802FA03F303
S113031018460C37BD465DF8047B704780B487B03F
S113032000AFF860B9607A60FB6803F1424303F5FB
S11303308013DA00BB6813449B007B617B697A6895
S11303401A6000BF1C37BD465DF8047B704700008F
S113035080B483B000AF054B1B687B607B68184694
S11303600C37BD465DF8047B704700BF0C000020CD
S113037080B582B000AFFFF73FFF7860064BD3F83B
S113038000311B0A03F01F0301337A6802FB03F3F5
S113039018460837BD4680BD00400E4080B582B087
S11303A000AF0D4800F080FB0346FB70FB78072B81
S11303B005D0092B07D1FFF71FFF786006E0FFF790
S11303C0C7FF786002E000237B6000BF7B681846AB
S11303D00837BD4680BD00BF06000E0080B584B05E
S11303E000AF78607B68002B1CD11B4800F05CFBDD
S11303F00346FB7200BFFB7A013B072B23D801A203
S113040052F823F0290400004704000047040000C8
S11304103704000047040000470400002F040000D4
S11304203F040000002312E00023FB600EE0FFF70E
S11304308FFFF8600AE0FFF723FFF86006E0FFF79C
S113044097FFF86002E00023FB6000BFFB681846DA
S11304501037BD4680BD00BFB800320090B585B0EE
S113046000AF78600023BB607B683C4A93420BD0AA
S11304707B683A4A934209D87B68394A934203D04D
S11304807B68384A934201E000BF00E000BF78680F
S113049000F00AFB0346FB607B68304A93421AD0A3
S11304A07B682E4A93421DD87B682D4A934204D020
S11304B07B682C4A934207D014E02B4BD3F880304E
S11304C003F00703FB600EE0274BD3F8843003F0FE
S11304D00703FB6007E0244BD3F8883003F00703DD
S11304E0FB6000E000BFFB68042B2ED801A252F889
S11304F023F000BF450500000905000011050000B8
S11305002105000019050000FFF7DCFEB8601FE0BC
S1130510FFF7EAFEB8601BE0FFF7DDFEB86017E006
S1130520FFF76AFE0446104BD3F800311B0E03F0AC
S1130530010301331846FFF7E3FE0346B4FBF3F36C
S1130540BB6005E00023BB6002E00023BB6000BF8A
S1130550BB6818461437BD4690BD00BF0500240093
S113056002001E000300200000400E4080B483B04F
S113057000AF78600A4BD3F8443103F00103002B39
S113058008D100BF064BD3F840217B681340002BF1
S1130590F8D100E000BF0C37BD465DF8047B70471E
S11305A000400E4080B582B000AF7860786800F0FB
S11305B0AFF90346013318460837BD4680BD000035
S11305C080B586B000AF78600B46FB7000233B61BA
S11305D07B681B0A03F00F03013B092B44D801A2DB
S11305E052F823F00D060000190600006906000009
S11305F069060000130600001F060000290600001B
S113060069060000330600003F060000184B7B61BA
S113061018E0184B7B6115E0174B7B6112E0174B18
S11306207B6101233B610DE0154B7B6110233B6132
S113063008E0144B7B614FF480333B6102E0124BC2
S11306407B6100BF7B681B0B03F01F03FB603B69EE
S1130650002B02D03869FFF789FFFB781A46F96846
S11306607869FFF75BFE00E000BF1837BD4680BD28
S113067000400E40B0400E40C0400E40E0400E40EE
S1130680E8400E40F0400E4050410E4090B585B019
S113069000AF78607B6803F47813B3F5781F00F03B
S11306A01B81B3F5781F00F22281B3F5481F00F0D7
S11306B00E81B3F5481F00F21A81B3F5401F00F014
S11306C0E580B3F5401F00F21281B3F5381F00F046
S11306D0B680B3F5381F00F20A81B3F5101F00F09D
S11306E0E980B3F5101F00F20281B3F5001F00F09A
S11306F0B580B3F5001F00F2FA80B3F5F01F79D08E
S1130700B3F5F01F00F2F380B3F5D01F00F0AB8017
S1130710B3F5D01F00F2EB80B3F5B01F7DD0B3F575
S1130720B01F00F2E480B3F5A01F68D0B3F5A01F9A
S113073000F2DD80B3F5801F00F0C580B3F5801FA3
S113074000F2D580B3F5602F00F0B980B3F5602FC7
S113075000F2CD80B3F5402F3DD0B3F5402F00F229
S1130760C680B3F5202F23D0B3F5202F00F2BF802D
S1130770B3F5802F0DD0B3F5802F00F2B880002B95
S113078003D0B3F5003F17D0B1E0FFF735FDF860B3
S1130790B0E0FFF731FDF860594BD3F80C311B0A78
S11307A0C3F308030133FA68B2FBF3F3FB60A1E07F
S11307B0FFF722FDF8609DE0FFF71EFDF860504B47
S11307C0D3F808311B0AC3F308030133FA68B2FBF8
S11307D0F3F3FB608EE0FFF70FFDF860484BD3F8AE
S11307E014311B0A03F01F030133FA68B2FBF3F35D
S11307F0FB607FE04348FFF731FEF8607AE042484F
S1130800FFF72CFEF8603E4BD3F8303103F00303BE
S1130810FA6822FA03F3FB606CE03A48FFF71EFE25
S1130820F860374BD3F8203103F00F031846FFF775
S113083067FD0246FB68B3FBF2F3FB605AE0314804
S1130840FFF70CFEF8602E4BD3F820311B0903F0A0
S11308500303FA6822FA03F3FB604BE02B48FFF72B
S1130860FDFDF86046E02948FFF7F8FDF860244BE9
S1130870D3F828311B0903F003031846FFF740FDA2
S11308800246FB68B3FBF2F3FB6033E01F48FFF75B
S1130890E5FDF8601A4BD3F828311B0A03F0030373
S11308A004331846FFF72CFD0246FB68B3FBF2F352
S11308B0FB601FE01448FFF7D1FDF8601AE0FFF772
S11308C06DFDF86016E0FFF743FDF86012E00020CC
S11308D0FFF784FDF8600DE0FFF78EFC04467868AE
S11308E0FFF760FE0346B4FBF3F3FB6002E0002372
S11308F0FB6000BFFB6818461437BD4690BD00BFBF
S113090000400E4002001E000500240003002000E9
S113091080B584B000AF78607B681B0903F00F03D7
S1130920BB60BB68013B092B00F2AA8001A252F80C
S113093023F000BF5D0900006D0900007D0900007F
S11309409D090000810A0000810A0000AD09000031
S1130950BD0900000D0A0000630A00004C4BD3F8E7
S113096000311B0A03F01F03FB608CE0484BD3F8F3
S113097014311B0A03F01F03FB6084E0444BD3F8DB
S113098000311B0E03F00103FB60FB6801331846C2
S1130990FFF7B6FC0346013BFB6074E03C4BD3F825
S11309A00C311B0AC3F30803FB606CE0384BD3F82B
S11309B008311B0AC3F30803FB6064E07B68354A13
S11309C0934204D07B68344A93420DD01AE0304BF2
S11309D0D3F8203103F00F03FB60F868FFF790FCB5
S11309E00346013BFB6010E0294BD3F820311B097F
S11309F003F00303FB60F868FFF782FC0346013B46
S1130A00FB6002E00023FB6000BF3CE07B68234AFC
S1130A10934204D07B68224A93420ED01DE01C4BC3
S1130A20D3F828311B0903F00303FB60F868FFF7D0
S1130A3067FC0346013BFB6012E0154BD3F82831F9
S1130A401B0A03F00303FB60FB6804331846FFF73B
S1130A5057FC0346013BFB6002E00023FB6000BF40
S1130A6011E07B680F4A934206D1094BD3F8303129
S1130A7003F00303FB6002E00023FB6000BF02E01D
S1130A800023FB6000BFFB6818461037BD4680BDDD
S1130A9000400E408006160080162E0090171A00A3
S1130AA090273000A009140080B485B000AF7860AE
S1130AB00123FB737B6803F00F03BB60BB68013B3E
S1130AC0072B00F2CC8001A252F823F0ED0A0000BB
S1130AD0430B0000790B00005F0C0000C10B000009
S1130AE0F70B00005F0C00001B0C0000614BD3F8F7
S1130AF0943003F00703023B052B1ED801A252F8E1
S1130B0023F000BF290B0000230B00001D0B000085
S1130B102F0B00003B0B0000350B00000223FB737E
S1130B200EE00323FB730BE00423FB7308E00B23A9
S1130B30FB7305E00C23FB7302E00523FB7300BF8A
S1130B4090E04C4BD3F8803003F00703042B0CD017
S1130B50042B0DD8012B02D0022B03D008E0032371
S1130B60FB7308E00223FB7305E00A23FB7302E036
S1130B700123FB7300BF75E03E4BD3F8843003F0D0
S1130B800703013B032B17D801A252F823F000BF3F
S1130B90A10B0000A70B0000B30B0000AD0B00007D
S1130BA00323FB730BE00223FB7308E00A23FB73AC
S1130BB005E00623FB7302E00123FB7300BF51E051
S1130BC02C4BD3F8883003F00703042B0CD0042BF0
S1130BD00DD8012B02D0022B03D008E00323FB73B2
S1130BE008E00223FB7305E00A23FB7302E0012300
S1130BF0FB7300BF36E01F4B1B6F03F00103002B98
S1130C0004D0012B05D10923FB7305E00723FB73F3
S1130C1002E00123FB7300BF24E0164BD3F85C31E0
S1130C2003F03003302B13D0302B14D8202B0CD0EE
S1130C30202B10D8002B02D0102B03D00BE0012363
S1130C40FB730BE00723FB7308E00423FB7305E04D
S1130C500823FB7302E00123FB7300BF02E00023BF
S1130C60FB7300BFFB7B18461437BD465DF8047B5D
S1130C70704700BF00400E4080B483B000AFEFF374
S1130C8010833B603B687B6072B600BF7B6818468C
S1130C900C37BD465DF8047B704780B483B000AF69
S1130CA078607B68002B01D162B600BF00BF0C37AF
S1130CB0BD465DF8047B704780B487B000AFF86030
S1130CC0B9607A60FB6803F1424303F58013DA00EC
S1130CD0BB6813449B007B617B697A681A6000BF20
S1130CE01C37BD465DF8047B704780B485B000AF07
S1130CF0786039607B6803F1424303F58013DA00BE
S1130D003B6813449B00FB60FB681B681846143760
S1130D10BD465DF8047B704780B483B000AF786053
S1130D20044A7B68D36200BF0C37BD465DF8047B80
S1130D30704700BF00300E4080B400AF034B5B6AC5
S1130D401846BD465DF8047B704700BF00300E4076
S1130D5080B400AF034B00225A6300BFBD465DF868
S1130D60047B704700300E4080B400AF044B4AF659
S1130D70E8525A6300BFBD465DF8047B704700BF6C
S1130D8000300E4080B400AF01231846BD465DF824
S1130D90047B704780B582B000AF0C4BDB6E0B4A0E
S1130DA043F08073D36600210948FFF79EFF786003
S1130DB07B68002B03D0042000F0CAFC02E0002072
S1130DC000F0C6FC00BF0837BD4680BD00300E40B1
S1130DD04C300E4080B48BB000AF01237B627B6A41
S1130DE01B053B62324BDB6C1B0A03F00F03FB61F8
S1130DF0304B1B881A462F4B1B8828335B0813443F
S1130E0003F12801FB695A1C13469B001344B1FBF0
S1130E10F3F3013BBB61BB697B6107233B613A6927
S1130E207B69934228BF1346BB61BB691B06BB6148
S1130E301F4BDB6C23F0EE62B9693B6A0B431C4920
S1130E401343CB641C4BB3F90030002B29DB1A4B42
S1130E50B3F90030FB81FA89FB8928335B0813441A
S1130E6003F12802FB6901335900FB6901335B0874
S1130E700B44B2FBF3F3BB60BB687B6007233B60AE
S1130E803A687B68934228BF1346BB60BB681B016A
S1130E90BB60074B1B6D23F070020549BB6813430D
S1130EA00B6500BF2C37BD465DF8047B704700BF5F
S1130EB000300E40940000209800002080B483B0DD
S1130EC000AF78600B467B807B689AB2054B1A8032
S1130ED0054A7B88138000BF0C37BD465DF8047B50
S1130EE0704700BF940000209800002080B483B0B5
S1130EF000AF0346FB71FB79002B02D0012B04D019
S1130F0007E0074B074A9A6503E0054B064A9A65D2
S1130F1000BF00BF0C37BD465DF8047B704700BFBF
S1130F2000300E4077402057372110B780B485B089
S1130F3000AF0346FB710B46BB7113467B712D4B0F
S1130F40D3F88031FB60BB79032B1DD801A252F882
S1130F5023F000BF650F00006D0F0000770F000045
S1130F60810F0000FB68DBB2FB600FE0FB681B0A2B
S1130F70DBB2FB600AE0FB681B0CDBB2FB6005E044
S1130F80FB681B0EFB6001E000232CE07B79002B47
S1130F9011D1FB681B03FB60FB6823F47043002B37
S1130FA001D000231FE0144BDB6E23F4704212497E
S1130FB0FB681343CB667B79012B13D1FB681B03BE
S1130FC0FB60FB6823F47043002B01D000230AE08C
S1130FD0094BD3F8EC3023F470420749FB68134300
S1130FE0C1F8EC30012318461437BD465DF8047B84
S1130FF0704700BFB081E00F00300E4080B489B06C
S113100000AFF860B96011461A460B46FB711346EF
S1131010BB710023FB610023BB61BB791B02FA791E
S1131020002A01D0012200E0002213437B617B6986
S113103040F2013293425CD07B6940F20132934228
S113104000F293807B69B3F5407F00F082807B6976
S1131050B3F5407F00F289807B6940F2012293421C
S11310603BD07B6940F2012293427ED87B69B3F581
S1131070007F62D07B69B3F5007F76D87B6940F24C
S1131080011293421DD07B69B3F5817F6DD27B69D8
S1131090B3F5807F45D07B69B3F5807F65D87B69E4
S11310A0002B32D07B69012B5FD1364BD3F87431DE
S11310B0FB61FB691B0ADBB2BB61FB69DBB2FB6151
S11310C054E0304BD3F87431FB61FB691B0EBB61F8
S11310D0FB691B0CDBB2FB6148E02A4BD3F8783187
S11310E0FB61FB691B0ADBB2BB61FB69DBB2FB6121
S11310F03CE0244BD3F87831FB61FB691B0EBB61E8
S1131100FB691B0CDBB2FB6130E01E4BD3F86C3186
S1131110FB61FB691B0ADBB2BB61FB69DBB2FB61F0
S113112024E0184BD3F86C31FB61FB691B0EBB61E7
S1131130FB691B0CDBB2FB6118E0124BD3F8703176
S1131140FB61FB691B0ADBB2BB61FB69DBB2FB61C0
S11311500CE00C4BD3F87031FB61FB691B0EBB61D7
S1131160FB691B0CDBB2FB6100E000BFFB68FA69A2
S11311701A60BB68BA691A6000BF2437BD465DF8BF
S1131180047B7047B081E00F80B584B000AF0346A4
S1131190FB713E4B5B6B012B0CBF01230023FB73E4
S11311A0FFF7E2FD00BF394B9B6F03F00103002BF7
S11311B0F9D1364B1B6C03F00303BB60BB68002BF7
S11311C004D001220D213248FFF776FDBB68DBB263
S11311D0FA799A4208D1FB79002B53D100220D21D0
S11311E02B48FFF769FD4DE0BB68032B02D0BB68B9
S11311F0002B20D1FB79022B02D0FB79012B1AD1D1
S11312004FF40020FFF788FD00BF204B9B6F03F0D5
S11312100103002BF9D11D4B1B6C23F003031B4A64
S113122043F00103136400BFFFF786FD034603F494
S11312300023002BF8D000BF144B9B6F03F0010375
S1131240002BF9D1114B1B6C23F00302FB790F49DE
S113125013430B6400BF0D4B9B6F03F00103002B82
S1131260F9D1FB79002B14BF01230023DBB21A460A
S11312700D210748FFF720FDFB7B002B03D0FFF770
S113128067FD00E000BF1037BD4680BD00300E4052
S113129054300E4080B584B000AF7860484B0222D1
S11312A09A63474B9B6B03F00F03022B01D000237F
S11312B081E0FFF767FD7B685B78012B02D07B68D8
S11312C05B78022B7B68DB884A2B02D80023FB6007
S11312D015E07B68DB88B3F5FA7F03D24FF08053C7
S11312E0FB600CE07B68DB8840F6C312934203D8B2
S11312F04FF00053FB6002E04FF04053FB60304B73
S1131300DB6C23F0405323F001037A68B2F90C201C
S1131310002A01DB012100E00021FA680A43284980
S11313201343CB64264BD3F8EC30254A43F4407383
S1131330C2F8EC307B689A88224B1A80FFF72AFDAA
S11313407B681B891A467B68B3F90C301946104632
S1131350FFF7B4FD7B689B88184600F08DF97B6825
S11313609B7B1846FFF7C2FD7B685B880122012145
S1131370184600F02BF8034683F00103DBB2002B80
S113138001D0002317E00E4BDB6B0D4A43F480635E
S1131390D3637B685B781846FFF7F6FE7B689B7A1D
S11313A0202B01D1012300E000231A460521064821
S11313B0FFF782FC012318461037BD4680BD00BFED
S11313C000300E40960000203C300E4090B595B0A1
S11313D000AF78600B46FB701346BB700023FB64C0
S11313E000237B6407F1240300221A605A609A6088
S11313F007F1180300221A605A609A6007F10C037F
S113140000221A605A609A60984B1B883B81002323
S1131410BB727B68B3F5E16F06D37B6840F6B832E4
S1131420934201D8012300E0002387F8433097F862
S1131430433003F0010387F8433097F8433083F0D7
S11314400103DBB2002B01D000230AE17B68B3F572
S1131450E16F8CBF0123002387F8423097F84230B4
S1131460002B0AD04FF4E163FB6440F6B8337B648D
S11314707A6CFB6CD31ABB6409E04FF49663FB648B
S11314804FF4E1637B647A6CFB6CD31ABB6497F80A
S11314904230002B0BD0764BD3F868313B623B6A69
S11314A01B0E7B613B6A1B0CDBB23B620AE0704B98
S11314B0D3F868313B623B6A1B0ADBB27B613B6A4F
S11314C0DBB23B626B4BDB6C1B0FDBB203F0030341
S11314D0DBB23B723B7A97F8422007F10C0107F12B
S11314E01800FFF78BFD634BD3F8EC301B0ADBB21B
S11314F003F00303DBB27B727C7A97F8422007F196
S11315000C03191D07F11803181D2346FFF776FD78
S11315107A68FB6CD31A79693A6A8A1A03FB02F275
S1131520BB6CB2FBF3F3FB62FA6A3B6A1344FB62E3
S11315307A68FB6CD31AF968BA698A1A03FB02F257
S1131540BB6CB2FBF3F37B627A6ABB6913447B62C4
S11315507A68FB6CD31A3969FA698A1A03FB02F2B6
S1131560BB6CB2FBF3F3BB62BA6AFB691344BB62A4
S1131570FA6A7B699A4213D8FA6A3B6A9A420FD391
S1131580BA6A3B699A420BD8BA6AFB699A4207D392
S11315907A6AFB689A4203D87A6ABB699A4201D292
S11315A000235EE0BB78002B12D0324BDB6D23F4BA
S11315B0FE4323F00203FA6A1202134397F842200F
S11315C0002A01D0022200E000222A491343CB65FD
S11315D0FB78002B44D0397A97F842300022184621
S11315E0FFF7A4FC034683F00103DBB2002B01D018
S11315F0002336E0797A97F8423001221846FFF743
S113160095FC034683F00103DBB2002B01D00023D9
S113161027E07B6AFB63BB6ABB63BA6BFB6B9342D9
S113162038BF13467B627B6A7B63E7233B633A6B79
S11316307B6B934228BF13467B620E4B5B6E23F495
S1131640FF7323F001037A6A5200134397F8422090
S1131650002A01D0012200E00022064913434B6610
S1131660012318465437BD4690BD00BFB82600007C
S1131670B081E00F00300E4080B584B000AF7860D8
S11316800023FB60314B1B6F03F00703BB602F4B40
S1131690DB6C03F00103002B14D0BB68012B11D9C0
S11316A07B68132B02D80423FB6037E07B68132B81
S11316B005D97B68272B02D80823FB602EE0102372
S11316C0FB602BE0214BDB6C03F00103002B14D1F6
S11316D0BB68012B11D87B68092B02D80423FB605B
S11316E01CE07B68092B05D97B68132B02D80823DF
S11316F0FB6013E01023FB6010E0144BDB6C03F081
S11317000103002B0AD0BB68012B07D87B68272B69
S113171002D80823FB6001E01023FB60FB68013B57
S1131720FB60FB681A02FB681B031343FB60074B57
S1131730DB6C23F47F420549FB681343CB64FFF75A
S113174049FB00BF1037BD4680BD00BF00300E40CE
S113175080B584B000AF0346FB7100210E48FFF74B
S1131760C4FAF860FB68002B02D1FB79012B01D984
S1131770FB68002B00BF094B1B6F23F00702FB79AA
S1131780064913430B67064B1B881846FFF774FF83
S113179000BF1037BD4680BD4C300E4000300E40B7
S11317A09600002080B485B000AF786039607B6813
S11317B003F1C063FB60FB683A681A6000BF14372A
S11317C0BD465DF8047B704780B485B000AF786097
S11317D039607B6803F18063FB60FB683A681A60D8
S11317E000BF1437BD465DF8047B704780B582B0F6
S11317F000AF03463960FB71FB79002B1CD0FB79E9
S1131800012B19D0FB79022B16D0FB79032B13D0B3
S1131810FB79042B10D0FB79052B0DD0FB79062B1B
S11318200AD0FB79072B07D0FB79082B04D0FB796E
S1131830092B01D0FB790A2BFA7913465B00134478
S11318401B010C3303F1804303F5204301213A6863
S113185001FA02F211461846FFF7B6FF00BF083737
S1131860BD4680BD80B582B000AF03463960FB71D0
S1131870FB79002B1CD0FB79012B19D0FB79022BAF
S113188016D0FB79032B13D0FB79042B10D0FB79F2
S1131890052B0DD0FB79062B0AD0FB79072B07D03B
S11318A0FB79082B04D0FB79092B01D0FB790A2B97
S11318B0FA7913465B0013441B010C3303F1804394
S11318C003F5204301213A6801FA02F21146184651
S11318D0FFF768FF00BF0837BD4680BD80B584B000
S11318E000AFB9607B600346FB731346BB73FB7B9D
S11318F0002B1CD0FB7B012B19D0FB7B022B16D0B9
S1131900FB7B032B13D0FB7B042B10D0FB7B052B21
S11319100DD0FB7B062B0AD0FB7B072B07D0FB7B70
S1131920082B04D0FB7B092B01D0FB7B0A2BBB7B50
S1131930002B0DD07B68002B05D0FB7BB9681846C3
S1131940FFF790FF04E0FB7BB9681846FFF74EFFF2
S1131950BB68072B20D82C49FA7B13465B00134441
S11319601B010B4404331A68BB689B000F2101FA66
S113197003F3DB431340B97BBA68920001FA02F225
S113198011462148FA7B194313465B0013441B019B
S113199003440433196021E01B49FA7B13465B00BE
S11319A013441B010B4408331A68BB68083B9B00B3
S11319B00F2101FA03F3DB431340B97BBA68083AF9
S11319C0920001FA02F211460F48FA7B19431346BA
S11319D05B0013441B01034408331960BB7B002BD9
S11319E00DD17B68002B05D0FB7BB9681846FFF747
S11319F039FF04E0FB7BB9681846FFF7F7FE00BF28
S1131A001037BD4680BD00BF00A0004080B483B045
S1131A1000AF78600B46FB70FB7863F07F03DBB2AA
S1131A201A467B689A6500BF0C37BD465DF8047B97
S1131A307047000080B586B000AFF860B9607A6086
S1131A40FB7000237B61BB68002B03D12748FEF7A2
S1131A501DFEB860FB78602B13D0602B14DC402B88
S1131A600CD0402B10DC002B02D0202B03D00BE039
S1131A7010237B6109E008237B6106E006237B6178
S1131A8003E004237B6100E000BF7B69002B29D0C5
S1131A90BB685A017B69796801FB03F35B08134453
S1131AA03B617B697A6802FB03F33A69B2FBF3F3A7
S1131AB03B613B69203B3B613B69DB003B613A692D
S1131AC00B4B13403B61FB681B6823F06002FB680F
S1131AD01A60FB681A68FB781A43FB681A60FB6893
S1131AE03A695A6100BF1837BD4680BD40410500C0
S1131AF0F8FF7F0080B485B000AF78600B46FB70C0
S1131B007B68114A93420AD07B68104A934206D0FC
S1131B107B680F4A934202D07B680E4A934200BF0F
S1131B20FB78DB43FB60FB6803F00503FB60FB68A9
S1131B305A007B68DA60FA787B68DA6000BF143791
S1131B40BD465DF8047B704700000140000401407D
S1131B5000080140000C014080B582B000AF7860FD
S1131B6039607B68334A93420AD07B68324A934295
S1131B7006D07B68314A934202D07B68304A934254
S1131B8000BF786800F05EF83B689B7C002B05D0B2
S1131B907B681B6843F080427B681A603B68DB7C8F
S1131BA0002B05D03B681B7D19467868FFF72EFF94
S1131BB03B685B7B1A463B681B8A13433A68D289AD
S1131BC01A437B685A603B6859683B689A683B686B
S1131BD01B7B7868FFF72EFF3B685B7D002B05D0ED
S1131BE07B681B6843F480327B681A603B689B7D8A
S1131BF01B0703F0E0423B68DB7D1B0503F4E003B5
S1131C001A437B681A667B685B6F23F030027B683B
S1131C105A677B685B6F3A68127E1A437B685A671F
S1131C203B681B781A467B68DA6000BF0837BD46FC
S1131C3080BD00BF000001400004014000080140D5
S1131C40000C014080B483B000AF78607B682C4AFC
S1131C5093420AD07B682B4A934206D07B682A4A77
S1131C60934202D07B68294A934200BF7B6840F6C6
S1131C70AA62DA607B6800221A607B6841F205027E
S1131C805A607B6800229A607B6800225A617B68F4
S1131C900022DA647B681E4A9A647B6800221A6612
S1131CA07B6800225A677B6800229A677B6800225F
S1131CB0DA677B68124A93420BD07B68114A9342DD
S1131CC007D07B68104A934203D07B680F4A934243
S1131CD002D17B6800221A657B6800229A657B68C2
S1131CE0084A934203D07B68084A934202D17B6836
S1131CF00022DA6500BF0C37BD465DF8047B7047EF
S1131D00000001400004014000080140000C0140B3
S1131D10F9FF010080B400AF054B1B69044A23F0AE
S1131D200403136130BF00BFBD465DF8047B7047F8
S1131D3000ED00E080B400AF044BDB6C1B0EDBB2A3
S1131D401846BD465DF8047B704700BFB081E00FC4
S1131D5080B582B000AF194B01225A64FFF7EAFF45
S1131D600346FB71FB79002B0CD1154B4AF6E85264
S1131D701A60144B1B68134A43F004031360104B9E
S1131D8000221A60FB79012B05D80F4B1B680E4A01
S1131D9043F4005313600D4B1B6A23F444130B4AA2
S1131DA043F4881313620A4B1B68094A43F4F8434B
S1131DB0136000BF0837BD4680BD00BF00000E4061
S1131DC090310E4098310E4064310E4000400E4078
S1131DD0A4310E4080B500AF01211448FEF7F0FB9A
S1131DE0012304220A210320FFF778FD00230122A6
S1131DF00B210320FFF772FD01230422062100209A
S1131E00FFF76CFD0023012207210020FFF766FD88
S1131E100123042206210120FFF760FD0023012293
S1131E2007210120FFF75AFD00BF80BD00350A00DD
S1131E3090B59DB000AFFFF78BFF294B07F1540419
S1131E400FCB84E80F0007F154031846FFF722FA7A
S1131E50FFF7C0FF00F06EF8224800F08DF800BFD5
S1131E60214800F08BFB0346002BF9D10023FB66CD
S1131E7002E0FB6E0133FB66FB6E1C4A9342F8DD05
S1131E801B4800F079F800BF174800F077FB0346C1
S1131E90002BF9D10023BB6602E0BB6E0133BB66A5
S1131EA0BB6E124A9342F8DD124800F065F800BF99
S1131EB00D4800F063FB0346002BF9D100237B6639
S1131EC002E07B6E01337B667B6E084A9342F8DD49
S1131ED0FFF720FF002318467437BD4690BD00BFAE
S1131EE0C8260000BC260000000C01409F860100AB
S1131EF0C0260000C426000080B483B000AF0346AF
S1131F00FB7197F90730002B0BDBFB7903F01F0201
S1131F10074997F907305B09012000FA02F241F8FA
S1131F20232000BF0C37BD465DF8047B704700BF1B
S1131F3000E100E080B586B000AF4FF41653FB60BB
S1131F4000233B824FF480537B820023BB60052334
S1131F503B750123BB750A233B604FF420637B6010
S1131F603B461946034800F01BF800BF1837BD462E
S1131F7080BD00BF000C014080B582B000AF786026
S1131F80786800F083FB03461A467968034800F03A
S1131F90F3F900BF0837BD4680BD00BF000C014007
S1131FA0B0B58AB000AF786039607B685D4A93420F
S1131FB015D101215C48FEF703FB0C20FFF79CFFC1
S1131FC00D20FFF799FF594B0022DA65574B002289
S1131FD01A66564B534A5A60554B524A5A607B68AC
S1131FE0544A934215D101215348FEF7E9FA1420CB
S1131FF0FFF782FF1520FFF77FFF504B0022DA65C1
S11320004E4B00221A664D4B4A4A5A604C4B494A81
S11320105A607B684B4A934215D101214A48FEF726
S1132020CFFA2820FFF768FF2920FFF765FF474B09
S11320300022DA65454B00221A66444B414A5A6035
S1132040434B404A5A607B68424A934215D101216E
S11320504148FEF7B5FA2B20FFF74EFF2C20FFF77F
S11320604BFF3E4B0022DA653C4B00221A663B4B89
S1132070384A5A603A4B374A5A607B681B6C03F003
S11320800103002B08D17B6801225A647B681B6C16
S11320907B6801229A6404E07B6801229A647B686D
S11320A01B6C7868FFF7CEFD2E4B07F10C041D4620
S11320B00FCD0FC495E8070084E807003B68DB6890
S11320C07B6100233B733B681B7D7B763B681B8AEB
S11320D07B833B685B8ABB833B689B683B6107F1FE
S11320E00C0319467868FFF737FD7B684FF44062AC
S11320F0DA607B6803225A673B681A683B685B684E
S11321001A437B689A6705217868FFF7F3FC3B68FC
S11321109B7D002B02D07B680422DA6400BF283741
S1132120BD46B0BD0000014000420400040100208F
S11321309C0000200004014000520400D40100204F
S11321406C0100200008014000620400A402002089
S11321503C020020000C01400072040074030020C3
S11321600C030020D826000080B582B000AF0A4BD3
S11321701A6C094BDB6C13407B60074A7B689364E1
S11321807B6803F00403002B02D0044800F0AFF98D
S113219000BF0837BD4680BD000001400401002097
S11321A080B582B000AF0F4B1A6C0E4BDB6C134042
S11321B07B600C4A7B6893647B6803F00203002B0A
S11321C002D0094800F034F97B6803F00103002BC6
S11321D004D0044B1B6C044800F066F900BF0837B8
S11321E0BD4680BD000001409C00002080B582B047
S11321F000AF0A4B1A6C094BDB6C13407B60074A37
S11322007B6893647B6803F00403002B02D00448CA
S113221000F06DF900BF0837BD4680BD00040140E1
S1132220D401002080B582B000AF0F4B1A6C0E4B66
S1132230DB6C13407B600C4A7B6893647B6803F01F
S11322400203002B02D0094800F0F2F87B6803F087
S11322500103002B04D0044B1B6C044800F024F948
S113226000BF0837BD4680BD000401406C0100205A
S113227080B582B000AF0A4B1A6C094BDB6C13407B
S11322807B60074A7B6893647B6803F00403002B3C
S113229002D0044800F02BF900BF0837BD4680BDCA
S11322A000080140A402002080B582B000AF0F4BAB
S11322B01A6C0E4BDB6C13407B600C4A7B68936496
S11322C07B6803F00203002B02D0094800F0B0F849
S11322D07B6803F00103002B04D0044B1B6C0448FF
S11322E000F0E2F800BF0837BD4680BD0008014099
S11322F03C02002080B582B000AF0A4B1A6C094B37
S1132300DB6C13407B60074A7B6893647B6803F053
S11323100403002B02D0044800F0E9F800BF08379A
S1132320BD4680BD000C01407403002080B582B01E
S113233000AF0F4B1A6C0E4BDB6C13407B600C4AE6
S11323407B6893647B6803F00203002B02D0094886
S113235000F06EF87B6803F00103002B04D0044BFB
S11323601B6C044800F0A0F800BF0837BD4680BDD0
S1132370000C01400C03002080B586B000AFF8606B
S1132380B9607A6000BFF86800F0F8F80346002BE3
S1132390F9D1FEF771FC3861FB681D4A934201D103
S11323A01C4B7B61FB681C4A934201D11B4B7B6134
S11323B0FB681B4A934201D11A4B7B61FB681A4AA2
S11323C0934201D1194B7B617B69012283F864201C
S11323D07B697A689A657B690833B968184600F0A6
S11323E04DF97B690022DA657B69FA685A607B697A
S11323F001221A70FB68DB6C43F00202FB68DA64AA
S11324003869FEF74AFC00BF1837BD4680BD00BFDF
S1132410000001409C000020000401406C010020E9
S1132420000801403C020020000C01400C03002085
S113243080B584B000AF7860FEF71EFCF8607B685E
S11324401B78012B26D17B68DB6D7A6813441A7ADA
S11324507B685B685A637B68DB6D5A1C7B68DA6552
S11324607B68DA6D7B689B6D9A4215D17B685B68EB
S1132470DA6C7B685B6822F00202DA647B68022211
S11324801A707B685B68DA6C7B685B6842F00102F7
S1132490DA6401E000BF00E000BFF868FEF7FDFB6E
S11324A000BF1037BD4680BD80B584B000AF7860F2
S11324B0FEF7E2FBF8607B681B78022B0FD17B6888
S11324C000221A707B685B68DA6C7B685B6822F0B8
S11324D00102DA647B68002283F8642000E000BF14
S11324E0F868FEF7DAFB00BF1037BD4680BD80B543
S11324F084B000AF7860FEF7BFFBF8607B685B6870
S1132500DB69BB607B681B78002B02D0032B0AD0ED
S11325102DE0BB68232B29D17B6803221A707B68CA
S11325200022DA6522E0BB68212B11D17B680022EE
S11325301A707B68DB6D7A68134400221A727B6818
S11325405B684FF40062DA607B6801221A660EE071
S11325507B68DB6DBA68D1B27A6813440A461A7292
S11325607B68DB6D5A1C7B68DA6500E000BFF868A5
S1132570FEF793FB00BF1037BD4680BD80B483B027
S113258000AF78607B68154A934204D1144B93F8EA
S11325906430DBB21BE07B68124A934204D1124BD5
S11325A093F86430DBB212E07B68104A934204D1A2
S11325B00F4B93F86430DBB209E07B680D4A934219
S11325C004D10D4B93F86430DBB200E000231846CD
S11325D00C37BD465DF8047B704700BF0000014026
S11325E09C000020000401406C0100200008014010
S11325F03C020020000C01400C03002008B5074BEE
S1132600044613B10021AFF30080054B1868836AB8
S113261003B19847204600F041F800BF00000000D5
S1132620F426000070B50D4D0D4C641BA41000265B
S1132630A64209D10B4D0C4C00F032F8641BA410D7
S11326400026A64205D170BD55F8043B98470136D3
S1132650EEE755F8043B98470136F2E77000002096
S11326607000002070000020740000200244034623
S1132670934200D1704703F8011BF9E7034611F8B0
S1132680012B03F8012B002AF9D17047034613F8F4
S1132690012B002AFBD1181A01387047FEE700BF4E
S11326A0F8B500BFF8BC08BC9E467047F8B500BF3B
S11326B0F8BC08BC9E4670470000000030000000D3
S11326C031000000320000000002080705000A0083
S11326D0C8000000FFFF010005000000000000002A
S11326E000C201000005000000100000000000000E
S10F26F0000000001000002000000000AA
S10B26FC50DAFF7F0100000029
S1132704005A620200800000C0EA2101C0EA2101EB
S113271400000000000000000000000000000000B1
S113272400000000000000000000000000000000A1
S11327340000000000000000000000000000000091
S11327440000000000000000000000000000000081
S11327540000000000000000000000000000000071
S11327640000000000000000000000000000000061
S10B2774310100000D01000019
S90301C932
